:020000040800F2
:1000000000280020090D0008590D0008590D0008AE
:10001000590D0008590D0008590D00080000000096
:10002000000000000000000000000000590D000862
:10003000590D000800000000590D0008590D000876
:10004000590D0008590D0008590D0008590D0008F8
:10005000590D0008590D0008590D0008590D0008E8
:10006000590D0008590D0008590D0008590D0008D8
:10007000590D0008590D0008590D0008590D0008C8
:10008000590D0008590D0008590D0008590D0008B8
:10009000590D0008590D0008590D0008590D0008A8
:1000A000590D0008590D0008590D0008590D000898
:1000B000590D0008590D0008590D0008590D000888
:1000C000590D0008590D0008590D0008450C00088D
:1000D000A10C0008590D0008590D0008590D000821
:1000E000590D0008590D000800000000590D0008C6
:1000F000590D0008590D0008590D0008590D000848
:10010000590D0008590D0008590D0008590D000837
:10011000590D0008590D0008590D0008590D000827
:10012000590D0008590D0008590D0008590D000817
:1001300010B5054C237833B9044B13B10448AFF321
:1001400000800123237010BD140000200000000077
:10015000A40D000808B5034B1BB103490348AFF3D6
:10016000008008BD0000000018000020A40D000859
:1001700080B485B000AF78607B68FB600CE04FF422
:100180007A73BB6002E0BB68013BBB60BB68002BBD
:10019000F9D1FB68013BFB60FB68002BEFD100BF8E
:1001A0001437BD4680BC704780B500AF064B0422B3
:1001B0001A70054B10225A70034B044A5A600248C9
:1001C00000F0D0F800BF80BD30000020000000200B
:1001D00080B584B000AF78600B46FB7013463B805F
:1001E00004221D49786800F074FA0122052178681C
:1001F00000F027FA1949786800F0F7F90222002187
:10020000786800F01EFAFB781B01154A82FB031286
:100210005211DB17D31AFB700023FB600AE00421A4
:10022000786800F005F93B881846FFF7A1FFFB68E6
:100230000133FB60FB78FA689A42F0DB0322062167
:10024000786800F0FEF90749786800F0CEF900BF41
:100250001037BD4680BD00BF0C000020D00D000847
:100260001F85EB51C80D000880B500AF0C21134865
:1002700000F0D8F9114800F019FA11490F4800F0C0
:10028000B4F9012200210D4800F0DBF90D490B48BB
:1002900000F0ABF902220021084800F0D2F90A4927
:1002A000064800F0A2F903220021044800F0C9F931
:1002B0000649024800F099F900BF80BD30000020D7
:1002C000D80D0008E80D0008FC0D00080C0E000811
:1002D00080B500AF0C210C4800F0A4F90A4800F0EA
:1002E000E5F90A49084800F080F901220021064892
:1002F00000F0A7F9012264210348FFF769FFFFF727
:10030000B3FF00BF80BD00BF30000020D80D000843
:1003100080B500AF00F048FC0221022000F004FC90
:10032000FFF742FFFFF7D4FF00BF80BD80B485B068
:1003300000AF78607B68FB600CE04FF47A73BB60C1
:1003400002E0BB68013BBB60BB68002BF9D1FB68D6
:10035000013BFB60FB68002BEFD100BF1437BD46AB
:1003600080BC704780B582B000AF78607B685B6806
:10037000043318787B685B6805331B7802221946C2
:1003800000F0B6FA7B685B68063318787B685B68B8
:1003900007331B780222194600F0AAFA7B685B68D3
:1003A000083318787B685B6809331B78022219468A
:1003B00000F09EFA7B685B680A3318787B685B689C
:1003C0000B331B780222194600F092FA7B685B68B7
:1003D000023318787B685B6803331B780222194666
:1003E00000F086FA7B685B6818787B685B6801338D
:1003F0001B780222194600F07BFA0221786800F08F
:1004000099F92821786800F095F90121786800F0C1
:1004100091F90F21786800F08DF98021786800F05B
:1004200089F90220FFF782FF00BF0837BD4680BD73
:1004300080B582B000AF78600B46FB707B685B686C
:10044000043318787B685B6805331978FB781B09DF
:10045000DBB203F00103DBB21A4600F00FFB7B684E
:100460005B68063318787B685B6807331978FB781C
:100470005B09DBB203F00103DBB21A4600F0FEFABF
:100480007B685B68083318787B685B680933197888
:10049000FB789B09DBB203F00103DBB21A4600F0E4
:1004A000EDFA7B685B680A3318787B685B680B330E
:1004B0001978FB78DB09DBB21A4600F0DFFA7B68BB
:1004C0005B68023318787B685B6803331B78012212
:1004D000194600F0D3FA7B685B6818787B685B6824
:1004E00001331B780122194600F0C8FA0120FFF7FA
:1004F0001DFF7B685B6818787B685B6801331B783D
:100500000022194600F0BAFA1420FFF70FFF7B68AB
:100510005B68043318787B685B6805331978FB786F
:1005200003F00103DBB21A4600F0A8FA7B685B68AF
:10053000063318787B685B6807331978FB785B08AB
:10054000DBB203F00103DBB21A4600F097FA7B68D6
:100550005B68083318787B685B6809331978FB7827
:100560009B08DBB203F00103DBB21A4600F086FA07
:100570007B685B680A3318787B685B680B33197893
:10058000FB78DB08DBB203F00103DBB21A4600F0B4
:1005900075FA7B685B68023318787B685B680333A5
:1005A0001B780122194600F069FA7B685B681878AD
:1005B0007B685B6801331B780122194600F05EFA04
:1005C0000120FFF7B3FE7B685B6818787B685B6887
:1005D00001331B780022194600F050FA1420FFF76F
:1005E000A5FE00BF0837BD4680BD80B584B000AF12
:1005F000786039600023FB730AE0FB7B3A681344A0
:100600001B7819467868FFF713FFFB7B0133FB73F8
:10061000FB7B3A6813441B78002BEED100BF1037E8
:10062000BD4680BD80B582B000AF78600B46FB70E0
:10063000FB781946786800F07DF800BF0837BD46A2
:1006400080BD80B584B000AF78600B46FB70134668
:10065000BB700023FB737B681B78BA789A4221D267
:100660007B685B78FA789A421CD2BB78012B06D85B
:10067000BB789B01DAB2FB781344FB7309E0BB78CB
:100680000233DBB29B01DAB2FB781344DBB21033E6
:10069000FB73FB7B63F07F03FB73FB7B194678687E
:1006A00000F048F800BF1037BD4680BD80B582B06D
:1006B00000AF78600121786800F03CF80120FFF776
:1006C00035FE8021786800F035F800BF0837BD4658
:1006D00080BD80B586B000AFF860B9601346FB718D
:1006E0000023BB75FB79072B20D8FB79DB00BB759A
:1006F000BB7D43F04003BB75BB7D1946F86800F035
:1007000019F80023FB750AE0FB7DBA6813441B78D7
:100710001946F868FFF78CFEFB7D0133FB75FB7D06
:10072000072BF1D90221F86800F004F800BF183750
:10073000BD4680BD80B582B000AF78600B46FB70CF
:100740007B685B68043318787B685B6805331978CD
:10075000FB781B09DBB203F00103DBB21A4600F0A1
:100760008DF97B685B68063318787B685B680733B4
:100770001978FB785B09DBB203F00103DBB21A46A0
:1007800000F07CF97B685B68083318787B685B68ED
:1007900009331978FB789B09DBB203F00103DBB264
:1007A0001A4600F06BF97B685B680A3318787B683F
:1007B0005B680B331978FB78DB09DBB21A4600F073
:1007C0005DF97B685B68023318787B685B6803338C
:1007D0001B780022194600F051F97B685B68187895
:1007E0007B685B6801331B780122194600F046F9EB
:1007F0000120FFF79BFD7B685B6818787B685B686E
:1008000001331B780022194600F038F91420FFF755
:100810008DFD7B685B68043318787B685B68053303
:100820001978FB7803F00103DBB21A4600F026F9D1
:100830007B685B68063318787B685B6807331978D8
:10084000FB785B08DBB203F00103DBB21A4600F071
:1008500015F97B685B68083318787B685B68093337
:100860001978FB789B08DBB203F00103DBB21A4670
:1008700000F004F97B685B680A3318787B685B6872
:100880000B331978FB78DB08DBB203F00103DBB232
:100890001A4600F0F3F87B685B68023318787B68CF
:1008A0005B6803331B780022194600F0E7F87B6889
:1008B0005B6818787B685B6801331B7801221946F6
:1008C00000F0DCF80120FFF731FD7B685B681878E9
:1008D0007B685B6801331B780022194600F0CEF874
:1008E0001420FFF723FD00BF0837BD4680BD000080
:1008F00080B483B000AF0346FB710B46BB71134657
:100900007B71FB79032B3ED0042B75D0022B00D0DA
:10091000A9E0BB79072B17D8554B1B68BA79920011
:100920000F2101FA02F2D2431146514A0B401360E3
:100930004F4B1B687979BA79920001FA02F211469D
:100940004B4A0B43136089E0BB790F2B00F2868082
:10095000BB79083BBB71464B5B68BA7992000F21AB
:1009600001FA02F2D2431146414A0B405360404B18
:100970005B687979BA79920001FA02F211463C4A31
:100980000B4353606AE0BB79072B17D8394B1B68C0
:10099000BA7992000F2101FA02F2D2431146354A88
:1009A0000B401360334B1B687979BA79920001FAD6
:1009B00002F211462F4A0B43136051E0BB790F2B13
:1009C0004ED8BB79083BBB712A4B5B68BA79920061
:1009D0000F2101FA02F2D2431146264A0B4053601E
:1009E000244B5B687979BA79920001FA02F21146D8
:1009F000204A0B43536033E0BB79072B10D81E4BC2
:100A00001B681D4B00221A601B4B1B687979BA7951
:100A1000920001FA02F21146174A0B43136021E0DB
:100A2000BB790F2B1ED8BB79083BBB71124B5B689F
:100A3000BA7992000F2101FA02F2D24311460E4A0E
:100A40000B4053600C4B5B687979BA79920001FADC
:100A500002F21146084A0B43536003E000BF02E074
:100A600000BF00E000BF00BF0C37BD4680BC704730
:100A700000080140000C01400010014080B483B028
:100A800000AF0346FB710B46BB7113467B71FB79CC
:100A9000032B17D0042B28D0022B00D038E07B7911
:100AA000002B08D0012B00D00BE0BB7901229A402B
:100AB0001A4B1A6105E0BB7901229A40174B5A6123
:100AC00000BF25E07B79002B08D0012B00D00BE084
:100AD000BB7901229A40124B1A6105E0BB790122D1
:100AE0009A400F4B5A6100BF12E07B79002B08D06F
:100AF000012B00D00BE0BB7901229A40094B1A610F
:100B000005E0BB7901229A40064B5A6100BF00BF45
:100B100000BF0C37BD4680BC704700BF00080140D5
:100B2000000C01400010014080B483B000AF0346C8
:100B30000A46FB711346BB71BB791F2B28D8FB7982
:100B4000012B0FD0022B18D0002B00D020E0134B2C
:100B50001B68BA79012101FA02F211460F4A0B43D0
:100B6000136015E00E4B1B68BA79012101FA02F2FD
:100B700011460B4A0B4313600AE00A4B1B68BA7913
:100B8000012101FA02F21146064A0B43136000BF2D
:100B900000BF0C37BD4680BC704700BF1410024038
:100BA0001C1002401810024080B400AF234B80227A
:100BB0001A60234B00221A60204B1B681F4A43F423
:100BC000002313601D4B1B681C4A43F480331360E1
:100BD00000BF1A4B1B685B0C03F00103002BF8D01D
:100BE000174B1B68164A43F480331360144B144AA6
:100BF0001B681360114B1B68104A43F0807313602D
:100C000000BF0E4B1B685B0E03F00103002BF8D0F6
:100C10000B4B1B680A4A43F002031360084B084A57
:100C20001B681360064B064A1B681360044B044A9A
:100C30001B68136000BFBD4680BC704700100240B7
:100C40000410024080B582B000AF134B9B685B0874
:100C500003F00103DAB23B7962F300033B710E4B00
:100C60009B6803F00103DAB23B7962F341033B7105
:100C7000094B9B681B0903F00103DAB23B7962F36D
:100C800082033B71054B1B681B693879984700BF8D
:100C90000837BD4680BD00BF00300140380000204D
:100CA00080B582B000AF134B9B685B0803F0010373
:100CB000DAB23B7962F300033B710E4B9B6803F0A1
:100CC0000103DAB23B7962F341033B71094B9B6844
:100CD0001B0903F00103DAB23B7962F382033B7133
:100CE000054B5B681B693879984700BF0837BD46DC
:100CF00080BD00BF003001403800002080B500AF4B
:100D0000FFF706FBFEE700000D488546AFF30080C5
:100D10000C480D490D4A002302E0D458C450043356
:100D2000C4188C42F9D30A4A0A4C002301E013602C
:100D30000432A242FBD300F011F8FFF7DFFFFEE719
:100D4000002800200000002014000020980E000859
:100D50001400002040000020FEE7000070B50025D0
:100D60000C4E0D4CA41BA410A54209D100F01AF89A
:100D700000250A4E0A4CA41BA410A54205D170BD43
:100D800056F8253098470135EEE756F82530984754
:100D90000135F2E7900E0008900E0008900E000852
:100DA000940E0008F8B500BFF8BC08BC9E4670471A
:0C0DB000F8B500BFF8BC08BC9E467047B8
:100DBC0044656C6574696E6700000000444F4E45D5
:100DCC0000000000416464696E6700005041524BA2
:100DDC00494E4720474152414745000053656C65D9
:100DEC006374206F6E65206F66203A20000000004F
:100DFC00312D41646D696E204F7074696F6E730094
:100E0C00322D476172616765205374617475657327
:100E1C0000000000312D2041646420447269766525
:100E2C0072000000322D2044656C6574652044729C
:100E3C006976657200000000332D204564697420CA
:100E4C00446174610000000020203C42000000005E
:100E5C002D417661696C61626C6520536C6F7473A3
:100E6C0000000000203D20003C4241434B000000AC
:100E7C00456E746572204472697665722049443AF5
:040E8C002000000042
:040E90005501000800
:040E94003101000820
:100E98000200020102020203020B020C000E0E0EF7
:040EA8001F0E040015
:0400000508000D09D9
:00000001FF
