:020000040800F2
:1000000000280020550E0008A50E0008A50E0008C7
:10001000A50E0008A50E0008A50E000800000000AF
:10002000000000000000000000000000A50E000815
:10003000A50E000800000000A50E0008A50E00088F
:10004000A50E0008A50E0008A50E0008A50E0008C4
:10005000A50E0008A50E0008A50E0008A50E0008B4
:10006000A50E0008A50E0008A50E0008A50E0008A4
:10007000A50E0008A50E0008A50E0008A50E000894
:10008000A50E0008A50E0008A50E0008A50E000884
:10009000A50E0008A50E0008A50E0008A50E000874
:1000A000A50E0008A50E0008A50E0008A50E000864
:1000B000A50E0008A50E0008A50E0008A50E000854
:1000C000A50E0008A50E0008A50E0008690C000882
:1000D000C50C0008A50E0008A50E0008A50E000816
:1000E000A50E0008A50E000800000000A50E0008DF
:1000F000A50E0008A50E0008A50E0008A50E000814
:10010000A50E0008A50E0008A50E0008A50E000803
:10011000A50E0008A50E0008A50E0008A50E0008F3
:10012000A50E0008A50E0008A50E0008A50E0008E3
:1001300010B5054C237833B9044B13B10448AFF321
:1001400000800123237010BD0C000020000000007F
:10015000F00E000808B5034B1BB103490348AFF389
:10016000008008BD0000000010000020F00E000814
:1001700080B485B000AF78607B68FB600CE04FF422
:100180007A73BB6002E0BB68013BBB60BB68002BBD
:10019000F9D1FB68013BFB60FB68002BEFD100BF8E
:1001A0001437BD4680BC704780B582B000AF786020
:1001B0007B685B68043318787B685B6805331B7861
:1001C0000222194600F02EFA7B685B680633187825
:1001D0007B685B6807331B780222194600F022FA1D
:1001E0007B685B68083318787B685B6809331B7829
:1001F0000222194600F016FA7B685B680A33187809
:100200007B685B680B331B780222194600F00AFA00
:100210007B685B68023318787B685B6803331B7804
:100220000222194600F0FEF97B685B6818787B684B
:100230005B6801331B780222194600F0F3F90221B2
:10024000786800F011F92821786800F00DF9012193
:10025000786800F009F90F21786800F005F980212D
:10026000786800F001F90220FFF782FF00BF08372D
:10027000BD4680BD80B582B000AF78600B46FB7094
:100280007B685B68043318787B685B680533197892
:10029000FB781B09DBB203F00103DBB21A4600F066
:1002A00087FA7B685B68063318787B685B6807337E
:1002B0001978FB785B09DBB203F00103DBB21A4665
:1002C00000F076FA7B685B68083318787B685B68B7
:1002D00009331978FB789B09DBB203F00103DBB229
:1002E0001A4600F065FA7B685B680A3318787B6809
:1002F0005B680B331978FB78DB09DBB21A4600F038
:1003000057FA7B685B68023318787B685B68033355
:100310001B780122194600F04BFA7B685B6818785D
:100320007B685B6801331B780122194600F040FAB4
:100330000120FFF71DFF7B685B6818787B685B68AE
:1003400001331B780022194600F032FA1420FFF71F
:100350000FFF7B685B68043318787B685B68053344
:100360001978FB7803F00103DBB21A4600F020FA9B
:100370007B685B68063318787B685B68073319789D
:10038000FB785B08DBB203F00103DBB21A4600F036
:100390000FFA7B685B68083318787B685B68093301
:1003A0001978FB789B08DBB203F00103DBB21A4635
:1003B00000F0FEF97B685B680A3318787B685B683D
:1003C0000B331978FB78DB08DBB203F00103DBB2F7
:1003D0001A4600F0EDF97B685B68023318787B6899
:1003E0005B6803331B780122194600F0E1F97B6852
:1003F0005B6818787B685B6801331B7801221946BB
:1004000000F0D6F90120FFF7B3FE7B685B6818782F
:100410007B685B6801331B780022194600F0C8F93D
:100420001420FFF7A5FE00BF0837BD4680BD80B58C
:1004300084B000AF786039600023FB730AE0FB7B77
:100440003A6813441B7819467868FFF713FFFB7B63
:100450000133FB73FB7B3A6813441B78002BEED10E
:1004600000BF1037BD4680BD80B582B000AF786058
:100470000B46FB707B685B68043318787B685B68AD
:1004800005331978FB781B09DBB203F00103DBB2FB
:100490001A4600F08DF97B685B68063318787B6834
:1004A0005B6807331978FB785B09DBB203F0010363
:1004B000DBB21A4600F07CF97B685B680833187879
:1004C0007B685B6809331978FB789B09DBB203F022
:1004D0000103DBB21A4600F06BF97B685B680A33F4
:1004E00018787B685B680B331978FB78DB09DBB223
:1004F0001A4600F05DF97B685B68023318787B6808
:100500005B6803331B780022194600F051F97B68C1
:100510005B6818787B685B6801331B780122194699
:1005200000F046F90120FFF723FE7B685B6818782E
:100530007B685B6801331B780022194600F038F9AC
:100540001420FFF715FE7B685B68043318787B681E
:100550005B6805331978FB7803F00103DBB21A46B8
:1005600000F026F97B685B68063318787B685B6867
:1005700007331978FB785B08DBB203F00103DBB2C9
:100580001A4600F015F97B685B68083318787B68B9
:100590005B6809331978FB789B08DBB203F0010331
:1005A000DBB21A4600F004F97B685B680A331878FE
:1005B0007B685B680B331978FB78DB08DBB203F0F0
:1005C0000103DBB21A4600F0F3F87B685B68023384
:1005D00018787B685B6803331B780022194600F0AB
:1005E000E7F87B685B6818787B685B6801331B7889
:1005F0000122194600F0DCF80120FFF7B9FD7B6805
:100600005B6818787B685B6801331B7800221946A9
:1006100000F0CEF81420FFF7ABFD00BF0837BD4651
:1006200080BD000080B483B000AF0346FB710B4671
:10063000BB7113467B71FB79032B3ED0042B75D025
:10064000022B00D0A9E0BB79072B17D8554B1B68AC
:10065000BA7992000F2101FA02F2D2431146514AAF
:100660000B4013604F4B1B687979BA79920001FAFD
:1006700002F211464B4A0B43136089E0BB790F2B02
:1006800000F28680BB79083BBB71464B5B68BA7948
:1006900092000F2101FA02F2D2431146414A0B4067
:1006A0005360404B5B687979BA79920001FA02F2A3
:1006B00011463C4A0B4353606AE0BB79072B17D8BD
:1006C000394B1B68BA7992000F2101FA02F2D2432A
:1006D0001146354A0B401360334B1B687979BA7960
:1006E000920001FA02F211462F4A0B43136051E0C7
:1006F000BB790F2B4ED8BB79083BBB712A4B5B688B
:10070000BA7992000F2101FA02F2D2431146264A29
:100710000B405360244B5B687979BA79920001FAF7
:1007200002F21146204A0B43536033E0BB79072B9A
:1007300010D81E4B1B681D4B00221A601B4B1B68F8
:100740007979BA79920001FA02F21146174A0B43FD
:10075000136021E0BB790F2B1ED8BB79083BBB711E
:10076000124B5B68BA7992000F2101FA02F2D24370
:1007700011460E4A0B4053600C4B5B687979BA798D
:10078000920001FA02F21146084A0B43536003E05B
:1007900000BF02E000BF00E000BF00BF0C37BD4655
:1007A00080BC704700080140000C0140001001406F
:1007B00080B483B000AF0346FB710B46BB71134698
:1007C0007B71FB79032B17D0042B28D0022B00D090
:1007D00038E07B79002B08D0012B00D00BE0BB79EF
:1007E00001229A401A4B1A6105E0BB7901229A4016
:1007F000174B5A6100BF25E07B79002B08D0012BF5
:1008000000D00BE0BB7901229A40124B1A6105E03F
:10081000BB7901229A400F4B5A6100BF12E07B79ED
:10082000002B08D0012B00D00BE0BB7901229A40AD
:10083000094B1A6105E0BB7901229A40064B5A61C7
:1008400000BF00BF00BF0C37BD4680BC704700BF73
:1008500000080140000C01400010014080B483B04A
:1008600000AF03460A46FB711346BB71BB791F2BD1
:1008700028D8FB79012B0FD0022B18D0002B00D0E9
:1008800020E0134B1B68BA79012101FA02F21146EC
:100890000F4A0B43136015E00E4B1B68BA79012118
:1008A00001FA02F211460B4A0B4313600AE00A4BAD
:1008B0001B68BA79012101FA02F21146064A0B437C
:1008C000136000BF00BF0C37BD4680BC704700BF3F
:1008D000141002401C1002401810024080B400AFF7
:1008E000234B80221A60234B00221A60204B1B6886
:1008F0001F4A43F4002313601D4B1B681C4A43F43A
:100900008033136000BF1A4B1B685B0C03F00103BC
:10091000002BF8D0174B1B68164A43F48033136042
:10092000144B144A1B681360114B1B68104A43F0A8
:100930008073136000BF0E4B1B685B0E03F0010356
:10094000002BF8D00B4B1B680A4A43F002031360DC
:10095000084B084A1B681360064B064A1B68136065
:10096000044B044A1B68136000BFBD4680BC70473F
:10097000001002400410024080B485B000AF03466E
:100980003960FB710023FB810023BB814023FB8185
:100990003B681B789AB2FB891343FB813B685A88FA
:1009A000FB891343FB813B68DA88FB891343FB8196
:1009B0003B681B7A9AB2FB891343FB813B685B7AE5
:1009C0009AB2FB891343FB813B68B3F90A30042BCD
:1009D00008D13B68B3F90A20B7F90C3013431BB2B6
:1009E000BB8116E03B68B3F90A3013F1050F08D15B
:1009F0003B68B3F90A20B7F90C3013401BB2BB8136
:100A000007E03B68B3F90A20B7F90E3013431BB275
:100A1000FB813B681B7B9AB2FB891343FB813B68DC
:100A20005B7B002B05D03B685B7B9AB2BB89134391
:100A3000BB81FB79002B09D10D4A3B6813600D4A3D
:100A4000FB8913600B4ABB8953600BE0FB79012BD8
:100A500008D1074A3B685360074AFB891360064A7E
:100A6000BB89536000BF1437BD4680BC704700BFD0
:100A700028000020003001400058004080B485B0BC
:100A800000AF0346B9607A60FB73FB7B002B17D184
:100A900000BF1B4B9B6803F00203002BF9D0BB681F
:100AA0001A88174BDA6000BF154B9B6803F00103EF
:100AB000002BF9D0124BDB689AB27B681A8019E0E0
:100AC000FB7B012B16D100BF0E4B9B6803F002038A
:100AD000002BF9D0BB681A880A4BDA6000BF094BBB
:100AE0009B6803F00103002BF9D0064BDB689AB238
:100AF0007B681A8000BF1437BD4680BC704700BFBA
:100B0000003001400058004080B582B000AF03467D
:100B1000FB71FB79002B4FD1524B1B681B78042BC8
:100B20002AD1504B1B68B3F90A3013F1050F02D0DC
:100B3000042B06D00BE0042204210220FFF772FDF3
:100B400005E0092204210220FFF76CFD00BF092205
:100B500005210220FFF766FD424B1B685B88002BD6
:100B60007CD1042206210220FFF75CFD0922072127
:100B70000220FFF757FD71E03A4B1B68B3F90A30CA
:100B8000002B04D1042204210220FFF74BFD042294
:100B900005210220FFF746FD324B1B685B88002BC6
:100BA0005CD1092206210220FFF73CFD0422072127
:100BB0000220FFF737FD51E0FB79012B4ED1294B85
:100BC0005B681B78042B2AD1264B5B68B3F90A308B
:100BD00013F1050F02D0042B06D00BE004220C21E8
:100BE0000320FFF71FFD05E009220C210320FFF77A
:100BF00019FD00BF09220D210320FFF713FD194B3A
:100C00005B685B88002B29D104220E210320FFF7AB
:100C100009FD09220E210320FFF704FD1EE0114B00
:100C20005B68B3F90A30002B04D104220C210320A5
:100C3000FFF7F8FC04220D210320FFF7F3FC094B1A
:100C40005B685B88002B09D109220E210320FFF786
:100C5000E9FC04220E210320FFF7E4FC00BF083763
:100C6000BD4680BD2800002080B582B000AF134B88
:100C70009B685B0803F00103DAB23B7962F300037F
:100C80003B710E4B9B6803F00103DAB23B7962F3D0
:100C900041033B71094B9B681B0903F00103DAB266
:100CA0003B7962F382033B71054B1B681B69387902
:100CB000984700BF0837BD4680BD00BF00300140E7
:100CC0002800002080B582B000AF134B9B685B0802
:100CD00003F00103DAB23B7962F300033B710E4B80
:100CE0009B6803F00103DAB23B7962F341033B7185
:100CF000094B9B681B0903F00103DAB23B7962F3ED
:100D000082033B71054B5B681B693879984700BFCC
:100D10000837BD4680BD00BF0030014028000020DC
:100D200080B485B000AF78607B68FB600CE04FF466
:100D30007A73BB6002E0BB68013BBB60BB68002B01
:100D4000F9D1FB68013BFB60FB68002BEFD100BFD2
:100D50001437BD4680BC704780B500AF0122042126
:100D60000220FFF75FFC012204210220FFF720FD93
:100D7000134B00225A80124B00221A71104B002292
:100D8000DA800F4B02221A720D4B01225A720C4B61
:100D900018221A730A4B04221A70094B00225A7344
:100DA000074B4FF440725A81054B00221A610449E7
:100DB0000020FFF7E1FD0020FFF7A6FE00BF80BD89
:100DC0003400002080B584B000AFFFF787FD02211A
:100DD0000220FFF743FD00210220FFF73FFD0C2119
:100DE0000220FFF73BFD04233B7110237B71164B60
:100DF000BB603B1D1846FFF7D7F9FFF7ADFF002397
:100E0000FB812B237B803B1D10491846FFF70FFB0E
:100E1000002204210220FFF7CBFCBB1C0C4A194620
:100E20000020FFF72BFE0A4B1A783B1D114618468F
:100E3000FFF720FA012204210220FFF7B9FC4FF44A
:100E40007A70FFF76DFFE3E700000020080F00084D
:100E5000300000200D488546AFF300800C480D4956
:100E60000D4A002302E0D458C4500433C4188C4205
:100E7000F9D30A4A0A4C002301E013600432A2426B
:100E8000FBD300F011F8FFF79DFFFEE700280020DC
:100E9000000000200C000020180F00080C000020AB
:100EA00048000020FEE7000070B500250C4E0D4CF8
:100EB000A41BA410A54209D100F01AF800250A4E7F
:100EC0000A4CA41BA410A54205D170BD56F82530CC
:100ED00098470135EEE756F8253098470135F2E797
:100EE000100F0008100F0008100F0008140F000862
:100EF000F8B500BFF8BC08BC9E467047F8B500BF07
:080F0000F8BC08BC9E467047D6
:080F080068454C454F00000054
:040F1000550100087F
:040F1400310100089F
:0C0F1800020002010202020302040205B2
:0400000508000E558C
:00000001FF
