:100000000C9432000C9451000C9482000C944F001C
:100010000C94F6070C942C080C944F000C944F0091
:100020000C94C0070C948A070C9474060C94620814
:100030000C944F000C948B080C944F000C944F00C0
:100040000C944F000C944F000C94B3000C94ED06EC
:100050000C944F007B05800587058E0595059C0552
:10006000A305AA0511241FBECFE5D4E0DEBFCDBF96
:1000700010E0A0E6B0E0EEEBF3E102C005900D92D7
:10008000A436B107D9F720E0A4E6B0E001C01D9284
:10009000A239B207E1F70E9425030C94DD090C9404
:1000A00000001F920F9200905F000F9211242F9377
:1000B0003F934F935F936F937F938F939F93AF93F0
:1000C000BF93EF93FF93CF93DF93CDB7DEB78091CC
:1000D000640090916500FC0109950000DF91CF91CB
:1000E000FF91EF91BF91AF919F918F917F916F9110
:1000F0005F914F913F912F910F9000925F000F9071
:100100001F9018951F920F9200905F000F9211247C
:100110002F933F934F935F936F937F938F939F930F
:10012000AF93BF93EF93FF93CF93DF93CDB7DEB73A
:100130008091660090916700FC0109950000DF91B5
:10014000CF91FF91EF91BF91AF919F918F917F914F
:100150006F915F914F913F912F910F9000925F00AF
:100160000F901F9018951F920F9200905F000F92B2
:1001700011242F933F934F935F936F937F938F93AC
:100180009F93AF93BF93EF93FF93CF93DF93CDB73D
:10019000DEB78091680090916900FC01099500002C
:1001A000DF91CF91FF91EF91BF91AF919F918F918F
:1001B0007F916F915F914F913F912F910F9000929E
:1001C0005F000F901F901895CF93DF93CDB7DEB7E8
:1001D0008BE390E0FC0110828AE390E0FC01108246
:1001E00089E390E0FC01108288E390E0FC0110823A
:1001F00087E390E0FC01108286E390E0FC0110822E
:1002000085E390E0FC01108284E390E0FC01108221
:1002100083E390E0FC01108282E390E0FC01108215
:1002200081E390E0FC01108280E390E0FC01108209
:100230000000DF91CF910895CF93DF9300D01F92FC
:10024000CDB7DEB789836A834B838A81883008F013
:10025000F5C18981882F90E08130910509F486C02D
:10026000823091051CF4892B49F0E8C18230910558
:1002700009F4F4C0039709F469C1E0C18B81882FA8
:1002800090E08130910509F45BC08230910571F1F5
:10029000892B09F06AC08AE390E02AE330E0F90193
:1002A0002081622F2A81422F50E021E030E002C0FD
:1002B000220F331F4A95E2F720952623FC01208365
:1002C0008BE390E02BE330E0F9012081622F2A815B
:1002D000422F50E021E030E002C0220F331F4A9548
:1002E000E2F720952623FC0120833FC08AE390E0BB
:1002F0002AE330E0F9012081622F2A81422F50E069
:1003000021E030E002C0220F331F4A95E2F720952A
:100310002623FC0120838BE390E02BE330E0F901FE
:100320002081622F2A81422F50E021E030E002C07C
:10033000220F331F4A95E2F7262BFC01208315C0BC
:100340008AE390E02AE330E0F9012081622F2A81DC
:10035000422F50E021E030E002C0220F331F4A95C7
:10036000E2F7262BFC012083000068C18B81882FD7
:1003700090E08130910509F45BC08230910571F104
:10038000892B09F06AC087E390E027E330E0F901A8
:100390002081622F2A81422F50E021E030E002C00C
:1003A000220F331F4A95E2F720952623FC01208374
:1003B00088E390E028E330E0F9012081622F2A8170
:1003C000422F50E021E030E002C0220F331F4A9557
:1003D000E2F720952623FC0120833FC087E390E0CD
:1003E00027E330E0F9012081622F2A81422F50E07B
:1003F00021E030E002C0220F331F4A95E2F720953A
:100400002623FC01208388E390E028E330E0F90113
:100410002081622F2A81422F50E021E030E002C08B
:10042000220F331F4A95E2F7262BFC01208315C0CB
:1004300087E390E027E330E0F9012081622F2A81F1
:10044000422F50E021E030E002C0220F331F4A95D6
:10045000E2F7262BFC0120830000F0C08B81882F5F
:1004600090E08130910509F45BC08230910571F113
:10047000892B09F06AC084E390E024E330E0F901BD
:100480002081622F2A81422F50E021E030E002C01B
:10049000220F331F4A95E2F720952623FC01208383
:1004A00085E390E025E330E0F9012081622F2A8185
:1004B000422F50E021E030E002C0220F331F4A9566
:1004C000E2F720952623FC0120833FC084E390E0DF
:1004D00024E330E0F9012081622F2A81422F50E08D
:1004E00021E030E002C0220F331F4A95E2F7209549
:1004F0002623FC01208385E390E025E330E0F90129
:100500002081622F2A81422F50E021E030E002C09A
:10051000220F331F4A95E2F7262BFC01208315C0DA
:1005200084E390E024E330E0F9012081622F2A8106
:10053000422F50E021E030E002C0220F331F4A95E5
:10054000E2F7262BFC012083000078C08B81882FE6
:1005500090E08130910509F45BC08230910571F122
:10056000892B09F06AC081E390E021E330E0F901D2
:100570002081622F2A81422F50E021E030E002C02A
:10058000220F331F4A95E2F720952623FC01208392
:1005900082E390E022E330E0F9012081622F2A819A
:1005A000422F50E021E030E002C0220F331F4A9575
:1005B000E2F720952623FC0120833FC081E390E0F1
:1005C00021E330E0F9012081622F2A81422F50E09F
:1005D00021E030E002C0220F331F4A95E2F7209558
:1005E0002623FC01208382E390E022E330E0F9013E
:1005F0002081622F2A81422F50E021E030E002C0AA
:10060000220F331F4A95E2F7262BFC01208315C0E9
:1006100081E390E021E330E0F9012081622F2A811B
:10062000422F50E021E030E002C0220F331F4A95F4
:10063000E2F7262BFC0120830000000000000F9051
:100640000F900F90DF91CF910895CF93DF93CDB7A7
:10065000DEB76D970FB6F894DEBF0FBECDBF0E9418
:10066000E40080E690E00E94480460E280E690E0CA
:100670000E94CF0541E067E083E00E941C011982DF
:1006800019827DC08981882F90E0BC0180E690E0CE
:100690000E940E0680E090E0A0E0B1E48E839F838C
:1006A000A887B98720E030E04AE755E46E817F8172
:1006B000888599850E946A09DC01CB018A879B871E
:1006C000AC87BD8720E030E040E85FE36A857B854A
:1006D0008C859D850E94BC0888232CF481E090E0E5
:1006E0009F878E873FC020E03FEF4FE757E46A8542
:1006F0007B858C859D850E94650918164CF520E048
:1007000030E040E251E46E817F81888599850E94C6
:100710006A09DC01CB01BC01CD010E94C108DC01EA
:10072000CB019F878E870FC080E991E0998B888BE2
:10073000888999890197F1F7998B888B8E859F8598
:1007400001979F878E878E859F85892B69F714C0B7
:100750006A857B858C859D850E94C108DC01CB0163
:100760009F878E878E859F859B8B8A8B8A899B89A5
:100770000197F1F79B8B8A8B89818F5F89838981B0
:100780008A3608F47FCF89E689837DC08981882FE6
:1007900090E0BC0180E690E00E940E0680E090E0D0
:1007A000A0E0B1E48A839B83AC83BD8320E030E08A
:1007B0004AE755E46A817B818C819D810E946A09A8
:1007C000DC01CB018C8B9D8BAE8BBF8B20E030E0AE
:1007D00040E85FE36C897D898E899F890E94BC080F
:1007E00088232CF481E090E0998F888F3FC020E02F
:1007F0003FEF4FE757E46C897D898E899F890E947E
:10080000650918164CF520E030E040E251E46A81B9
:100810007B818C819D810E946A09DC01CB01BC0136
:10082000CD010E94C108DC01CB01998F888F0FC0D8
:1008300080E991E09B8F8A8F8A8D9B8D0197F1F7DC
:100840009B8F8A8F888D998D0197998F888F888D3E
:10085000998D892B69F714C06C897D898E899F8950
:100860000E94C108DC01CB01998F888F888D998DFA
:100870009D8F8C8F8C8D9D8D0197F1F79D8F8C8F27
:100880008981815089838981882309F07FCFF8CEBF
:10089000CF93DF9300D0CDB7DEB79A838983898168
:1008A0009A81FC018081882F90E08130910509F4C4
:1008B00071C08230910509F4F5C0892B09F069C136
:1008C00083E590E0FC01108283E590E023E530E0D1
:1008D000F901408129813A81F9012181242BFC0110
:1008E000208389819A81FC018281882F90E0823067
:1008F0009105E9F0833091052CF4009761F00197A0
:1009000079F031C08430910501F184309105B4F063
:10091000059711F128C010926B0010926A0023C055
:1009200081E090E090936B0080936A001CC088E0A7
:1009300090E090936B0080936A0015C080E490E093
:1009400090936B0080936A000EC080E091E09093DA
:100950006B0080936A0007C080E094E090936B0086
:1009600080936A00000083E590E023E530E0F90120
:100970002081287FFC01208383E590E023E530E09F
:10098000F901408129813A81F9012281242BFC015E
:100990002083FFC08FE490E0FC0110828EE490E0A1
:1009A000FC0110828FE490E02FE430E0F901208117
:1009B000422F29813A81F90121812370242BFC01E6
:1009C00020838EE490E02EE430E0F9012081422F74
:1009D00029813A81F901218126952695222F30E03F
:1009E000220F331F220F331F220F331F242BFC0132
:1009F000208389819A81FC018281882F90E0823056
:100A00009105E9F0833091052CF4009761F001978E
:100A100079F031C08430910501F184309105B4F052
:100A2000059711F128C010926D0010926C0023C040
:100A300081E090E090936D0080936C001CC088E092
:100A400090E090936D0080936C0015C080E490E07E
:100A500090936D0080936C000EC080E091E09093C5
:100A60006D0080936C0007C080E094E090936D006F
:100A700080936C0000008EE490E02EE430E0F901F9
:100A80002081287FFC0120838EE490E02EE430E07A
:100A9000F901408129813A81F9012281242BFC014D
:100AA000208377C085E490E0FC01108285E490E02B
:100AB00025E430E0F901408129813A81F901218161
:100AC000242BFC01208389819A81FC018281882F5B
:100AD00090E0092E000CAA0BBB0B40E050E027E091
:100AE00030E0841B950B28173907D8F1865D9F4F9E
:100AF000FC010C94D70910926F0010926E0032C066
:100B000081E090E090936F0080936E002BC088E0AE
:100B100090E090936F0080936E0024C080E290E09C
:100B200090936F0080936E001DC080E490E09093DE
:100B30006F0080936E0016C080E890E090936F0085
:100B400080936E000FC080E091E090936F008093DF
:100B50006E0008C080E094E090936F0080936E0078
:100B600001C0000085E490E025E430E0F901208137
:100B7000287FFC01208385E490E025E430E0F90142
:100B8000408129813A81F9012281242BFC012083B3
:100B9000000000000F900F90DF91CF910895CF9348
:100BA000DF9300D01F92CDB7DEB79A8389836B8322
:100BB00089819A81FC018081882F90E081309105A4
:100BC00081F082309105C1F0892B09F020C083E5C6
:100BD00090E023E530E0F90130812B81232BFC01EB
:100BE00020838FE490E02FE430E0F90130812B8105
:100BF000232BFC0120830BC085E490E025E430E04A
:100C0000F90130812B81232BFC012083000000009F
:100C10000F900F900F90DF91CF910895CF93DF93B6
:100C200000D000D0CDB7DEB79A8389837C836B83F5
:100C300089819A81FC018081882F90E08130910523
:100C400089F082309105E1F1892B09F045C08B8153
:100C50009C818F3F910509F028F48CE590E02B8171
:100C6000FC0120838B819C818115944048F58FE4A1
:100C700090E0FC018081881F8827881F882F90E0E2
:100C800081709927892BA9F08FE490E0FC01808185
:100C9000829586958770882F90E081709927892B9F
:100CA00041F48AE490E02B813C81FC013183208374
:100CB00007C088E490E02B813C81FC0131832083D4
:100CC0008B819C818F3F910509F028F483E490E0AB
:100CD0002B81FC012083000000000F900F900F90EB
:100CE0000F90DF91CF9108951F920F9200905F00B7
:100CF0000F9211242F933F934F935F936F937F93A2
:100D00008F939F93AF93BF93EF93FF93CF93DF9313
:100D1000CDB7DEB78091700090917100FC0109950C
:100D20000000DF91CF91FF91EF91BF91AF919F9123
:100D30008F917F916F915F914F913F912F910F9084
:100D400000925F000F901F901895CF93DF931F9232
:100D5000CDB7DEB789838981882F90E081309105F6
:100D600081F082309105B9F0892B09F031C083E51B
:100D700090E023E530E0F9012081287FFC01208309
:100D800027C08EE490E02EE430E0F9012081287F36
:100D9000FC0120831DC085E490E025E430E0F901EA
:100DA0002081287FFC01208380917E0090917F002C
:100DB000FC018081882359F0000082E490E0FC016E
:100DC0008081882F90E081709927892BB1F70000EE
:100DD00000000F90DF91CF9108951F920F92009025
:100DE0005F000F9211242F933F934F935F936F9364
:100DF0007F938F939F93AF93BF93EF93FF93CF9383
:100E0000DF93CDB7DEB780917200882301F5209182
:100E100080003091810080917300909174002817B8
:100E2000390750F480918000909181000196909351
:100E300081008093800054C0809190009091910037
:100E4000FC010995109281001092800049C08091A8
:100E50007200813019F520918000309181008091DD
:100E60007300909174002817390750F48091800026
:100E7000909181000196909381008093800030C012
:100E800080918C0090918D00FC0109951092810059
:100E90001092800080E00E94A50622C0809175001B
:100EA000882381F42CE530E080917A0090917B00DA
:100EB000A0917C00B0917D00F901808381E0809356
:100EC00075000EC02CE530E080917600909177009F
:100ED000A0917800B0917900F9018083109275009B
:100EE00088E590E022E0FC0120830000DF91CF91B3
:100EF000FF91EF91BF91AF919F918F917F916F91F2
:100F00005F914F913F912F910F9000925F000F9052
:100F10001F9018951F920F9200905F000F9211245E
:100F20002F933F934F935F936F937F938F939F93F1
:100F3000AF93BF93EF93FF93CF93DF93CDB7DEB71C
:100F400080918E0090918F00FC01099588E590E0DA
:100F500021E0FC0120830000DF91CF91FF91EF9110
:100F6000BF91AF919F918F917F916F915F914F91C1
:100F70003F912F910F9000925F000F901F90189556
:100F80001F920F9200905F000F9211242F933F93B6
:100F90004F935F936F937F938F939F93AF93BF9381
:100FA000EF93FF93CF93DF93CDB7DEB780918800A7
:100FB00090918900FC01099588E590E024E0FC010E
:100FC00020830000DF91CF91FF91EF91BF91AF910E
:100FD0009F918F917F916F915F914F913F912F9151
:100FE0000F9000925F000F901F9018951F920F9224
:100FF00000905F000F9211242F933F934F935F93C4
:101000006F937F938F939F93AF93BF93EF93FF93D0
:10101000CF93DF93CDB7DEB780918A0090918B009C
:10102000FC01099588E590E020E4FC0120830000A4
:10103000DF91CF91FF91EF91BF91AF919F918F91F0
:101040007F916F915F914F913F912F910F900092FF
:101050005F000F901F9018951F920F9200905F00F5
:101060000F9211242F933F934F935F936F937F932E
:101070008F939F93AF93BF93EF93FF93CF93DF93A0
:10108000CDB7DEB78091860090918700FC0109956D
:1010900088E590E020E2FC0120830000DF91CF9101
:1010A000FF91EF91BF91AF919F918F917F916F9140
:1010B0005F914F913F912F910F9000925F000F90A1
:1010C0001F9018951F920F9200905F000F921124AD
:1010D0002F933F938F939F93EF93FF93CF93DF9340
:1010E000CDB7DEB780918400909185002CE230E08E
:1010F000F9012081FC0120830000DF91CF91FF9155
:10110000EF919F918F913F912F910F9000925F00EF
:101110000F901F9018951F920F9200905F000F92F2
:1011200011242F933F934F935F936F937F938F93EC
:101130009F93AF93BF93EF93FF93CF93DF93CDB77D
:10114000DEB78091820090918300FC010995000038
:10115000DF91CF91FF91EF91BF91AF919F918F91CF
:101160007F916F915F914F913F912F910F900092DE
:101170005F000F901F9018950E94F00808F481E01E
:1011800008950E94440988F09F5798F0B92F992735
:10119000B751B0F0E1F0660F771F881F991F1AF062
:1011A000BA95C9F714C0B13091F00E945E09B1E060
:1011B00008950C945E09672F782F8827B85F39F05F
:1011C000B93FCCF3869577956795B395D9F73EF4FB
:1011D00090958095709561957F4F8F4F9F4F0895A3
:1011E000990F0008550FAA0BE0E8FEEF1616170638
:1011F000E807F907C0F012161306E407F50798F0A0
:10120000621B730B840B950B39F40A2661F0232BB8
:10121000242B252B21F408950A2609F4A140A69534
:101220008FEF811D811D089597F99F6780E870E019
:1012300060E008959FEF80EC089500240A9416164C
:10124000170618060906089500240A9412161306B4
:10125000140605060895092E0394000C11F4882342
:1012600052F0BB0F40F4BF2B11F460FF04C06F5F5E
:101270007F4F8F4F9F4F089557FD9058440F551F34
:1012800059F05F3F71F04795880F97FB991F61F008
:101290009F3F79F087950895121613061406551F7F
:1012A000F2CF4695F1DF08C0161617061806991FEB
:1012B000F1CF86957105610508940895E894BB27E0
:1012C00066277727CB0197F908950E94F00808F464
:1012D0008FEF08950E947D090C942B090E941D092F
:1012E00038F00E94240920F0952311F00C94140981
:1012F0000C941A0911240C945F090E943C0970F3A4
:10130000959FC1F3950F50E0551F629FF001729FAA
:10131000BB27F00DB11D639FAA27F00DB11DAA1FB9
:10132000649F6627B00DA11D661F829F2227B00D06
:10133000A11D621F739FB00DA11D621F839FA00D91
:10134000611D221F749F3327A00D611D231F849FE1
:10135000600D211D822F762F6A2F11249F57504038
:101360009AF0F1F088234AF0EE0FFF1FBB1F661FB3
:10137000771F881F91505040A9F79E3F510580F07C
:101380000C9414090C945F095F3FE4F3983ED4F386
:10139000869577956795B795F795E7959F5FC1F720
:1013A000FE2B880F911D9695879597F90895EE0F5E
:0E13B000FF1F0590F491E02D0994F894FFCFF3
:0413BE0002480100E0
:00000001FF
