:100000000C942A000C943F000C943F000C943F0089
:100010000C943F000C943F000C943F000C943F0064
:100020000C943F000C943F000C943F000C943F0054
:100030000C943F000C943F000C943F000C943F0044
:100040000C943F000C943F000C943F000C943F0034
:100050000C943F0011241FBECFE5D4E0DEBFCDBF1E
:1000600010E0A0E6B0E0ECE2F6E002C005900D92F0
:10007000A636B107D9F70E9466020C9414030C94BB
:100080000000CF93DF9300D01F92CDB7DEB78983F6
:100090006A834B838A81883008F0F5C18981882F73
:1000A00090E08130910509F486C0823091051CF4FE
:1000B000892B49F0E8C18230910509F4F4C0039717
:1000C00009F469C1E0C18B81882F90E081309105EE
:1000D00009F45BC08230910571F1892B09F06AC087
:1000E0008AE390E02AE330E0F9012081622F2A813F
:1000F000422F50E021E030E002C0220F331F4A952A
:10010000E2F720952623FC0120838BE390E02BE38C
:1001100030E0F9012081622F2A81422F50E021E056
:1001200030E002C0220F331F4A95E2F720952623C4
:10013000FC0120833FC08AE390E02AE330E0F9012C
:100140002081622F2A81422F50E021E030E002C05E
:10015000220F331F4A95E2F720952623FC012083C6
:100160008BE390E02BE330E0F9012081622F2A81BC
:10017000422F50E021E030E002C0220F331F4A95A9
:10018000E2F7262BFC01208315C08AE390E02AE3E6
:1001900030E0F9012081622F2A81422F50E021E0D6
:1001A00030E002C0220F331F4A95E2F7262BFC01F4
:1001B0002083000068C18B81882F90E081309105F9
:1001C00009F45BC08230910571F1892B09F06AC096
:1001D00087E390E027E330E0F9012081622F2A8154
:1001E000422F50E021E030E002C0220F331F4A9539
:1001F000E2F720952623FC01208388E390E028E3A2
:1002000030E0F9012081622F2A81422F50E021E065
:1002100030E002C0220F331F4A95E2F720952623D3
:10022000FC0120833FC087E390E027E330E0F90141
:100230002081622F2A81422F50E021E030E002C06D
:10024000220F331F4A95E2F720952623FC012083D5
:1002500088E390E028E330E0F9012081622F2A81D1
:10026000422F50E021E030E002C0220F331F4A95B8
:10027000E2F7262BFC01208315C087E390E027E3FB
:1002800030E0F9012081622F2A81422F50E021E0E5
:1002900030E002C0220F331F4A95E2F7262BFC0103
:1002A00020830000F0C08B81882F90E08130910581
:1002B00009F45BC08230910571F1892B09F06AC0A5
:1002C00084E390E024E330E0F9012081622F2A8169
:1002D000422F50E021E030E002C0220F331F4A9548
:1002E000E2F720952623FC01208385E390E025E3B7
:1002F00030E0F9012081622F2A81422F50E021E075
:1003000030E002C0220F331F4A95E2F720952623E2
:10031000FC0120833FC084E390E024E330E0F90156
:100320002081622F2A81422F50E021E030E002C07C
:10033000220F331F4A95E2F720952623FC012083E4
:1003400085E390E025E330E0F9012081622F2A81E6
:10035000422F50E021E030E002C0220F331F4A95C7
:10036000E2F7262BFC01208315C084E390E024E310
:1003700030E0F9012081622F2A81422F50E021E0F4
:1003800030E002C0220F331F4A95E2F7262BFC0112
:100390002083000078C08B81882F90E08130910508
:1003A00009F45BC08230910571F1892B09F06AC0B4
:1003B00081E390E021E330E0F9012081622F2A817E
:1003C000422F50E021E030E002C0220F331F4A9557
:1003D000E2F720952623FC01208382E390E022E3CC
:1003E00030E0F9012081622F2A81422F50E021E084
:1003F00030E002C0220F331F4A95E2F720952623F2
:10040000FC0120833FC081E390E021E330E0F9016B
:100410002081622F2A81422F50E021E030E002C08B
:10042000220F331F4A95E2F720952623FC012083F3
:1004300082E390E022E330E0F9012081622F2A81FB
:10044000422F50E021E030E002C0220F331F4A95D6
:10045000E2F7262BFC01208315C081E390E021E325
:1004600030E0F9012081622F2A81422F50E021E003
:1004700030E002C0220F331F4A95E2F7262BFC0121
:1004800020830000000000000F900F900F90DF917C
:10049000CF910895CF93DF93CDB7DEB741E065E00C
:1004A00081E00E94410041E067E081E00E9441005C
:1004B00040E066E081E00E94410041E064E081E0CC
:1004C0000E9441000000DF91CF910895CF93DF9308
:1004D00000D000D01F92CDB7DEB70E944A0280E65E
:1004E00090E00E94A40288E40E94F3028CE40E943F
:1004F000F3028FE40E94F302198280E3898320C013
:1005000089810E94F3021B821A8212C01D821C8202
:1005100005C08C819D8101969D838C838C819D81FA
:100520008F3F9105B4F38A819B8101969B838A83D7
:100530008A819B818F3F91054CF389818F5F8983ED
:1005400089818933E8F2D9CFCF93DF9300D0CDB73B
:10055000DEB79A83898389819A81FC01858186959A
:100560008695882F90E081709927892B51F08EE233
:1005700090E02EE230E0F90120812160FC0120832F
:1005800009C08EE290E02EE230E0F90120812E7F5A
:10059000FC0120838DE290E029813A81F9014081BC
:1005A00029813A81F9012181422B29813A81F9017E
:1005B0002281422B29813A81F9012381422B298111
:1005C0003A81F9012481422B29813A81F90125815F
:1005D0002370242B2064FC01208300000F900F90D7
:1005E000DF91CF910895CF93DF931F92CDB7DEB700
:1005F00089838DE290E0FC018081882F90E08074F7
:100600009927892B61F08FE290E02981FC012083FA
:1006100000008EE290E0FC0180818823D4F7000086
:0C0620000F90DF91CF910895F894FFCF68
:06062C0000201000000098
:00000001FF
