:100000000C942A000C943F000C943F000C943F0089
:100010000C943F000C943F000C943F000C943F0064
:100020000C943F000C943F000C943F000C943F0054
:100030000C943F000C943F000C943F000C943F0044
:100040000C943F000C943F000C943F000C943F0034
:100050000C943F0011241FBECFE5D4E0DEBFCDBF1E
:1000600010E0A0E6B0E0EEE4FEE102C005900D92E3
:10007000AE38B107D9F70E943F050C94250F0C94B8
:100080000000CF93DF9300D01F92CDB7DEB78983F6
:100090006A834B838A81883008F0F5C18981882F73
:1000A00090E08130910509F486C0823091051CF4FE
:1000B000892B49F0E8C18230910509F4F4C0039717
:1000C00009F469C1E0C18B81882F90E081309105EE
:1000D00009F45BC08230910571F1892B09F06AC087
:1000E0008AE390E02AE330E0F9012081622F2A813F
:1000F000422F50E021E030E002C0220F331F4A952A
:10010000E2F720952623FC0120838BE390E02BE38C
:1001100030E0F9012081622F2A81422F50E021E056
:1001200030E002C0220F331F4A95E2F720952623C4
:10013000FC0120833FC08AE390E02AE330E0F9012C
:100140002081622F2A81422F50E021E030E002C05E
:10015000220F331F4A95E2F720952623FC012083C6
:100160008BE390E02BE330E0F9012081622F2A81BC
:10017000422F50E021E030E002C0220F331F4A95A9
:10018000E2F7262BFC01208315C08AE390E02AE3E6
:1001900030E0F9012081622F2A81422F50E021E0D6
:1001A00030E002C0220F331F4A95E2F7262BFC01F4
:1001B0002083000068C18B81882F90E081309105F9
:1001C00009F45BC08230910571F1892B09F06AC096
:1001D00087E390E027E330E0F9012081622F2A8154
:1001E000422F50E021E030E002C0220F331F4A9539
:1001F000E2F720952623FC01208388E390E028E3A2
:1002000030E0F9012081622F2A81422F50E021E065
:1002100030E002C0220F331F4A95E2F720952623D3
:10022000FC0120833FC087E390E027E330E0F90141
:100230002081622F2A81422F50E021E030E002C06D
:10024000220F331F4A95E2F720952623FC012083D5
:1002500088E390E028E330E0F9012081622F2A81D1
:10026000422F50E021E030E002C0220F331F4A95B8
:10027000E2F7262BFC01208315C087E390E027E3FB
:1002800030E0F9012081622F2A81422F50E021E0E5
:1002900030E002C0220F331F4A95E2F7262BFC0103
:1002A00020830000F0C08B81882F90E08130910581
:1002B00009F45BC08230910571F1892B09F06AC0A5
:1002C00084E390E024E330E0F9012081622F2A8169
:1002D000422F50E021E030E002C0220F331F4A9548
:1002E000E2F720952623FC01208385E390E025E3B7
:1002F00030E0F9012081622F2A81422F50E021E075
:1003000030E002C0220F331F4A95E2F720952623E2
:10031000FC0120833FC084E390E024E330E0F90156
:100320002081622F2A81422F50E021E030E002C07C
:10033000220F331F4A95E2F720952623FC012083E4
:1003400085E390E025E330E0F9012081622F2A81E6
:10035000422F50E021E030E002C0220F331F4A95C7
:10036000E2F7262BFC01208315C084E390E024E310
:1003700030E0F9012081622F2A81422F50E021E0F4
:1003800030E002C0220F331F4A95E2F7262BFC0112
:100390002083000078C08B81882F90E08130910508
:1003A00009F45BC08230910571F1892B09F06AC0B4
:1003B00081E390E021E330E0F9012081622F2A817E
:1003C000422F50E021E030E002C0220F331F4A9557
:1003D000E2F720952623FC01208382E390E022E3CC
:1003E00030E0F9012081622F2A81422F50E021E084
:1003F00030E002C0220F331F4A95E2F720952623F2
:10040000FC0120833FC081E390E021E330E0F9016B
:100410002081622F2A81422F50E021E030E002C08B
:10042000220F331F4A95E2F720952623FC012083F3
:1004300082E390E022E330E0F9012081622F2A81FB
:10044000422F50E021E030E002C0220F331F4A95D6
:10045000E2F7262BFC01208315C081E390E021E325
:1004600030E0F9012081622F2A81422F50E021E003
:1004700030E002C0220F331F4A95E2F7262BFC0121
:1004800020830000000000000F900F900F90DF917C
:10049000CF910895CF93DF9300D01F92CDB7DEB7F1
:1004A00089836A834B838A81883008F0E5C089811B
:1004B000882F90E08130910509F442C08230910587
:1004C0001CF4892B49F0D8C08230910509F46CC026
:1004D000039709F49DC0D0C08B81882F90E00097CE
:1004E000C1F0019709F02BC08BE390E02BE330E0E3
:1004F000F9012081622F2A81422F50E021E030E073
:1005000002C0220F331F4A95E2F7262BFC012083FD
:1005100016C08BE390E02BE330E0F9012081622FDD
:100520002A81422F50E021E030E002C0220F331F29
:100530004A95E2F720952623FC01208300009CC009
:100540008B81882F90E00097C1F0019709F02BC0B4
:1005500088E390E028E330E0F9012081622F2A81CE
:10056000422F50E021E030E002C0220F331F4A95B5
:10057000E2F7262BFC01208316C088E390E028E3F5
:1005800030E0F9012081622F2A81422F50E021E0E2
:1005900030E002C0220F331F4A95E2F72095262350
:1005A000FC012083000068C08B81882F90E00097B9
:1005B000C1F0019709F02BC085E390E025E330E01E
:1005C000F9012081622F2A81422F50E021E030E0A2
:1005D00002C0220F331F4A95E2F7262BFC0120832D
:1005E00016C085E390E025E330E0F9012081622F19
:1005F0002A81422F50E021E030E002C0220F331F59
:100600004A95E2F720952623FC012083000034C0A0
:100610008B81882F90E00097C1F0019709F02BC0E3
:1006200082E390E022E330E0F9012081622F2A8109
:10063000422F50E021E030E002C0220F331F4A95E4
:10064000E2F7262BFC01208316C082E390E022E330
:1006500030E0F9012081622F2A81422F50E021E011
:1006600030E002C0220F331F4A95E2F7209526237F
:10067000FC0120830000000000000F900F900F90FD
:10068000DF91CF910895CF93DF9300D01F92CDB724
:10069000DEB78A836B8319828B81883008F056C05D
:1006A0008A81882F90E081309105E9F082309105B0
:1006B0001CF4892B39F04AC08230910529F1039747
:1006C000A1F144C089E390E0FC018081882F90E093
:1006D0002B81222F30E002C0959587952A95E2F76D
:1006E0008170898333C086E390E0FC018081882F8C
:1006F00090E02B81222F30E002C0959587952A95B6
:10070000E2F78170898322C083E390E0FC0180815D
:10071000882F90E02B81222F30E002C0959587959D
:100720002A95E2F78170898311C080E390E0FC0193
:100730008081882F90E02B81222F30E002C0959598
:1007400087952A95E2F781708983000089810F904F
:100750000F900F90DF91CF910895CF93DF93CDB796
:10076000DEB727970FB6F894DEBF0FBECDBF9F83CD
:100770008E8319821A821B828E819F81FC012081C7
:100780008E819F81FC018081820F8C838E819F816D
:10079000FC0121818E819F81FC018181820F8D83EB
:1007A00019822AC08E819F81FC0122813381898137
:1007B000882F90E0820F931FFC0180818A838981BA
:1007C0008F5F89838E819F81FC01228133818981A2
:1007D000882F90E0820F931FFC0180818B8341E082
:1007E0006B818A810E94410041E06B818A810E9475
:1007F0004A0289818F5F898399818C81981790F251
:10080000198225C08E819F81FC01248135818981D7
:10081000882F90E0820F931FFC0180818A83898159
:100820008F5F89838E819F81FC012481358189813D
:10083000882F90E0820F931FFC0180818B8342E020
:100840006B818A810E94410089818F5F89839981B0
:100850008D819817B8F2000027960FB6F894DEBF86
:100860000FBECDBFDF91CF910895CF93DF93CDB76A
:10087000DEB72D970FB6F894DEBF0FBECDBF9D87B4
:100880008C8719821A821B821E821C8288EC8D83BF
:100890001F82188619868C859D85FC0120818C8598
:1008A0009D85FC018081820F8A878C859D85FC0156
:1008B00021818C859D85FC018181820F8B87198226
:1008C0009DC08C859D85FC01228133818981882F83
:1008D00090E0820F931FFC0180818B8389818F5F61
:1008E00089838C859D85FC01228133818981882FB4
:1008F00090E0820F931FFC0180818E8340E06E8127
:100900008B810E944A021A825CC08C859D85FC0105
:10091000248135818A81882F90E0820F931FFC010A
:1009200080818B838A818F5F8A838C859D85FC0182
:10093000248135818A81882F90E0820F931FFC01EA
:1009400080818E836E818B810E9443038823B1F561
:1009500081E08C8300006E818B810E944303882399
:10096000D1F38981882F90E0019799230CF40196A7
:100970009595879588878A81882F90E0019799239C
:100980000CF401969595879589878C859D85FC014A
:1009900091818885989F902D11248985890F8F8357
:1009A0008C859D85FC01268137818F81882F90E081
:1009B000820F931FFC0180818D8308C08A818F5F25
:1009C0008A839A818B85981708F49FCF8C859D85A3
:1009D000FC01228133818981882F90E0820F931F4F
:1009E000FC0180818E8341E06E818B810E944A02EE
:1009F0008C81882349F489818F5F898399818A85D5
:100A0000981708F45ECF01C000008D812D960FB6B7
:100A1000F894DEBF0FBECDBFDF91CF910895CF9385
:100A2000DF93CDB7DEB761970FB6F894DEBF0FBE88
:100A3000CDBF898B198281E08A8383E08B831C82FE
:100A400083E08D8381E08E8383E08F8382E08887DB
:100A500083E0898783E08A87CE0101960E9483051F
:100A60006989CE0101960E942706000061960FB6A3
:100A7000F894DEBF0FBECDBFDF91CF910895CF9325
:100A8000DF93CDB7DEB7A3970FB6F894DEBF0FBEE6
:100A9000CDBF8CE0E4E7F0E0DE01129601900D920C
:100AA0008A95E1F788E0E0E8F0E0DE011E9601902B
:100AB0000D928A95E1F786E0E8E8F0E0DE015696CF
:100AC00001900D928A95E1F784E08C8F83E08D8F01
:100AD000CE010E969F8F8E8FCE01469699A388A346
:100AE000CE0102969BA38AA3CE014C960E94AD0331
:100AF00085E38983CE014C960E94350489838981E0
:100B00000E940F05F7CFCF93DF9300D01F92CDB790
:100B1000DEB79B838A8319828A819B81FC01818154
:100B2000882F90E0009721F0019709F456C086C005
:100B30008A819B81FC0123818A819B81FC018281C6
:100B400041E0622F0E9441008A819B81FC01258146
:100B50008A819B81FC01848141E0622F0E944100D7
:100B60008A819B81FC0127818A819B81FC0186818E
:100B700041E0622F0E9441008A819B81FC01218516
:100B80008A819B81FC01808541E0622F0E944100A7
:100B90008A819B81FC0123858A819B81FC0182855E
:100BA00041E0622F0E9441008A819B81FC012585E2
:100BB0008A819B81FC01848541E0622F0E94410073
:100BC0008A819B81FC0127858A819B81FC01868526
:100BD00041E0622F0E94410033C08A819B81FC0169
:100BE00023818A819B81FC01828141E0622F0E94E6
:100BF00041008A819B81FC0125818A819B81FC01C6
:100C0000848141E0622F0E9441008A819B81FC0126
:100C100027818A819B81FC01868141E0622F0E94AD
:100C200041008A819B81FC0121858A819B81FC0195
:100C3000808541E0622F0E94410002C081E08983EB
:100C400089810F900F900F90DF91CF910895CF93EE
:100C5000DF9300D000D0CDB7DEB79B838A836C834F
:100C600019828A819B810E945A06898389818823FF
:100C700011F0898118C08C81803330F08C818A33E7
:100C800018F48C8180538C838C81882F90E0880F9E
:100C9000991F805A9F4FFC01208131818A819B815D
:100CA000F901099589810F900F900F900F90DF91B6
:100CB000CF910895CF93DF9300D0CDB7DEB79A835D
:100CC000898389819A81FC018081882341F089810F
:100CD0009A81FC018081813011F082E00FC089810E
:100CE0009A81FC018181882341F089819A81FC01EC
:100CF0008181813011F081E001C080E00F900F9080
:100D0000DF91CF910895CF93DF9300D0CDB7DEB7B9
:100D10009A83898389819A81FC018181882F90E05F
:100D2000009721F0019709F477C0B7C089819A81B3
:100D3000FC01308189819A81FC01238189819A811A
:100D4000FC018281432F622F0E944A0289819A818D
:100D5000FC01308189819A81FC01258189819A81F8
:100D6000FC018481432F622F0E944A0289819A816B
:100D7000FC01308189819A81FC01278189819A81D6
:100D8000FC018681432F622F0E944A0289819A8149
:100D9000FC01308189819A81FC01218589819A81B8
:100DA000FC018085432F622F0E944A0289819A812B
:100DB000FC01308189819A81FC01238589819A8196
:100DC000FC018285432F622F0E944A0289819A8109
:100DD000FC01308189819A81FC01258589819A8174
:100DE000FC018485432F622F0E944A0289819A81E7
:100DF000FC01908181E0992309F080E0382F8981FE
:100E00009A81FC01278589819A81FC018685432F7F
:100E1000622F0E944A0241C089819A81FC0130817F
:100E200089819A81FC01238189819A81FC018281D7
:100E3000432F622F0E944A0289819A81FC013081EE
:100E400089819A81FC01258189819A81FC018481B3
:100E5000432F622F0E944A0289819A81FC013081CE
:100E600089819A81FC01278189819A81FC0186818F
:100E7000432F622F0E944A0289819A81FC013081AE
:100E800089819A81FC01218589819A81FC01808573
:100E9000432F622F0E944A02000000000F900F9023
:100EA000DF91CF910895CF93DF9300D0CDB7DEB718
:100EB0009A83898389819A81FC018181882F90E0BE
:100EC000009721F0019709F48BC0D0C089819A81E5
:100ED000FC01908181E0992309F080E0382F89811D
:100EE0009A81FC01238189819A81FC018281432FAF
:100EF000622F0E944A0289819A81FC013081898196
:100F00009A81FC01258189819A81FC018481432F8A
:100F1000622F0E944A0289819A81FC013081898175
:100F20009A81FC01278189819A81FC018681432F66
:100F3000622F0E944A0289819A81FC01908181E09E
:100F4000992309F080E0382F89819A81FC0121855D
:100F500089819A81FC018085432F622F0E944A0279
:100F600089819A81FC01908181E0992309F080E0D8
:100F7000382F89819A81FC01238589819A81FC011E
:100F80008285432F622F0E944A0289819A81FC0147
:100F9000908181E0992309F080E0382F89819A813E
:100FA000FC01258589819A81FC018485432F622F6C
:100FB0000E944A0289819A81FC01908181E09923F3
:100FC00009F080E0382F89819A81FC012785898189
:100FD0009A81FC018685432F622F0E944A0246C0F7
:100FE00089819A81FC01908181E0992309F080E058
:100FF000382F89819A81FC01238189819A81FC01A2
:101000008281432F622F0E944A0289819A81FC01CA
:10101000308189819A81FC01258189819A81FC0135
:101020008481432F622F0E944A0289819A81FC01A8
:10103000308189819A81FC01278189819A81FC0113
:101040008681432F622F0E944A0289819A81FC0186
:10105000308189819A81FC01218589819A81FC01F5
:101060008085432F622F0E944A02000000000F90EB
:101070000F90DF91CF910895CF93DF9300D0CDB73C
:10108000DEB79A83898389819A81FC018181882FC7
:1010900090E0009721F0019709F47CC0C1C08981DC
:1010A0009A81FC01308189819A81FC0123818981A7
:1010B0009A81FC018281432F622F0E944A0289811A
:1010C0009A81FC01308189819A81FC012581898185
:1010D0009A81FC018481432F622F0E944A028981F8
:1010E0009A81FC01908181E0992309F080E0382FFA
:1010F00089819A81FC01278189819A81FC018681FD
:10110000432F622F0E944A0289819A81FC0130811B
:1011100089819A81FC01218589819A81FC018085E0
:10112000432F622F0E944A0289819A81FC013081FB
:1011300089819A81FC01238589819A81FC018285BC
:10114000432F622F0E944A0289819A81FC0190817B
:1011500081E0992309F080E0382F89819A81FC0190
:10116000258589819A81FC018485432F622F0E9405
:101170004A0289819A81FC01308189819A81FC012E
:10118000278589819A81FC018685432F622F0E94E1
:101190004A0246C089819A81FC01308189819A8105
:1011A000FC01238189819A81FC018281432F622F76
:1011B0000E944A0289819A81FC01908181E09923F1
:1011C00009F080E0382F89819A81FC01258189818D
:1011D0009A81FC018481432F622F0E944A028981F7
:1011E0009A81FC01308189819A81FC012781898162
:1011F0009A81FC018681432F622F0E944A028981D5
:101200009A81FC01308189819A81FC012185898143
:101210009A81FC018085432F622F0E944A020000C0
:1012200000000F900F90DF91CF910895CF93DF933F
:1012300000D0CDB7DEB79A83898389819A81FC017A
:101240008181882F90E0009721F0019709F47CC0FC
:10125000C6C089819A81FC01308189819A81FC0113
:10126000238189819A81FC018281432F622F0E9410
:101270004A0289819A81FC01308189819A81FC012D
:10128000258189819A81FC018481432F622F0E94EC
:101290004A0289819A81FC01308189819A81FC010D
:1012A000278189819A81FC018681432F622F0E94C8
:1012B0004A0289819A81FC01308189819A81FC01ED
:1012C000218589819A81FC018085432F622F0E94AC
:1012D0004A0289819A81FC01908181E0992309F079
:1012E00080E0382F89819A81FC01238589819A8148
:1012F000FC018285432F622F0E944A0289819A81D4
:10130000FC01908181E0992309F080E0382F8981E8
:101310009A81FC01258589819A81FC018485432F6E
:10132000622F0E944A0289819A81FC013081898161
:101330009A81FC01278589819A81FC018685432F4A
:10134000622F0E944A024BC089819A81FC019081E0
:1013500081E0992309F080E0382F89819A81FC018E
:10136000238189819A81FC018281432F622F0E940F
:101370004A0289819A81FC01908181E0992309F0D8
:1013800080E0382F89819A81FC01258189819A81A9
:10139000FC018481432F622F0E944A0289819A8135
:1013A000FC01308189819A81FC01278189819A81A0
:1013B000FC018681432F622F0E944A0289819A8113
:1013C000FC01308189819A81FC01218589819A8182
:1013D000FC018085432F622F0E944A02000000001A
:1013E0000F900F90DF91CF910895CF93DF9300D0AE
:1013F000CDB7DEB79A83898389819A81FC01818187
:10140000882F90E0009721F0019709F481C0C6C0B1
:1014100089819A81FC01908181E0992309F080E023
:10142000382F89819A81FC01238189819A81FC016D
:101430008281432F622F0E944A0289819A81FC0196
:10144000308189819A81FC01258189819A81FC0101
:101450008481432F622F0E944A0289819A81FC0174
:10146000308189819A81FC01278189819A81FC01DF
:101470008681432F622F0E944A0289819A81FC0152
:10148000908181E0992309F080E0382F89819A8149
:10149000FC01218589819A81FC018085432F622F7F
:1014A0000E944A0289819A81FC01908181E09923FE
:1014B00009F080E0382F89819A81FC012385898198
:1014C0009A81FC018285432F622F0E944A02898102
:1014D0009A81FC01308189819A81FC01258589816D
:1014E0009A81FC018485432F622F0E944A028981E0
:1014F0009A81FC01308189819A81FC01278589814B
:101500009A81FC018685432F622F0E944A0246C0C1
:1015100089819A81FC01308189819A81FC01238132
:1015200089819A81FC018281432F622F0E944A02A5
:1015300089819A81FC01308189819A81FC01258110
:1015400089819A81FC018481432F622F0E944A0283
:1015500089819A81FC01908181E0992309F080E0E2
:10156000382F89819A81FC01278189819A81FC0128
:101570008681432F622F0E944A0289819A81FC0151
:10158000308189819A81FC01218589819A81FC01C0
:101590008085432F622F0E944A02000000000F90B6
:1015A0000F90DF91CF910895CF93DF9300D0CDB707
:1015B000DEB79A83898389819A81FC018181882F92
:1015C00090E0009721F0019709F47CC0C6C08981A2
:1015D0009A81FC01308189819A81FC012381898172
:1015E0009A81FC018281432F622F0E944A028981E5
:1015F0009A81FC01908181E0992309F080E0382FE5
:1016000089819A81FC01258189819A81FC018481EB
:10161000432F622F0E944A0289819A81FC01308106
:1016200089819A81FC01278189819A81FC018681C7
:10163000432F622F0E944A0289819A81FC013081E6
:1016400089819A81FC01218589819A81FC018085AB
:10165000432F622F0E944A0289819A81FC01908166
:1016600081E0992309F080E0382F89819A81FC017B
:10167000238589819A81FC018285432F622F0E94F4
:101680004A0289819A81FC01308189819A81FC0119
:10169000258589819A81FC018485432F622F0E94D0
:1016A0004A0289819A81FC01308189819A81FC01F9
:1016B000278589819A81FC018685432F622F0E94AC
:1016C0004A024BC089819A81FC01908181E0992373
:1016D00009F080E0382F89819A81FC01238189817A
:1016E0009A81FC018281432F622F0E944A028981E4
:1016F0009A81FC01308189819A81FC01258189814F
:101700009A81FC018481432F622F0E944A028981C1
:101710009A81FC01908181E0992309F080E0382FC3
:1017200089819A81FC01278189819A81FC018681C6
:10173000432F622F0E944A0289819A81FC013081E5
:1017400089819A81FC01218589819A81FC018085AA
:10175000432F622F0E944A02000000000F900F905A
:10176000DF91CF910895CF93DF9300D0CDB7DEB74F
:101770009A83898389819A81FC018181882F90E0F5
:10178000009721F0019709F477C0C1C089819A813F
:10179000FC01308189819A81FC01238189819A81B0
:1017A000FC018281432F622F0E944A0289819A8123
:1017B000FC01908181E0992309F080E0382F898134
:1017C0009A81FC01258189819A81FC018481432FC2
:1017D000622F0E944A0289819A81FC0130818981AD
:1017E0009A81FC01278189819A81FC018681432F9E
:1017F000622F0E944A0289819A81FC01308189818D
:101800009A81FC01218589819A81FC018085432F81
:10181000622F0E944A0289819A81FC01308189816C
:101820009A81FC01238589819A81FC018285432F5D
:10183000622F0E944A0289819A81FC01308189814C
:101840009A81FC01258589819A81FC018485432F39
:10185000622F0E944A0289819A81FC01308189812C
:101860009A81FC01278589819A81FC018685432F15
:10187000622F0E944A024BC089819A81FC0130810B
:1018800089819A81FC01238189819A81FC0182816D
:10189000432F622F0E944A0289819A81FC01908124
:1018A00081E0992309F080E0382F89819A81FC0139
:1018B000258189819A81FC018481432F622F0E94B6
:1018C0004A0289819A81FC01908181E0992309F083
:1018D00080E0382F89819A81FC01278189819A8152
:1018E000FC018681432F622F0E944A0289819A81DE
:1018F000FC01308189819A81FC01218589819A814D
:10190000FC018085432F622F0E944A0200000000E4
:101910000F900F90DF91CF910895CF93DF9300D078
:10192000CDB7DEB79A83898389819A81FC01818151
:10193000882F90E0009721F0019709F486C0D5C068
:1019400089819A81FC01308189819A81FC012381FE
:1019500089819A81FC018281432F622F0E944A0271
:1019600089819A81FC01308189819A81FC012581DC
:1019700089819A81FC018481432F622F0E944A024F
:1019800089819A81FC01308189819A81FC012781BA
:1019900089819A81FC018681432F622F0E944A022D
:1019A00089819A81FC01908181E0992309F080E08E
:1019B000382F89819A81FC01218589819A81FC01D6
:1019C0008085432F622F0E944A0289819A81FC01FF
:1019D000908181E0992309F080E0382F89819A81F4
:1019E000FC01238589819A81FC018285432F622F26
:1019F0000E944A0289819A81FC01908181E09923A9
:101A000009F080E0382F89819A81FC012585898140
:101A10009A81FC018485432F622F0E944A028981AA
:101A20009A81FC01908181E0992309F080E0382FB0
:101A300089819A81FC01278589819A81FC018685AB
:101A4000432F622F0E944A0250C089819A81FC0173
:101A5000908181E0992309F080E0382F89819A8173
:101A6000FC01238189819A81FC018281432F622FAD
:101A70000E944A0289819A81FC01908181E0992328
:101A800009F080E0382F89819A81FC0125818981C4
:101A90009A81FC018481432F622F0E944A0289812E
:101AA0009A81FC01908181E0992309F080E0382F30
:101AB00089819A81FC01278189819A81FC01868133
:101AC000432F622F0E944A0289819A81FC01308152
:101AD00089819A81FC01218589819A81FC01808517
:101AE000432F622F0E944A02000000000F900F90C7
:101AF000DF91CF910895CF93DF9300D0CDB7DEB7BC
:101B00009A83898389819A81FC018181882F90E061
:101B1000009721F0019709F472C0B7C089819A81BA
:101B2000FC01308189819A81FC01238189819A811C
:101B3000FC018281432F622F0E944A0289819A818F
:101B4000FC01308189819A81FC01258189819A81FA
:101B5000FC018481432F622F0E944A0289819A816D
:101B6000FC01308189819A81FC01278189819A81D8
:101B7000FC018681432F622F0E944A0289819A814B
:101B8000FC01308189819A81FC01218589819A81BA
:101B9000FC018085432F622F0E944A0289819A812D
:101BA000FC01308189819A81FC01238589819A8198
:101BB000FC018285432F622F0E944A0289819A810B
:101BC000FC01308189819A81FC01258589819A8176
:101BD000FC018485432F622F0E944A0289819A81E9
:101BE000FC01308189819A81FC01278589819A8154
:101BF000FC018685432F622F0E944A0246C08981DC
:101C00009A81FC01308189819A81FC01238189813B
:101C10009A81FC018281432F622F0E944A028981AE
:101C20009A81FC01308189819A81FC012581898119
:101C30009A81FC018481432F622F0E944A0289818C
:101C40009A81FC01308189819A81FC0127818981F7
:101C50009A81FC018681432F622F0E944A0289816A
:101C60009A81FC01908181E0992309F080E0382F6E
:101C700089819A81FC01218589819A81FC01808575
:101C8000432F622F0E944A02000000000F900F9025
:101C9000DF91CF910895CF93DF9300D0CDB7DEB71A
:101CA0009A83898389819A81FC018181882F90E0C0
:101CB000009721F0019709F477C0C1C089819A810A
:101CC000FC01308189819A81FC01238189819A817B
:101CD000FC018281432F622F0E944A0289819A81EE
:101CE000FC01308189819A81FC01258189819A8159
:101CF000FC018481432F622F0E944A0289819A81CC
:101D0000FC01308189819A81FC01278189819A8136
:101D1000FC018681432F622F0E944A0289819A81A9
:101D2000FC01308189819A81FC01218589819A8118
:101D3000FC018085432F622F0E944A0289819A818B
:101D4000FC01908181E0992309F080E0382F89819E
:101D50009A81FC01238589819A81FC018285432F28
:101D6000622F0E944A0289819A81FC013081898117
:101D70009A81FC01258589819A81FC018485432F04
:101D8000622F0E944A0289819A81FC0130818981F7
:101D90009A81FC01278589819A81FC018685432FE0
:101DA000622F0E944A024BC089819A81FC01908176
:101DB00081E0992309F080E0382F89819A81FC0124
:101DC000238189819A81FC018281432F622F0E94A5
:101DD0004A0289819A81FC01308189819A81FC01C2
:101DE000258189819A81FC018481432F622F0E9481
:101DF0004A0289819A81FC01308189819A81FC01A2
:101E0000278189819A81FC018681432F622F0E945C
:101E10004A0289819A81FC01908181E0992309F02D
:101E200080E0382F89819A81FC01218589819A81FE
:101E3000FC018085432F622F0E944A0200000000AF
:0E1E40000F900F90DF91CF910895F894FFCF8F
:101E4E00830653073C081609F509D40AB30B8D0C0B
:101E5E007B0D4B0E3132333435363738392A302339
:0E1E6E00000000010002000300040005000651
:00000001FF
