:020000040800F2
:100000000028002039080008890800082108000895
:100010008908000889080008890800080000000015
:10002000000000000000000000000000E1070008E0
:10003000890800080000000089080008510600082F
:10004000890800088908000889080008890800084C
:100050008908000889080008E90200080D03000863
:1000600031030008550300087903000889080008D7
:10007000890800088908000889080008890800081C
:10008000890800088908000889080008890800080C
:1000900089080008890800088908000889080008FC
:1000A00089080008890800088908000889080008EC
:1000B00089080008890800088908000889080008DC
:1000C00089080008890800088908000889080008CC
:1000D00089080008B1060008E906000821070008A1
:1000E0008908000889080008000000008908000845
:1000F000890800088908000889080008890800089C
:10010000890800088908000889080008890800088B
:10011000890800088908000889080008890800087B
:10012000890800088908000889080008890800086B
:1001300010B5054C237833B9044B13B10448AFF321
:1001400000800123237010BD00000020000000008B
:10015000D408000808B5034B1BB103490348AFF3AB
:10016000008008BD0000000004000020D408000842
:1001700080B485B000AF03460A46FB711346BB71DD
:10018000BB79023BBB710023FB730023BB73FB797C
:100190009B08FB73FB7903F00303BB73124AFB7BE1
:1001A000023352F82320BB7B0F2101FA03F3DB4318
:1001B00018460D49FB7B0240023341F823200A4ACE
:1001C000FB7B023352F82320B979BB7B01FA03F39E
:1001D00018460549FB7B0243023341F8232000BF48
:1001E0001437BD4680BC70470004014080B483B022
:1001F00000AF03460A46FB711346BB71BB79012B66
:1002000019D0022B2CD0002B00D03DE0214BDB6815
:10021000FA79012101FA02F2D24311461D4A0B403C
:10022000D3601C4B9B68FA79012101FA02F2114656
:10023000184A0B439360174BDB68FA79012101FAE6
:1002400002F21146134A0B43D360124B9B68FA79B2
:10025000012101FA02F2D24311460E4A0B4093608B
:100260000C4B9B68FA79012101FA02F21146094A06
:100270000B439360074BDB68FA79012101FA02F224
:100280001146044A0B43D36000BF00BF0C37BD4684
:1002900080BC70470004014080B483B000AF0346C7
:1002A000FB71074B1B68FA79012101FA02F2114632
:1002B000034A0B43136000BF0C37BD4680BC704738
:1002C0000004014080B483B000AF03463960FB7185
:1002D000FB7904493A6841F8232000BF0C37BD463A
:1002E00080BC70471C00002080B500AF054B1B6828
:1002F0009847054B5B69044A43F00103536100BF13
:1003000080BD00BF1C0000200004014080B500AF8C
:10031000054B5B689847054B5B69044A43F0020351
:10032000536100BF80BD00BF1C00002000040140DD
:1003300080B500AF054B9B689847054B5B69044A45
:1003400043F00403536100BF80BD00BF1C000020C8
:100350000004014080B500AF054BDB689847054BB2
:100360005B69044A43F00803536100BF80BD00BFCE
:100370001C0000200004014080B500AF054B1B6944
:100380009847054B5B69044A43F01003536100BF73
:1003900080BD00BF1C0000200004014080B483B079
:1003A00000AF0346FB710B46BB7113467B71FB79B3
:1003B000032B3ED0042B75D0022B00D0A9E0BB79D3
:1003C000072B17D8554B1B68BA7992000F2101FAF9
:1003D00002F2D2431146514A0B4013604F4B1B6847
:1003E0007979BA79920001FA02F211464B4A0B432D
:1003F000136089E0BB790F2B00F28680BB79083B44
:10040000BB71464B5B68BA7992000F2101FA02F288
:10041000D2431146414A0B405360404B5B687979A7
:10042000BA79920001FA02F211463C4A0B4353603A
:100430006AE0BB79072B17D8394B1B68BA79920051
:100440000F2101FA02F2D2431146354A0B401360E4
:10045000334B1B687979BA79920001FA02F211469E
:100460002F4A0B43136051E0BB790F2B4ED8BB7959
:10047000083BBB712A4B5B68BA7992000F2101FAE5
:1004800002F2D2431146264A0B405360244B5B686C
:100490007979BA79920001FA02F21146204A0B43A7
:1004A000536033E0BB79072B10D81E4B1B681D4BE4
:1004B00000221A601B4B1B687979BA79920001FA05
:1004C00002F21146174A0B43136021E0BB790F2B50
:1004D0001ED8BB79083BBB71124B5B68BA7992009E
:1004E0000F2101FA02F2D24311460E4A0B4053602B
:1004F0000C4B5B687979BA79920001FA02F21146E5
:10050000084A0B43536003E000BF02E000BF00E075
:1005100000BF00BF0C37BD4680BC704700080140DB
:10052000000C01400010014080B483B000AF0346CE
:10053000FB71FB791F2B0AD80F4B1B68FA7901213D
:1005400001FA02F211460C4A0B4313600FE0FB79EB
:100550003B2B0CD8FB79203BFB71084B1B68FA79CD
:10056000012101FA02F21146044A0B43136000BF55
:100570000C37BD4680BC704700E100E004E100E0BC
:100580000023012200B519461246814202BFEFF353
:1005900014836FF3000383F314881EBFEFF31483F7
:1005A00043F0010383F3148800BD00BF80B400AFA3
:1005B000054B4FF480321A60044B01221A6000BFD1
:1005C000BD4680BC704700BF0010024004100240CE
:1005D00080B483B000AF03460A46FB711346BB717B
:1005E000BB791F2B28D8FB79012B0FD0022B18D0F9
:1005F000002B00D020E0134B1B68BA79012101FACF
:1006000002F211460F4A0B43136015E00E4B1B68B4
:10061000BA79012101FA02F211460B4A0B43136029
:100620000AE00A4B1B68BA79012101FA02F211466D
:10063000064A0B43136000BF00BF0C37BD4680BCA9
:10064000704700BF141002401C10024018100240F6
:1006500080B582B000AF0023FB71124B1B78022BD8
:1006600011D1114B1B68104A23F0020313600E4B8B
:100670001B680D4A23F0010313600B4B00225A60E4
:10068000094B00229A60094B1B689847064B1B6870
:100690001B0CDBB203F00103FB7100BF0837BD4642
:1006A00080BD00BF6C00002010E000E05C00002076
:1006B00080B500AF0A4B1B689B690A4A526892B228
:1006C00010469847074B1B68064A23F04003136007
:1006D000044B1B68034A23F02003136000BF80BD56
:1006E000600000200038014080B500AF0A4B5B6815
:1006F0009B690A4A526892B210469847074B1B689A
:10070000064A23F040031360044B1B68034A23F09E
:100710002003136000BF80BD600000200044004043
:1007200080B500AF0A4B9B689B690A4A526892B237
:1007300010469847084B1B68074A23F04003136094
:10074000054B1B68044A23F02003136000BF80BDE3
:1007500060000020004400400048004080B500AF29
:10076000FFF724FF02210220FFF732FF01220521BB
:100770000220FFF713FE0620FFF7D6FE022100201D
:10078000FFF7F6FC00210020FFF730FD0C490020A8
:10079000FFF798FD0020FFF77FFD0120FFF7F0FE37
:1007A00000DF084B1B78DBB2002BFAD0054B002290
:1007B0001A70EFF3148000F0050080F31488F0E75E
:1007C000C90700086D00002080B500AF034B01226F
:1007D0001A700020FFF7D4FE00BF80BD6D0000201E
:1007E0001EF0040F0CBFEFF30880EFF3098000F058
:1007F00001B800BF80B584B000AF78607B68183363
:100800001B68023B1B78FB73FB7B002B00D003E0D3
:100810000020FFF7B5FE00BF00BF1037BD4680BD0A
:1008200080B400AF034B00221A7000BFBD4680BCED
:10083000704700BF6D0000200D488546AFF3008073
:100840000C480D490D4A002302E0D458C45004332B
:10085000C4188C42F9D30A4A0A4C002301E0136001
:100860000432A242FBD300F011F8FFF777FFFEE756
:10087000002800200000002000000020F4080008EC
:100880000000002070000020FEE7000070B5002589
:100890000C4E0D4CA41BA410A54209D100F01AF86F
:1008A00000250A4E0A4CA41BA410A54205D170BD18
:1008B00056F8253098470135EEE756F82530984729
:1008C0000135F2E7EC080008EC080008EC08000825
:1008D000F0080008F8B500BFF8BC08BC9E46704799
:0C08E000F8B500BFF8BC08BC9E4670478D
:0408EC0055010008AA
:0408F00031010008CA
:0400000508000839AE
:00000001FF
