:100000000C942A000C9447000C9447000C94470071
:100010000C9447000C9447000C9447000C94470044
:100020000C9447000C9447000C9447000C94AE06C7
:100030000C9447000C94D7060C9447000C9447008E
:100040000C9447000C9447000C9447000C94470014
:100050000C94470011241FBECFE5D4E0DEBFCDBF16
:1000600010E0A0E6B0E0E8E5FEE002C005900D92E9
:10007000A037B107D9F720E0A0E7B0E001C01D929A
:10008000A637B207E1F70E9417050C942A070C94D3
:100090000000CF93DF9300D01F92CDB7DEB78983E6
:1000A0006A834B838A81883008F0F5C18981882F63
:1000B00090E08130910509F486C0823091051CF4EE
:1000C000892B49F0E8C18230910509F4F4C0039707
:1000D00009F469C1E0C18B81882F90E081309105DE
:1000E00009F45BC08230910571F1892B09F06AC077
:1000F0008AE390E02AE330E0F9012081622F2A812F
:10010000422F50E021E030E002C0220F331F4A9519
:10011000E2F720952623FC0120838BE390E02BE37C
:1001200030E0F9012081622F2A81422F50E021E046
:1001300030E002C0220F331F4A95E2F720952623B4
:10014000FC0120833FC08AE390E02AE330E0F9011C
:100150002081622F2A81422F50E021E030E002C04E
:10016000220F331F4A95E2F720952623FC012083B6
:100170008BE390E02BE330E0F9012081622F2A81AC
:10018000422F50E021E030E002C0220F331F4A9599
:10019000E2F7262BFC01208315C08AE390E02AE3D6
:1001A00030E0F9012081622F2A81422F50E021E0C6
:1001B00030E002C0220F331F4A95E2F7262BFC01E4
:1001C0002083000068C18B81882F90E081309105E9
:1001D00009F45BC08230910571F1892B09F06AC086
:1001E00087E390E027E330E0F9012081622F2A8144
:1001F000422F50E021E030E002C0220F331F4A9529
:10020000E2F720952623FC01208388E390E028E391
:1002100030E0F9012081622F2A81422F50E021E055
:1002200030E002C0220F331F4A95E2F720952623C3
:10023000FC0120833FC087E390E027E330E0F90131
:100240002081622F2A81422F50E021E030E002C05D
:10025000220F331F4A95E2F720952623FC012083C5
:1002600088E390E028E330E0F9012081622F2A81C1
:10027000422F50E021E030E002C0220F331F4A95A8
:10028000E2F7262BFC01208315C087E390E027E3EB
:1002900030E0F9012081622F2A81422F50E021E0D5
:1002A00030E002C0220F331F4A95E2F7262BFC01F3
:1002B00020830000F0C08B81882F90E08130910571
:1002C00009F45BC08230910571F1892B09F06AC095
:1002D00084E390E024E330E0F9012081622F2A8159
:1002E000422F50E021E030E002C0220F331F4A9538
:1002F000E2F720952623FC01208385E390E025E3A7
:1003000030E0F9012081622F2A81422F50E021E064
:1003100030E002C0220F331F4A95E2F720952623D2
:10032000FC0120833FC084E390E024E330E0F90146
:100330002081622F2A81422F50E021E030E002C06C
:10034000220F331F4A95E2F720952623FC012083D4
:1003500085E390E025E330E0F9012081622F2A81D6
:10036000422F50E021E030E002C0220F331F4A95B7
:10037000E2F7262BFC01208315C084E390E024E300
:1003800030E0F9012081622F2A81422F50E021E0E4
:1003900030E002C0220F331F4A95E2F7262BFC0102
:1003A0002083000078C08B81882F90E081309105F8
:1003B00009F45BC08230910571F1892B09F06AC0A4
:1003C00081E390E021E330E0F9012081622F2A816E
:1003D000422F50E021E030E002C0220F331F4A9547
:1003E000E2F720952623FC01208382E390E022E3BC
:1003F00030E0F9012081622F2A81422F50E021E074
:1004000030E002C0220F331F4A95E2F720952623E1
:10041000FC0120833FC081E390E021E330E0F9015B
:100420002081622F2A81422F50E021E030E002C07B
:10043000220F331F4A95E2F720952623FC012083E3
:1004400082E390E022E330E0F9012081622F2A81EB
:10045000422F50E021E030E002C0220F331F4A95C6
:10046000E2F7262BFC01208315C081E390E021E315
:1004700030E0F9012081622F2A81422F50E021E0F3
:1004800030E002C0220F331F4A95E2F7262BFC0111
:1004900020830000000000000F900F900F90DF916C
:1004A000CF910895CF93DF9300D01F92CDB7DEB7E1
:1004B00089836A834B838A81883008F0E5C089810B
:1004C000882F90E08130910509F442C08230910577
:1004D0001CF4892B49F0D8C08230910509F46CC016
:1004E000039709F49DC0D0C08B81882F90E00097BE
:1004F000C1F0019709F02BC08BE390E02BE330E0D3
:10050000F9012081622F2A81422F50E021E030E062
:1005100002C0220F331F4A95E2F7262BFC012083ED
:1005200016C08BE390E02BE330E0F9012081622FCD
:100530002A81422F50E021E030E002C0220F331F19
:100540004A95E2F720952623FC01208300009CC0F9
:100550008B81882F90E00097C1F0019709F02BC0A4
:1005600088E390E028E330E0F9012081622F2A81BE
:10057000422F50E021E030E002C0220F331F4A95A5
:10058000E2F7262BFC01208316C088E390E028E3E5
:1005900030E0F9012081622F2A81422F50E021E0D2
:1005A00030E002C0220F331F4A95E2F72095262340
:1005B000FC012083000068C08B81882F90E00097A9
:1005C000C1F0019709F02BC085E390E025E330E00E
:1005D000F9012081622F2A81422F50E021E030E092
:1005E00002C0220F331F4A95E2F7262BFC0120831D
:1005F00016C085E390E025E330E0F9012081622F09
:100600002A81422F50E021E030E002C0220F331F48
:100610004A95E2F720952623FC012083000034C090
:100620008B81882F90E00097C1F0019709F02BC0D3
:1006300082E390E022E330E0F9012081622F2A81F9
:10064000422F50E021E030E002C0220F331F4A95D4
:10065000E2F7262BFC01208316C082E390E022E320
:1006600030E0F9012081622F2A81422F50E021E001
:1006700030E002C0220F331F4A95E2F7209526236F
:10068000FC0120830000000000000F900F900F90ED
:10069000DF91CF910895CF93DF9300D01F92CDB714
:1006A000DEB78A836B8319828B81883008F056C04D
:1006B0008A81882F90E081309105E9F082309105A0
:1006C0001CF4892B39F04AC08230910529F1039737
:1006D000A1F144C089E390E0FC018081882F90E083
:1006E0002B81222F30E002C0959587952A95E2F75D
:1006F0008170898333C086E390E0FC018081882F7C
:1007000090E02B81222F30E002C0959587952A95A5
:10071000E2F78170898322C083E390E0FC0180814D
:10072000882F90E02B81222F30E002C0959587958D
:100730002A95E2F78170898311C080E390E0FC0183
:100740008081882F90E02B81222F30E002C0959588
:1007500087952A95E2F781708983000089810F903F
:100760000F900F90DF91CF910895CF93DF93CDB786
:10077000DEB727970FB6F894DEBF0FBECDBF9F83BD
:100780008E8319821A821B828E819F81FC012081B7
:100790008E819F81FC018081820F8C838E819F815D
:1007A000FC0121818E819F81FC018181820F8D83DB
:1007B00019822AC08E819F81FC0122813381898127
:1007C000882F90E0820F931FFC0180818A838981AA
:1007D0008F5F89838E819F81FC0122813381898192
:1007E000882F90E0820F931FFC0180818B8341E072
:1007F0006B818A810E94490041E06B818A810E945D
:10080000520289818F5F898399818C81981790F238
:10081000198225C08E819F81FC01248135818981C7
:10082000882F90E0820F931FFC0180818A83898149
:100830008F5F89838E819F81FC012481358189812D
:10084000882F90E0820F931FFC0180818B8342E010
:100850006B818A810E94490089818F5F8983998198
:100860008D819817B8F2000027960FB6F894DEBF76
:100870000FBECDBFDF91CF910895CF93DF93CDB75A
:10088000DEB72D970FB6F894DEBF0FBECDBF9D87A4
:100890008C8719821A821B821E821C8288EC8D83AF
:1008A0001F82188619868C859D85FC0120818C8588
:1008B0009D85FC018081820F8A878C859D85FC0146
:1008C00021818C859D85FC018181820F8B87198216
:1008D0009DC08C859D85FC01228133818981882F73
:1008E00090E0820F931FFC0180818B8389818F5F51
:1008F00089838C859D85FC01228133818981882FA4
:1009000090E0820F931FFC0180818E8340E06E8116
:100910008B810E9452021A825CC08C859D85FC01ED
:10092000248135818A81882F90E0820F931FFC01FA
:1009300080818B838A818F5F8A838C859D85FC0172
:10094000248135818A81882F90E0820F931FFC01DA
:1009500080818E836E818B810E944B038823B1F549
:1009600081E08C8300006E818B810E944B03882381
:10097000D1F38981882F90E0019799230CF4019697
:100980009595879588878A81882F90E0019799238C
:100990000CF401969595879589878C859D85FC013A
:1009A00091818885989F902D11248985890F8F8347
:1009B0008C859D85FC01268137818F81882F90E071
:1009C000820F931FFC0180818D8308C08A818F5F15
:1009D0008A839A818B85981708F49FCF8C859D8593
:1009E000FC01228133818981882F90E0820F931F3F
:1009F000FC0180818E8341E06E818B810E945202D6
:100A00008C81882349F489818F5F898399818A85C4
:100A1000981708F45ECF01C000008D812D960FB6A7
:100A2000F894DEBF0FBECDBFDF91CF910895CF9375
:100A3000DF93CDB7DEB7E0970FB6F894DEBF0FBEF9
:100A4000CDBF80E1E0E6F0E0DE01129601900D926C
:100A50008A95E1F78BE390E0FC0180818A8B1B8A09
:100A60008BE390E0FC0180818C8B81E08D8B8BE3AC
:100A700090E0FC0180818E8B82E08F8B8BE390E095
:100A8000FC018081888F83E0898F8BE390E0FC01FB
:100A900080818A8F84E08B8F8BE390E0FC018081E2
:100AA0008C8F85E08D8F8BE390E0FC0180818E8FB1
:100AB00086E08F8F8BE390E0FC01808188A387E044
:100AC00089A384E08AA384E08BA3CE0142969DA3F0
:100AD0008CA3CE014A969FA38EA3CE01029699A71E
:100AE00088A7CE0182960E94B50380E895E29BA775
:100AF0008AA783E08CA71DA61EA683E08FA718AA4D
:100B0000CE018A960E949605CE0182960E943D04EF
:100B100089838981883CC1F389810E945C068DE0CC
:100B20000E945C068AE00E945C06EECF0F931F9342
:100B3000CF93DF9300D0CDB7DEB79A8389838981C5
:100B40009A8190937300809372008AE290E02AE287
:100B500030E0F9012081277EFC0120838AE290E0C9
:100B60002AE230E0F9012081422F29813A81F901FE
:100B70002581222F30E0220F331F220F331F220F37
:100B8000331F242BFC01208389819A81FC018281FF
:100B900086958695882F90E081709927892B51F052
:100BA0008AE290E02AE230E0F90120812460FC0131
:100BB000208309C08AE290E02AE230E0F901208136
:100BC0002B7FFC01208380E490E029813A81F901A8
:100BD0002281222F30E023703327220F331F422F30
:100BE00029813A81F9012381422B29813A81F90136
:100BF0002481242B2068FC01208309E210E08981F4
:100C00009A81FC0180819181CC01A0E0B0E0880F45
:100C1000991FAA1FBB1F880F991FAA1FBB1F880FF0
:100C2000991FAA1FBB1F880F991FAA1FBB1F9C01DA
:100C3000AD0180E094E2A4EFB0E0BC01CD010E94E0
:100C40000807DA01C9018150F801808300E410E04F
:100C500089819A81FC0180819181CC01A0E0B0E082
:100C6000880F991FAA1FBB1F880F991FAA1FBB1FA0
:100C7000880F991FAA1FBB1F880F991FAA1FBB1F90
:100C80009C01AD0180E094E2A4EFB0E0BC01CD0195
:100C90000E940807DA01C9018150882F90E0892F4E
:100CA000990F990BF801808300000F900F90DF914E
:100CB000CF911F910F910895CF93DF931F92CDB7DE
:100CC000DEB7898300008BE290E0FC018081882FF1
:100CD00090E080729927892BB1F389810E947B066D
:100CE00089838CE290E02981FC01208300000F9031
:100CF000DF91CF910895CF93DF9300D0CDB7DEB7CA
:100D00008A8319828091720090917300FC01828124
:100D1000882F90E08130910581F0823091051CF49C
:100D2000892B39F015C08230910559F0039769F08D
:100D30000FC08A818F7189830BC08A818F738983E9
:100D400007C08A818F77898303C08A8189830000E5
:100D500089810F900F90DF91CF9108951F920F928C
:100D600000905F000F9211242F933F938F939F93D6
:100D7000EF93FF93CF93DF93CDB7DEB780917400ED
:100D8000909175002CE230E0F9012081FC01208374
:100D90000000DF91CF91FF91EF919F918F913F9153
:100DA0002F910F9000925F000F901F9018951F9247
:100DB0000F9200905F000F9211242F933F934F9357
:100DC0005F936F937F938F939F93AF93BF93EF93B3
:100DD000FF93CF93DF93CDB7DEB7809170009091F2
:100DE0007100FC0109950000DF91CF91FF91EF9117
:100DF000BF91AF919F918F917F916F915F914F9133
:100E00003F912F910F9000925F000F901F901895C7
:100E1000A1E21A2EAA1BBB1BFD010DC0AA1FBB1FFE
:100E2000EE1FFF1FA217B307E407F50720F0A21B70
:100E3000B30BE40BF50B661F771F881F991F1A94DD
:100E400069F760957095809590959B01AC01BD0107
:080E5000CF010895F894FFCFD3
:100E58003738392F343536583132332D43303D2B1E
:00000001FF
