:100000000C9432000C9451000C9482000C944F001C
:100010000C94F7080C942D090C944F000C944F008D
:100020000C94C1080C948B080C9475070C9463090C
:100030000C944F000C948C090C944F000C944F00BE
:100040000C944F000C944F000C94B3000C94EE07EA
:100050000C944F00730478047F0486048D04940488
:100060009B04A20411241FBECFE5D4E0DEBFCDBFA8
:1000700010E0A0E6B0E0E2E2F4E102C005900D92EB
:10008000AC37B107D9F720E0ACE7B0E001C01D9272
:10009000AA3AB207E1F70E9425030C940F0A0C94C8
:1000A00000001F920F9200905F000F9211242F9377
:1000B0003F934F935F936F937F938F939F93AF93F0
:1000C000BF93EF93FF93CF93DF93CDB7DEB78091CC
:1000D0007C0090917D00FC0109950000DF91CF919B
:1000E000FF91EF91BF91AF919F918F917F916F9110
:1000F0005F914F913F912F910F9000925F000F9071
:100100001F9018951F920F9200905F000F9211247C
:100110002F933F934F935F936F937F938F939F930F
:10012000AF93BF93EF93FF93CF93DF93CDB7DEB73A
:1001300080917E0090917F00FC0109950000DF9185
:10014000CF91FF91EF91BF91AF919F918F917F914F
:100150006F915F914F913F912F910F9000925F00AF
:100160000F901F9018951F920F9200905F000F92B2
:1001700011242F933F934F935F936F937F938F93AC
:100180009F93AF93BF93EF93FF93CF93DF93CDB73D
:10019000DEB78091800090918100FC0109950000FC
:1001A000DF91CF91FF91EF91BF91AF919F918F918F
:1001B0007F916F915F914F913F912F910F9000929E
:1001C0005F000F901F901895CF93DF93CDB7DEB7E8
:1001D0008BE390E0FC0110828AE390E0FC01108246
:1001E00089E390E0FC01108288E390E0FC0110823A
:1001F00087E390E0FC01108286E390E0FC0110822E
:1002000085E390E0FC01108284E390E0FC01108221
:1002100083E390E0FC01108282E390E0FC01108215
:1002200081E390E0FC01108280E390E0FC01108209
:100230000000DF91CF910895CF93DF9300D01F92FC
:10024000CDB7DEB789836A834B838A81883008F013
:10025000F5C18981882F90E08130910509F486C02D
:10026000823091051CF4892B49F0E8C18230910558
:1002700009F4F4C0039709F469C1E0C18B81882FA8
:1002800090E08130910509F45BC08230910571F1F5
:10029000892B09F06AC08AE390E02AE330E0F90193
:1002A0002081622F2A81422F50E021E030E002C0FD
:1002B000220F331F4A95E2F720952623FC01208365
:1002C0008BE390E02BE330E0F9012081622F2A815B
:1002D000422F50E021E030E002C0220F331F4A9548
:1002E000E2F720952623FC0120833FC08AE390E0BB
:1002F0002AE330E0F9012081622F2A81422F50E069
:1003000021E030E002C0220F331F4A95E2F720952A
:100310002623FC0120838BE390E02BE330E0F901FE
:100320002081622F2A81422F50E021E030E002C07C
:10033000220F331F4A95E2F7262BFC01208315C0BC
:100340008AE390E02AE330E0F9012081622F2A81DC
:10035000422F50E021E030E002C0220F331F4A95C7
:10036000E2F7262BFC012083000068C18B81882FD7
:1003700090E08130910509F45BC08230910571F104
:10038000892B09F06AC087E390E027E330E0F901A8
:100390002081622F2A81422F50E021E030E002C00C
:1003A000220F331F4A95E2F720952623FC01208374
:1003B00088E390E028E330E0F9012081622F2A8170
:1003C000422F50E021E030E002C0220F331F4A9557
:1003D000E2F720952623FC0120833FC087E390E0CD
:1003E00027E330E0F9012081622F2A81422F50E07B
:1003F00021E030E002C0220F331F4A95E2F720953A
:100400002623FC01208388E390E028E330E0F90113
:100410002081622F2A81422F50E021E030E002C08B
:10042000220F331F4A95E2F7262BFC01208315C0CB
:1004300087E390E027E330E0F9012081622F2A81F1
:10044000422F50E021E030E002C0220F331F4A95D6
:10045000E2F7262BFC0120830000F0C08B81882F5F
:1004600090E08130910509F45BC08230910571F113
:10047000892B09F06AC084E390E024E330E0F901BD
:100480002081622F2A81422F50E021E030E002C01B
:10049000220F331F4A95E2F720952623FC01208383
:1004A00085E390E025E330E0F9012081622F2A8185
:1004B000422F50E021E030E002C0220F331F4A9566
:1004C000E2F720952623FC0120833FC084E390E0DF
:1004D00024E330E0F9012081622F2A81422F50E08D
:1004E00021E030E002C0220F331F4A95E2F7209549
:1004F0002623FC01208385E390E025E330E0F90129
:100500002081622F2A81422F50E021E030E002C09A
:10051000220F331F4A95E2F7262BFC01208315C0DA
:1005200084E390E024E330E0F9012081622F2A8106
:10053000422F50E021E030E002C0220F331F4A95E5
:10054000E2F7262BFC012083000078C08B81882FE6
:1005500090E08130910509F45BC08230910571F122
:10056000892B09F06AC081E390E021E330E0F901D2
:100570002081622F2A81422F50E021E030E002C02A
:10058000220F331F4A95E2F720952623FC01208392
:1005900082E390E022E330E0F9012081622F2A819A
:1005A000422F50E021E030E002C0220F331F4A9575
:1005B000E2F720952623FC0120833FC081E390E0F1
:1005C00021E330E0F9012081622F2A81422F50E09F
:1005D00021E030E002C0220F331F4A95E2F7209558
:1005E0002623FC01208382E390E022E330E0F9013E
:1005F0002081622F2A81422F50E021E030E002C0AA
:10060000220F331F4A95E2F7262BFC01208315C0E9
:1006100081E390E021E330E0F9012081622F2A811B
:10062000422F50E021E030E002C0220F331F4A95F4
:10063000E2F7262BFC0120830000000000000F9051
:100640000F900F90DF91CF910895CF93DF93CDB7A7
:10065000DEB70E94E40080E690E00E94400360E381
:1006600080E690E00E94C70441E064E083E00E94DD
:100670001C0146E464E680E690E00E940605FFCF98
:10068000CF93DF9300D0CDB7DEB79A83898389817A
:100690009A81FC018081882F90E08130910509F4D6
:1006A00071C08230910509F4F5C0892B09F069C148
:1006B00083E590E0FC01108283E590E023E530E0E3
:1006C000F901408129813A81F9012181242BFC0122
:1006D000208389819A81FC018281882F90E0823079
:1006E0009105E9F0833091052CF4009761F00197B2
:1006F00079F031C08430910501F184309105B4F076
:10070000059711F128C0109283001092820023C037
:1007100081E090E090938300809382001CC088E089
:1007200090E0909383008093820015C080E490E075
:1007300090938300809382000EC080E091E09093BC
:1007400083008093820007C080E094E09093830050
:1007500080938200000083E590E023E530E0F9011A
:100760002081287FFC01208383E590E023E530E0B1
:10077000F901408129813A81F9012281242BFC0170
:100780002083FFC08FE490E0FC0110828EE490E0B3
:10079000FC0110828FE490E02FE430E0F901208129
:1007A000422F29813A81F90121812370242BFC01F8
:1007B00020838EE490E02EE430E0F9012081422F86
:1007C00029813A81F901218126952695222F30E051
:1007D000220F331F220F331F220F331F242BFC0144
:1007E000208389819A81FC018281882F90E0823068
:1007F0009105E9F0833091052CF4009761F00197A1
:1008000079F031C08430910501F184309105B4F064
:10081000059711F128C0109285001092840023C022
:1008200081E090E090938500809384001CC088E074
:1008300090E0909385008093840015C080E490E060
:1008400090938500809384000EC080E091E09093A7
:1008500085008093840007C080E094E09093850039
:100860008093840000008EE490E02EE430E0F901F3
:100870002081287FFC0120838EE490E02EE430E08C
:10088000F901408129813A81F9012281242BFC015F
:10089000208377C085E490E0FC01108285E490E03D
:1008A00025E430E0F901408129813A81F901218173
:1008B000242BFC01208389819A81FC018281882F6D
:1008C00090E0092E000CAA0BBB0B40E050E027E0A3
:1008D00030E0841B950B28173907D8F1865D9F4FB0
:1008E000FC010C94EF09109287001092860032C030
:1008F00081E090E090938700809386002BC088E091
:1009000090E0909387008093860024C080E290E07E
:1009100090938700809386001DC080E490E09093C0
:1009200087008093860016C080E890E0909387004F
:10093000809386000FC080E091E0909387008093C1
:10094000860008C080E094E0909387008093860042
:1009500001C0000085E490E025E430E0F901208149
:10096000287FFC01208385E490E025E430E0F90154
:10097000408129813A81F9012281242BFC012083C5
:10098000000000000F900F90DF91CF910895CF935A
:10099000DF9300D01F92CDB7DEB79A8389836B8334
:1009A00089819A81FC018081882F90E081309105B6
:1009B00081F082309105C1F0892B09F020C083E5D8
:1009C00090E023E530E0F90130812B81232BFC01FD
:1009D00020838FE490E02FE430E0F90130812B8117
:1009E000232BFC0120830BC085E490E025E430E05C
:1009F000F90130812B81232BFC01208300000000B2
:100A00000F900F900F90DF91CF910895EF92FF928A
:100A10000F931F93CF93DF93CDB7DEB7A2970FB697
:100A2000F894DEBF0FBECDBF98A38F8F69A34AA3F2
:100A300019821A821B821C821E821D828AA185361F
:100A400008F0FCC18F8D98A1FC018081882F90E077
:100A50008130910509F494C08230910509F460C198
:100A6000892B09F0EBC18AE0E3E6F0E0DE0117969E
:100A700001900D928A95E1F789A1482F50E02EEF61
:100A800031E0429FC001439F900D529F900D112471
:100A90009C01990F440B550B80E094E2A4EFB0E069
:100AA000BC01CD010E94CD09DA01C9019E838D836D
:100AB0009E01295F3F4F8D819E8145E0B9010E94D3
:100AC0002C07882F90E09E838D8383E590E0FC01C6
:100AD000808182958F70882F90E081709927892B73
:100AE00041F18AA1282F30E08EEF91E0289FA001EC
:100AF000299F500D389F500D1124CA019695879556
:100B0000969587959C01ABE7B4E10E94F50996950F
:100B100087952EEF31E0A901481B590BCA01969524
:100B20008795CC01A0E0B0E089839A83AB83BC8336
:100B30000DC08AA1882F90E0880F991F092E000C04
:100B4000AA0BBB0B89839A83AB83BC838CE590E0B3
:100B50002981FC01208383E590E023E530E0F90161
:100B60002081287FFC01208383E590E023E530E0AD
:100B7000F90130812D81232BFC01208300005EC10F
:100B80008EE490E02EE430E0F90120812061FC0148
:100B900020838EE490E02EE430E0F9012081277F6D
:100BA000FC0120838FE490E02FE430E0F901208104
:100BB0002160FC0120838FE490E02FE430E0F90114
:100BC00020812D7FFC0120838FE490E0FC01808157
:100BD000829586958770882F90E081709927892B60
:100BE00009F42BC180918400909185009C0140E024
:100BF00050E089A1882F90E0A0E0B0E0BC01CD01D9
:100C00000E94BD09DC01CB0189839A83AB83BC833D
:100C100080E094E2A4EFB0E029813A814B815C81CD
:100C2000BC01CD010E94CD09DA01C90189839A83F3
:100C3000AB83BC832AE430E089819A81AB81BC819B
:100C4000B695A79597958795F901918380838FE451
:100C500090E0FC01808182958F70882F90E08170F8
:100C60009927892BC1F189819A81AB81BC817C0153
:100C70008D01EE0CFF1C001F111F8AA1282F30E0F0
:100C800040E050E089819A81AB81BC81BC01CD01FB
:100C90000E94BD09DC01CB01880F991FAA1FBB1F51
:100CA00024E630E040E050E0BC01CD010E94CD09D7
:100CB000DA01C901A8019701281B390B4A0B5B0B0C
:100CC000DA01C901B695A7959795879589839A8387
:100CD000AB83BC831DC08AA1282F30E040E050E0E8
:100CE00089819A81AB81BC81BC01CD010E94BD0983
:100CF000DC01CB0128EC30E040E050E0BC01CD014C
:100D00000E94CD09DA01C90189839A83AB83BC8330
:100D100088E490E029813A81FC01318320838DC0F1
:100D20008EE0EDE6F0E0DE01519601900D928A959D
:100D3000E1F789A1482F50E02EEF31E0429FC0013A
:100D4000439F900D529F900D11249C01990F440BCD
:100D5000550B80E094E2A4EFB0E0BC01CD010E940D
:100D6000CD09DA01C9019E838D839E012F5E3F4F1D
:100D70008D819E8147E0B9010E942C07882F90E069
:100D80009E838D8385E490E0FC01808182958F7045
:100D9000882F90E081709927892B41F18AA1282F13
:100DA00030E08EEF91E0289FA001299F500D389FE1
:100DB000500D1124CA0196958795969587959C01AB
:100DC000ABE7B4E10E94F509969587952EEF31E0E7
:100DD000A901481B590BCA0196958795CC01A0E043
:100DE000B0E089839A83AB83BC830DC08AA1882F2E
:100DF00090E0880F991F092E000CAA0BBB0B89836A
:100E00009A83AB83BC8383E490E02981FC01208337
:100E100085E490E025E430E0F9012081287FFC01A1
:100E2000208385E490E025E430E0F90130812D81D4
:100E3000232BFC012083000001C000000000A296CB
:100E40000FB6F894DEBF0FBECDBFDF91CF911F91DB
:100E50000F91FF90EF900895CF93DF93CDB7DEB75A
:100E60002A970FB6F894DEBF0FBECDBF9F838E8347
:100E7000798768874A8788EE93E09A8389838AE036
:100E80008B831C8223C04E818C81882F90E0880F39
:100E9000991F28853985820F931FFC0180819181DC
:100EA000F42FF81B8F2F8D838D81282F30E08981BF
:100EB0009A812817390738F48D81882F90E09A831A
:100EC00089838C818B838C818F5F8C839C818A85C5
:100ED0009817C8F28B818F5F2A960FB6F894DEBF01
:100EE0000FBECDBFDF91CF9108951F920F9200905A
:100EF0005F000F9211242F933F934F935F936F9353
:100F00007F938F939F93AF93BF93EF93FF93CF9371
:100F1000DF93CDB7DEB78091880090918900FC0106
:100F200009950000DF91CF91FF91EF91BF91AF91B3
:100F30009F918F917F916F915F914F913F912F91F1
:100F40000F9000925F000F901F901895CF93DF9342
:100F50001F92CDB7DEB789838981882F90E08130D9
:100F6000910581F082309105B9F0892B09F031C0EB
:100F700083E590E023E530E0F9012081287FFC0142
:100F8000208327C08EE490E02EE430E0F901208138
:100F9000287FFC0120831DC085E490E025E430E03B
:100FA000F9012081287FFC01208380919600909197
:100FB0009700FC018081882359F0000082E490E0D2
:100FC000FC018081882F90E081709927892BB1F7EF
:100FD000000000000F90DF91CF9108951F920F92B3
:100FE00000905F000F9211242F933F934F935F93D4
:100FF0006F937F938F939F93AF93BF93EF93FF93E1
:10100000CF93DF93CDB7DEB780918A00882301F5B7
:10101000209198003091990080918B0090918C00E4
:101020002817390750F48091980090919900019603
:10103000909399008093980054C08091A80090915B
:10104000A900FC010995109299001092980049C0DE
:1010500080918A00813019F5209198003091990093
:1010600080918B0090918C002817390750F4809163
:101070009800909199000196909399008093980020
:1010800030C08091A4009091A500FC0109951092B8
:1010900099001092980080E00E94A60722C08091DB
:1010A0008D00882381F42CE530E0809192009091AE
:1010B0009300A0919400B0919500F901808381E0A4
:1010C00080938D000EC02CE530E080918E009091D1
:1010D0008F00A0919000B0919100F901808310924F
:1010E0008D0088E590E022E0FC0120830000DF9184
:1010F000CF91FF91EF91BF91AF919F918F917F9190
:101100006F915F914F913F912F910F9000925F00EF
:101110000F901F9018951F920F9200905F000F92F2
:1011200011242F933F934F935F936F937F938F93EC
:101130009F93AF93BF93EF93FF93CF93DF93CDB77D
:10114000DEB78091A6009091A700FC01099588E583
:1011500090E021E0FC0120830000DF91CF91FF911E
:10116000EF91BF91AF919F918F917F916F915F911F
:101170004F913F912F910F9000925F000F901F9021
:1011800018951F920F9200905F000F9211242F93D9
:101190003F934F935F936F937F938F939F93AF93FF
:1011A000BF93EF93FF93CF93DF93CDB7DEB78091DB
:1011B000A0009091A100FC01099588E590E024E051
:1011C000FC0120830000DF91CF91FF91EF91BF914F
:1011D000AF919F918F917F916F915F914F913F91CF
:1011E0002F910F9000925F000F901F9018951F9203
:1011F0000F9200905F000F9211242F933F934F9313
:101200005F936F937F938F939F93AF93BF93EF936E
:10121000FF93CF93DF93CDB7DEB78091A20090917B
:10122000A300FC01099588E590E020E4FC012083FF
:101230000000DF91CF91FF91EF91BF91AF919F910E
:101240008F917F916F915F914F913F912F910F906F
:1012500000925F000F901F9018951F920F920090C0
:101260005F000F9211242F933F934F935F936F93DF
:101270007F938F939F93AF93BF93EF93FF93CF93FE
:10128000DF93CDB7DEB780919E0090919F00FC0167
:10129000099588E590E020E2FC0120830000DF91C1
:1012A000CF91FF91EF91BF91AF919F918F917F91DE
:1012B0006F915F914F913F912F910F9000925F003E
:1012C0000F901F9018951F920F9200905F000F9241
:1012D00011242F933F938F939F93EF93FF93CF937B
:1012E000DF93CDB7DEB780919C0090919D002CE2FA
:1012F00030E0F9012081FC0120830000DF91CF91D3
:10130000FF91EF919F918F913F912F910F900092BC
:101310005F000F901F9018951F920F9200905F0032
:101320000F9211242F933F934F935F936F937F936B
:101330008F939F93AF93BF93EF93FF93CF93DF93DD
:10134000CDB7DEB780919A0090919B00FC01099582
:101350000000DF91CF91FF91EF91BF91AF919F91ED
:101360008F917F916F915F914F913F912F910F904E
:1013700000925F000F901F901895DB018F939F9351
:101380000E94040ABF91AF91A29F800D911DA39F5F
:10139000900DB29F900D11240895A1E21A2EAA1B60
:1013A000BB1BFD010DC0AA1FBB1FEE1FFF1FA21715
:1013B000B307E407F50720F0A21BB30BE40BF50B12
:1013C000661F771F881F991F1A9469F7609570959B
:1013D000809590959B01AC01BD01CF010895EE0F62
:1013E000FF1F0590F491E02D0994A29FB001B39FD7
:1013F000C001A39F700D811D1124911DB29F700D1E
:10140000811D1124911D08950E94F509A59F900D3D
:10141000B49F900DA49F800D911D11240895F89400
:02142000FFCFFC
:101422000109050100080040000001000401000854
:0C143200002000400080000001000400C9
:00000001FF
