:100000000C942A000C9447000C9447000C94470071
:100010000C9447000C9447000C9447000C94470044
:100020000C9447000C9447000C9447000C942B0C44
:100030000C9447000C94540C0C9447000C9447000B
:100040000C9447000C9447000C9447000C94470014
:100050000C94470011241FBECFE5D4E0DEBFCDBF16
:1000600010E0A0E6B0E0EEE0FCE102C005900D92E9
:10007000A438B107D9F720E0A4E8B0E001C01D9290
:10008000A838B207E1F70E940B0C0C94050E0C94F3
:100090000000CF93DF9300D01F92CDB7DEB78983E6
:1000A0006A834B838A81883008F0F5C18981882F63
:1000B00090E08130910509F486C0823091051CF4EE
:1000C000892B49F0E8C18230910509F4F4C0039707
:1000D00009F469C1E0C18B81882F90E081309105DE
:1000E00009F45BC08230910571F1892B09F06AC077
:1000F0008AE390E02AE330E0F9012081622F2A812F
:10010000422F50E021E030E002C0220F331F4A9519
:10011000E2F720952623FC0120838BE390E02BE37C
:1001200030E0F9012081622F2A81422F50E021E046
:1001300030E002C0220F331F4A95E2F720952623B4
:10014000FC0120833FC08AE390E02AE330E0F9011C
:100150002081622F2A81422F50E021E030E002C04E
:10016000220F331F4A95E2F720952623FC012083B6
:100170008BE390E02BE330E0F9012081622F2A81AC
:10018000422F50E021E030E002C0220F331F4A9599
:10019000E2F7262BFC01208315C08AE390E02AE3D6
:1001A00030E0F9012081622F2A81422F50E021E0C6
:1001B00030E002C0220F331F4A95E2F7262BFC01E4
:1001C0002083000068C18B81882F90E081309105E9
:1001D00009F45BC08230910571F1892B09F06AC086
:1001E00087E390E027E330E0F9012081622F2A8144
:1001F000422F50E021E030E002C0220F331F4A9529
:10020000E2F720952623FC01208388E390E028E391
:1002100030E0F9012081622F2A81422F50E021E055
:1002200030E002C0220F331F4A95E2F720952623C3
:10023000FC0120833FC087E390E027E330E0F90131
:100240002081622F2A81422F50E021E030E002C05D
:10025000220F331F4A95E2F720952623FC012083C5
:1002600088E390E028E330E0F9012081622F2A81C1
:10027000422F50E021E030E002C0220F331F4A95A8
:10028000E2F7262BFC01208315C087E390E027E3EB
:1002900030E0F9012081622F2A81422F50E021E0D5
:1002A00030E002C0220F331F4A95E2F7262BFC01F3
:1002B00020830000F0C08B81882F90E08130910571
:1002C00009F45BC08230910571F1892B09F06AC095
:1002D00084E390E024E330E0F9012081622F2A8159
:1002E000422F50E021E030E002C0220F331F4A9538
:1002F000E2F720952623FC01208385E390E025E3A7
:1003000030E0F9012081622F2A81422F50E021E064
:1003100030E002C0220F331F4A95E2F720952623D2
:10032000FC0120833FC084E390E024E330E0F90146
:100330002081622F2A81422F50E021E030E002C06C
:10034000220F331F4A95E2F720952623FC012083D4
:1003500085E390E025E330E0F9012081622F2A81D6
:10036000422F50E021E030E002C0220F331F4A95B7
:10037000E2F7262BFC01208315C084E390E024E300
:1003800030E0F9012081622F2A81422F50E021E0E4
:1003900030E002C0220F331F4A95E2F7262BFC0102
:1003A0002083000078C08B81882F90E081309105F8
:1003B00009F45BC08230910571F1892B09F06AC0A4
:1003C00081E390E021E330E0F9012081622F2A816E
:1003D000422F50E021E030E002C0220F331F4A9547
:1003E000E2F720952623FC01208382E390E022E3BC
:1003F00030E0F9012081622F2A81422F50E021E074
:1004000030E002C0220F331F4A95E2F720952623E1
:10041000FC0120833FC081E390E021E330E0F9015B
:100420002081622F2A81422F50E021E030E002C07B
:10043000220F331F4A95E2F720952623FC012083E3
:1004400082E390E022E330E0F9012081622F2A81EB
:10045000422F50E021E030E002C0220F331F4A95C6
:10046000E2F7262BFC01208315C081E390E021E315
:1004700030E0F9012081622F2A81422F50E021E0F3
:1004800030E002C0220F331F4A95E2F7262BFC0111
:1004900020830000000000000F900F900F90DF916C
:1004A000CF910895CF93DF9300D01F92CDB7DEB7E1
:1004B00089836A834B838A81883008F0E5C089810B
:1004C000882F90E08130910509F442C08230910577
:1004D0001CF4892B49F0D8C08230910509F46CC016
:1004E000039709F49DC0D0C08B81882F90E00097BE
:1004F000C1F0019709F02BC08BE390E02BE330E0D3
:10050000F9012081622F2A81422F50E021E030E062
:1005100002C0220F331F4A95E2F7262BFC012083ED
:1005200016C08BE390E02BE330E0F9012081622FCD
:100530002A81422F50E021E030E002C0220F331F19
:100540004A95E2F720952623FC01208300009CC0F9
:100550008B81882F90E00097C1F0019709F02BC0A4
:1005600088E390E028E330E0F9012081622F2A81BE
:10057000422F50E021E030E002C0220F331F4A95A5
:10058000E2F7262BFC01208316C088E390E028E3E5
:1005900030E0F9012081622F2A81422F50E021E0D2
:1005A00030E002C0220F331F4A95E2F72095262340
:1005B000FC012083000068C08B81882F90E00097A9
:1005C000C1F0019709F02BC085E390E025E330E00E
:1005D000F9012081622F2A81422F50E021E030E092
:1005E00002C0220F331F4A95E2F7262BFC0120831D
:1005F00016C085E390E025E330E0F9012081622F09
:100600002A81422F50E021E030E002C0220F331F48
:100610004A95E2F720952623FC012083000034C090
:100620008B81882F90E00097C1F0019709F02BC0D3
:1006300082E390E022E330E0F9012081622F2A81F9
:10064000422F50E021E030E002C0220F331F4A95D4
:10065000E2F7262BFC01208316C082E390E022E320
:1006600030E0F9012081622F2A81422F50E021E001
:1006700030E002C0220F331F4A95E2F7209526236F
:10068000FC0120830000000000000F900F900F90ED
:10069000DF91CF910895CF93DF93CDB7DEB7609709
:1006A0000FB6F894DEBF0FBECDBF988B8F878F85B6
:1006B0009889FC01828193810596FC0120818F85B8
:1006C0009889FC01828193810496FC01808141E03C
:1006D000622F0E9449008F859889FC018281938155
:1006E0000796FC0120818F859889FC018281938186
:1006F0000696FC01808141E0622F0E9449008F85AF
:100700009889FC01828193810996FC0120818F8563
:100710009889FC01828193810896FC01808141E0E7
:10072000622F0E9449008F859889FC018281938104
:100730000B96FC0120818F859889FC018281938131
:100740000A96FC01808141E0622F0E9449008F855A
:100750009889FC01828193810396FC0120818F8519
:100760009889FC01828193810296FC01808141E09D
:10077000622F0E9449008F859889FC0182819381B4
:100780000196FC0120818F859889FC0182819381EB
:10079000FC01808141E0622F0E9449008F85988989
:1007A00062E00E942A088F85988968E20E942A08E0
:1007B0008F85988961E00E942A088F8598896FE06B
:1007C0000E942A088F85988960E80E942A0880E0A4
:1007D00090E0A0E0B0E489839A83AB83BC8320E0FF
:1007E00030E04AE755E469817A818B819C810E94DF
:1007F000480DDC01CB018D839E83AF83B88720E059
:1008000030E040E85FE36D817E818F8198850E94B2
:10081000850C88232CF481E090E09A8789873FC07B
:1008200020E03FEF4FE757E46D817E818F8198850F
:100830000E94430D18164CF520E030E040E251E4F0
:1008400069817A818B819C810E94480DDC01CB01FA
:10085000BC01CD010E948A0CDC01CB019A878987FB
:100860000FC080E991E09C878B878B859C850197E1
:10087000F1F79C878B8789859A8501979A87898765
:1008800089859A85892B69F714C06D817E818F8156
:1008900098850E948A0CDC01CB019A87898789851B
:1008A0009A859E878D878D859E850197F1F79E8716
:1008B0008D87000060960FB6F894DEBF0FBECDBFE7
:1008C000DF91CF910895CF93DF93CDB7DEB7EB974C
:1008D0000FB6F894DEBF0FBECDBF9AAF89AF6BAF36
:1008E0008BAD82958F70382F317089AD9AADFC0138
:1008F000828193810596FC01208189AD9AADFC012E
:10090000828193810496FC018081432F622F0E9493
:1009100052028BAD829586958770382F317089ADE4
:100920009AADFC01828193810796FC01208189ADFB
:100930009AADFC01828193810696FC018081432F50
:10094000622F0E9452028BAD8295869586958370A8
:10095000382F317089AD9AADFC018281938109965F
:10096000FC01208189AD9AADFC01828193810896BA
:10097000FC018081432F622F0E9452028BAD382FE1
:10098000331F3327331F89AD9AADFC0182819381D8
:100990000B96FC01208189AD9AADFC018281938187
:1009A0000A96FC018081432F622F0E94520289AD7A
:1009B0009AADFC01828193810396FC01208189AD6F
:1009C0009AADFC01828193810296FC01808141E015
:1009D000622F0E94520289AD9AADFC0182819381FF
:1009E0000196FC01208189AD9AADFC018281938141
:1009F000FC01808141E0622F0E94520280E090E081
:100A0000A0E8BFE389839A83AB83BC8320E030E016
:100A10004AE755E469817A818B819C810E94480D67
:100A2000DC01CB018FA798ABA9ABBAAB20E030E0DB
:100A300040E85FE36FA578A989A99AA90E94850C6F
:100A400088232CF481E090E09CAB8BAB3FC020E08E
:100A50003FEF4FE757E46FA578A989A99AA90E94AB
:100A6000430D18164CF520E030E040E251E4698176
:100A70007A818B819C810E94480DDC01CB01BC01F5
:100A8000CD010E948A0CDC01CB019CAB8BAB0FC06B
:100A900080E991E09EAB8DAB8DA99EA90197F1F7FE
:100AA0009EAB8DAB8BA99CA901979CAB8BAB8BA903
:100AB0009CA9892B69F714C06FA578A989A99AA95F
:100AC0000E948A0CDC01CB019CAB8BAB8BA99CA94F
:100AD00098AF8FAB8FA998AD0197F1F798AF8FAB17
:100AE00089AD9AADFC01828193810196FC01208140
:100AF00089AD9AADFC0182819381FC01808140E047
:100B0000622F0E94520280E090E0A0EAB1E48D835F
:100B10009E83AF83B88720E030E04AE755E46D81DB
:100B20007E818F8198850E94480DDC01CB018DA3C9
:100B30009EA3AFA3B8A720E030E040E85FE36DA13B
:100B40007EA18FA198A50E94850C88232CF481E0BA
:100B500090E09AA789A73FC020E03FEF4FE757E416
:100B60006DA17EA18FA198A50E94430D18164CF58A
:100B700020E030E040E251E46D817E818F819885F4
:100B80000E94480DDC01CB01BC01CD010E948A0C02
:100B9000DC01CB019AA789A70FC080E991E09CA74F
:100BA0008BA78BA59CA50197F1F79CA78BA789A57F
:100BB0009AA501979AA789A789A59AA5892B69F76C
:100BC00014C06DA17EA18FA198A50E948A0CDC01A2
:100BD000CB019AA789A789A59AA59EA78DA78DA5C0
:100BE0009EA50197F1F79EA78DA78BAD382F317089
:100BF00089AD9AADFC01828193810596FC0120812B
:100C000089AD9AADFC01828193810496FC018081BB
:100C1000432F622F0E9452028BAD8695382F317080
:100C200089AD9AADFC01828193810796FC012081F8
:100C300089AD9AADFC01828193810696FC01808189
:100C4000432F622F0E9452028BAD86958695382FD6
:100C5000317089AD9AADFC01828193810996FC01C6
:100C6000208189AD9AADFC01828193810896FC01B7
:100C70008081432F622F0E9452028BAD869586950C
:100C80008695382F317089AD9AADFC0182819381B0
:100C90000B96FC01208189AD9AADFC018281938184
:100CA0000A96FC018081432F622F0E94520289AD77
:100CB0009AADFC01828193810396FC01208189AD6C
:100CC0009AADFC01828193810296FC01808141E012
:100CD000622F0E94520289AD9AADFC0182819381FC
:100CE0000196FC01208189AD9AADFC01828193813E
:100CF000FC01808141E0622F0E94520280E090E07E
:100D0000A0E8BFE389879A87AB87BC8720E030E003
:100D10004AE755E469857A858B859C850E94480D54
:100D2000DC01CB018B8F9C8FAD8FBE8F20E030E03C
:100D300040E85FE36B8D7C8D8D8D9E8D0E94850CD0
:100D400088232CF481E090E098A38F8F3FC020E0AF
:100D50003FEF4FE757E46B8D7C8D8D8D9E8D0E940C
:100D6000430D18164CF520E030E040E251E469856F
:100D70007A858B859C850E94480DDC01CB01BC01E6
:100D8000CD010E948A0CDC01CB0198A38F8F0FC08C
:100D900080E991E09AA389A389A19AA10197F1F72B
:100DA0009AA389A38F8D98A1019798A38F8F8F8D78
:100DB00098A1892B69F714C06B8D7C8D8D8D9E8DCC
:100DC0000E948A0CDC01CB0198A38F8F8F8D98A194
:100DD0009CA38BA38BA19CA10197F1F79CA38BA350
:100DE00089AD9AADFC01828193810196FC0120813D
:100DF00089AD9AADFC0182819381FC01808140E044
:100E0000622F0E94520280E090E0A0EAB1E48D8758
:100E10009E87AF87B88B20E030E04AE755E46D85C8
:100E20007E858F8598890E94480DDC01CB01898BD6
:100E30009A8BAB8BBC8B20E030E040E85FE36989A4
:100E40007A898B899C890E94850C88232CF481E007
:100E500090E09E8B8D8B3FC020E03FEF4FE757E443
:100E600069897A898B899C890E94430D18164CF5F3
:100E700020E030E040E251E46D857E858F859889E1
:100E80000E94480DDC01CB01BC01CD010E948A0CFF
:100E9000DC01CB019E8B8D8B0FC080E991E0988F98
:100EA0008F8B8F89988D0197F1F7988F8F8B8D8914
:100EB0009E8901979E8B8D8B8D899E89892B69F7E1
:100EC00014C069897A898B899C890E948A0CDC010B
:100ED000CB019E8B8D8B8D899E899A8F898F898D71
:100EE0009A8D0197F1F79A8F898F0000EB960FB6D4
:100EF000F894DEBF0FBECDBFDF91CF910895CF93A1
:100F0000DF9300D000D01F92CDB7DEB79B838A83DA
:100F10007D836C83198211C08981882F90E02C8198
:100F20003D81820F931FFC0120818A819B81622F6A
:100F30000E94630489818F5F89838981882F90E073
:100F40002C813D81820F931FFC018081882321F732
:100F500000000F900F900F900F900F90DF91CF91A6
:100F60000895CF93DF9300D000D01F92CDB7DEB7A6
:100F70009B838A836C834D8319828A819B81FC01C8
:100F800090818D818917C0F48A819B81FC019181B8
:100F90008C81891788F48D81982F9295990F990FDC
:100FA000907C8C81890F89838981806889838A817B
:100FB0009B8169810E942A0800000F900F900F907A
:100FC0000F900F90DF91CF910895CF93DF93CDB71E
:100FD000DEB727970FB6F894DEBF0FBECDBF9C8358
:100FE0008B837E836D834F831A828F81883040F597
:100FF0008F81880F880F880F8A838A8180648A8313
:101000008B819C816A810E942A08198211C0898182
:10101000882F90E02D813E81820F931FFC0120815B
:101020008B819C81622F0E94630489818F5F8983F9
:101030008981883060F38B819C8162E00E942A085C
:10104000000027960FB6F894DEBF0FBECDBFDF912C
:10105000CF910895CF93DF93CDB7DEB7EB970FB65F
:10106000F894DEBF0FBECDBF9AAF89AF6BAF8BAD2B
:1010700082958F70382F317089AD9AADFC018281D5
:1010800093810596FC01208189AD9AADFC01828196
:1010900093810496FC018081432F622F0E945202AB
:1010A0008BAD829586958770382F317089AD9AAD5A
:1010B000FC01828193810796FC01208189AD9AAD64
:1010C000FC01828193810696FC018081432F622F6F
:1010D0000E9452028BAD8295869586958370382F3B
:1010E000317089AD9AADFC01828193810996FC0132
:1010F000208189AD9AADFC01828193810896FC0123
:101100008081432F622F0E9452028BAD382F331FF4
:101110003327331F89AD9AADFC01828193810B96F1
:10112000FC01208189AD9AADFC01828193810A96F0
:10113000FC018081432F622F0E94520289AD9AAD3B
:10114000FC01828193810396FC01208189AD9AADD7
:10115000FC01828193810296FC01808140E0622F34
:101160000E94520289AD9AADFC0182819381019661
:10117000FC01208189AD9AADFC0182819381FC0143
:10118000808141E0622F0E94520280E090E0A0E85E
:10119000BFE389839A83AB83BC8320E030E04AE7D6
:1011A00055E469817A818B819C810E94480DDC0124
:1011B000CB018FA798ABA9ABBAAB20E030E040E8F9
:1011C0005FE36FA578A989A99AA90E94850C882355
:1011D0002CF481E090E09CAB8BAB3FC020E03FEF74
:1011E0004FE757E46FA578A989A99AA90E94430DF2
:1011F00018164CF520E030E040E251E469817A8134
:101200008B819C810E94480DDC01CB01BC01CD018A
:101210000E948A0CDC01CB019CAB8BAB0FC080E938
:1012200091E09EAB8DAB8DA99EA90197F1F79EAB86
:101230008DAB8BA99CA901979CAB8BAB8BA99CA96F
:10124000892B69F714C06FA578A989A99AA90E946A
:101250008A0CDC01CB019CAB8BAB8BA99CA998AF12
:101260008FAB8FA998AD0197F1F798AF8FAB89AD90
:101270009AADFC01828193810196FC01208189ADA8
:101280009AADFC0182819381FC01808140E0622F54
:101290000E94520280E090E0A0EAB1E48D839E8338
:1012A000AF83B88720E030E04AE755E46D817E8166
:1012B0008F8198850E94480DDC01CB018DA39EA3F0
:1012C000AFA3B8A720E030E040E85FE36DA17EA1C6
:1012D0008FA198A50E94850C88232CF481E090E0D2
:1012E0009AA789A73FC020E03FEF4FE757E46DA1E1
:1012F0007EA18FA198A50E94430D18164CF520E001
:1013000030E040E251E46D817E818F8198850E94BA
:10131000480DDC01CB01BC01CD010E948A0CDC012F
:10132000CB019AA789A70FC080E991E09CA78BA762
:101330008BA59CA50197F1F79CA78BA789A59AA5DA
:1013400001979AA789A789A59AA5892B69F714C03F
:101350006DA17EA18FA198A50E948A0CDC01CB0112
:101360009AA789A789A59AA59EA78DA78DA59EA5B1
:101370000197F1F79EA78DA78BAD382F317089ADFE
:101380009AADFC01828193810596FC01208189AD93
:101390009AADFC01828193810496FC018081432FE8
:1013A000622F0E9452028BAD8695382F317089AD25
:1013B0009AADFC01828193810796FC01208189AD61
:1013C0009AADFC01828193810696FC018081432FB6
:1013D000622F0E9452028BAD86958695382F317010
:1013E00089AD9AADFC01828193810996FC0120812F
:1013F00089AD9AADFC01828193810896FC018081C0
:10140000432F622F0E9452028BAD8695869586955A
:10141000382F317089AD9AADFC01828193810B9692
:10142000FC01208189AD9AADFC01828193810A96ED
:10143000FC018081432F622F0E94520289AD9AAD38
:10144000FC01828193810396FC01208189AD9AADD4
:10145000FC01828193810296FC01808140E0622F31
:101460000E94520289AD9AADFC018281938101965E
:10147000FC01208189AD9AADFC0182819381FC0140
:10148000808141E0622F0E94520280E090E0A0E85B
:10149000BFE389879A87AB87BC8720E030E04AE7C3
:1014A00055E469857A858B859C850E94480DDC0111
:1014B000CB018B8F9C8FAD8FBE8F20E030E040E85A
:1014C0005FE36B8D7C8D8D8D9E8D0E94850C8823B6
:1014D0002CF481E090E098A38F8F3FC020E03FEF95
:1014E0004FE757E46B8D7C8D8D8D9E8D0E94430D53
:1014F00018164CF520E030E040E251E469857A8529
:101500008B859C850E94480DDC01CB01BC01CD017F
:101510000E948A0CDC01CB0198A38F8F0FC080E959
:1015200091E09AA389A389A19AA10197F1F79AA3BF
:1015300089A38F8D98A1019798A38F8F8F8D98A1E4
:10154000892B69F714C06B8D7C8D8D8D9E8D0E94CB
:101550008A0CDC01CB0198A38F8F8F8D98A19CA35F
:101560008BA38BA19CA10197F1F79CA38BA389ADC1
:101570009AADFC01828193810196FC01208189ADA5
:101580009AADFC0182819381FC01808140E0622F51
:101590000E94520280E090E0A0EAB1E48D879E872D
:1015A000AF87B88B20E030E04AE755E46D857E8553
:1015B0008F8598890E94480DDC01CB01898B9A8B1D
:1015C000AB8BBC8B20E030E040E85FE369897A892F
:1015D0008B899C890E94850C88232CF481E090E003
:1015E0009E8B8D8B3FC020E03FEF4FE757E469892A
:1015F0007A898B899C890E94430D18164CF520E04E
:1016000030E040E251E46D857E858F8598890E94A7
:10161000480DDC01CB01BC01CD010E948A0CDC012C
:10162000CB019E8B8D8B0FC080E991E0988F8F8BC3
:101630008F89988D0197F1F7988F8F8B8D899E896F
:1016400001979E8B8D8B8D899E89892B69F714C09C
:1016500069897A898B899C890E948A0CDC01CB017B
:101660009E8B8D8B8D899E899A8F898F898D9A8D7E
:101670000197F1F79A8F898F0000EB960FB6F894D7
:10168000DEBF0FBECDBFDF91CF910895CF93DF9323
:10169000CDB7DEB765970FB6F894DEBF0FBECDBFEE
:1016A0009A8B898B6B8B5D8B4C8B89899A8940E0F7
:1016B0006CE670E00E94E50789899A8941E060E064
:1016C0000E94B1078B89882F90E082959295907F38
:1016D0009827807F982724E630E0B9010E94DD0D2D
:1016E000CB018B8B1A82198283C089899A8960E029
:1016F0000E9463048C899D89CC01A0E0B0E0BC010C
:10170000CD010E94B90CDC01CB018B839C83AD839E
:10171000BE8320E030E04AE755E46B817C818D8117
:101720009E810E94480DDC01CB018F839887A98799
:10173000BA8720E030E040E85FE36F8178858985F3
:101740009A850E94850C88232CF481E090E09C8788
:101750008B873FC020E03FEF4FE757E46F817885EC
:1017600089859A850E94430D18164CF520E030E0DB
:1017700040E251E46B817C818D819E810E94480D05
:10178000DC01CB01BC01CD010E948A0CDC01CB0144
:101790009C878B870FC080E991E09E878D878D8520
:1017A0009E850197F1F79E878D878B859C85019794
:1017B0009C878B878B859C85892B69F714C06F81EB
:1017C000788589859A850E948A0CDC01CB019C87EB
:1017D0008B878B859C85988B8F878F8598890197C0
:1017E000F1F7988B8F8789819A8101969A838983F3
:1017F0008B89282F30E089819A81821793070CF416
:1018000074CF000065960FB6F894DEBF0FBECDBF53
:10181000DF91CF910895CF93DF9300D000D0CDB763
:10182000DEB782E0898380E18A8380E690E09C8352
:101830008B83CE0101960E944B0364E770E0CE01DA
:1018400001960E947F0744EF51E064E6CE010196C5
:101850000E94460BFFCF1F920F9200905F000F92E5
:1018600011242F933F938F939F93EF93FF93CF93E5
:10187000DF93CDB7DEB780918600909187002CE290
:1018800030E0F9012081FC0120830000DF91CF913D
:10189000FF91EF919F918F913F912F910F90009227
:1018A0005F000F901F9018951F920F9200905F009D
:1018B0000F9211242F933F934F935F936F937F93D6
:1018C0008F939F93AF93BF93EF93FF93CF93DF9348
:1018D000CDB7DEB78091840090918500FC01099519
:1018E0000000DF91CF91FF91EF91BF91AF919F9158
:1018F0008F917F916F915F914F913F912F910F90B9
:1019000000925F000F901F9018950E94F60C08F44B
:1019100081E008950E94220D88F09F5798F0B92F1A
:101920009927B751B0F0E1F0660F771F881F991F14
:101930001AF0BA95C9F714C0B13091F00E943C0D6D
:10194000B1E008950C943C0D672F782F8827B85F7D
:1019500039F0B93FCCF3869577956795B395D9F76C
:101960003EF490958095709561957F4F8F4F9F4F76
:101970000895E89409C097FB3EF490958095709582
:1019800061957F4F8F4F9F4F9923A9F0F92F96E9CB
:10199000BB279395F695879577956795B795F11140
:1019A000F8CFFAF4BB0F11F460FF1BC06F5F7F4FDD
:1019B0008F4F9F4F16C0882311F096E911C07723EF
:1019C00021F09EE8872F762F05C0662371F096E8F8
:1019D000862F70E060E02AF09A95660F771F881FC7
:1019E000DAF7880F9695879597F90895990F00086B
:1019F000550FAA0BE0E8FEEF16161706E807F907E1
:101A0000C0F012161306E407F50798F0621B730B7B
:101A1000840B950B39F40A2661F0232B242B252BFC
:101A200021F408950A2609F4A140A6958FEF811D9F
:101A3000811D089557FD9058440F551F59F05F3F81
:101A400071F04795880F97FB991F61F09F3F79F0E0
:101A500087950895121613061406551FF2CF469562
:101A6000F1DF08C0161617061806991FF1CF8695E4
:101A70007105610508940895E894BB2766277727C8
:101A8000CB0197F908950E94F60C08F48FEF0895A2
:101A90000E945B0D0C94CC0D0E94BE0D38F00E948C
:101AA000C50D20F0952311F00C94B50D0C94BB0DD1
:101AB00011240C943D0D0E941A0D70F3959FC1F3F3
:101AC000950F50E0551F629FF001729FBB27F00DEC
:101AD000B11D639FAA27F00DB11DAA1F649F662741
:101AE000B00DA11D661F829F2227B00DA11D621F90
:101AF000739FB00DA11D621F839FA00D611D221F4A
:101B0000749F3327A00D611D231F849F600D211D2D
:101B1000822F762F6A2F11249F5750409AF0F1F0B0
:101B200088234AF0EE0FFF1FBB1F661F771F881F19
:101B300091505040A9F79E3F510580F00C94B50D8F
:101B40000C943D0D5F3FE4F3983ED4F38695779572
:101B50006795B795F795E7959F5FC1F7FE2B880FBF
:101B6000911D9695879597F9089597F99F6780E855
:101B700070E060E008959FEF80EC089500240A94DF
:101B80001616170618060906089500240A94121658
:101B90001306140605060895092E0394000C11F48B
:101BA000882352F0BB0F40F4BF2B11F460FF04C038
:101BB0006F5F7F4F8F4F9F4F089597FB072E16F44F
:101BC000009407D077FD09D00E94F10D07FC05D0E5
:101BD0003EF4909581959F4F0895709561957F4F44
:101BE0000895AA1BBB1B51E107C0AA1FBB1FA61764
:101BF000B70710F0A61BB70B881F991F5A95A9F7B6
:0E1C000080959095BC01CD010895F894FFCF1A
:101C0E000202020003040305030603071F1F1F1F22
:101C1E001F1F1F1F48492041626E61627920576164
:041C2E0069740000D5
:00000001FF
