:100000000C942A000C945A000C948B000C9447001A
:100010000C9447000C9447000C9447000C94470044
:100020000C9447000C9477070C944C050C943C08F6
:100030000C9447000C9465080C9447000C944700FE
:100040000C9447000C9447000C94BC000C94FC06E4
:100050000C94470011241FBECFE5D4E0DEBFCDBF16
:1000600010E0A0E6B0E0E8E0F5E102C005900D92F6
:10007000A236B107D9F720E0A2E6B0E001C01D9298
:10008000AD37B207E1F70E949F040C94820A0C94EA
:100090000000CF93DF93CDB7DEB78FE590E02FE57B
:1000A00030E0F90120812068FC0120830000DF910D
:1000B000CF9108951F920F9200905F000F9211242C
:1000C0002F933F934F935F936F937F938F939F9360
:1000D000AF93BF93EF93FF93CF93DF93CDB7DEB78B
:1000E0008091620090916300FC0109950000DF910E
:1000F000CF91FF91EF91BF91AF919F918F917F91A0
:100100006F915F914F913F912F910F9000925F00FF
:100110000F901F9018951F920F9200905F000F9202
:1001200011242F933F934F935F936F937F938F93FC
:100130009F93AF93BF93EF93FF93CF93DF93CDB78D
:10014000DEB78091640090916500FC010995000084
:10015000DF91CF91FF91EF91BF91AF919F918F91DF
:100160007F916F915F914F913F912F910F900092EE
:100170005F000F901F9018951F920F9200905F00E4
:100180000F9211242F933F934F935F936F937F931D
:100190008F939F93AF93BF93EF93FF93CF93DF938F
:1001A000CDB7DEB78091660090916700FC0109959C
:1001B0000000DF91CF91FF91EF91BF91AF919F919F
:1001C0008F917F916F915F914F913F912F910F9000
:1001D00000925F000F901F901895CF93DF93CDB7DB
:1001E000DEB78BE390E0FC0110828AE390E0FC0133
:1001F000108289E390E0FC01108288E390E0FC012A
:10020000108287E390E0FC01108286E390E0FC011D
:10021000108285E390E0FC01108284E390E0FC0111
:10022000108283E390E0FC01108282E390E0FC0105
:10023000108281E390E0FC01108280E390E0FC01F9
:1002400010820000DF91CF910895CF93DF9300D00B
:100250001F92CDB7DEB789836A834B838A8188304A
:1002600008F0F5C18981882F90E08130910509F46B
:1002700086C0823091051CF4892B49F0E8C1823098
:10028000910509F4F4C0039709F469C1E0C18B81B9
:10029000882F90E08130910509F45BC08230910590
:1002A00071F1892B09F06AC08AE390E02AE330E01B
:1002B000F9012081622F2A81422F50E021E030E0B5
:1002C00002C0220F331F4A95E2F720952623FC0136
:1002D00020838BE390E02BE330E0F9012081622F53
:1002E0002A81422F50E021E030E002C0220F331F6C
:1002F0004A95E2F720952623FC0120833FC08AE33C
:1003000090E02AE330E0F9012081622F2A81422F18
:1003100050E021E030E002C0220F331F4A95E2F79F
:1003200020952623FC0120838BE390E02BE330E033
:10033000F9012081622F2A81422F50E021E030E034
:1003400002C0220F331F4A95E2F7262BFC012083BF
:1003500015C08AE390E02AE330E0F9012081622FA2
:100360002A81422F50E021E030E002C0220F331FEB
:100370004A95E2F7262BFC012083000068C18B819F
:10038000882F90E08130910509F45BC0823091059F
:1003900071F1892B09F06AC087E390E027E330E030
:1003A000F9012081622F2A81422F50E021E030E0C4
:1003B00002C0220F331F4A95E2F720952623FC0145
:1003C000208388E390E028E330E0F9012081622F68
:1003D0002A81422F50E021E030E002C0220F331F7B
:1003E0004A95E2F720952623FC0120833FC087E34E
:1003F00090E027E330E0F9012081622F2A81422F2B
:1004000050E021E030E002C0220F331F4A95E2F7AE
:1004100020952623FC01208388E390E028E330E048
:10042000F9012081622F2A81422F50E021E030E043
:1004300002C0220F331F4A95E2F7262BFC012083CE
:1004400015C087E390E027E330E0F9012081622FB7
:100450002A81422F50E021E030E002C0220F331FFA
:100460004A95E2F7262BFC0120830000F0C08B8127
:10047000882F90E08130910509F45BC082309105AE
:1004800071F1892B09F06AC084E390E024E330E045
:10049000F9012081622F2A81422F50E021E030E0D3
:1004A00002C0220F331F4A95E2F720952623FC0154
:1004B000208385E390E025E330E0F9012081622F7D
:1004C0002A81422F50E021E030E002C0220F331F8A
:1004D0004A95E2F720952623FC0120833FC084E360
:1004E00090E024E330E0F9012081622F2A81422F3D
:1004F00050E021E030E002C0220F331F4A95E2F7BE
:1005000020952623FC01208385E390E025E330E05D
:10051000F9012081622F2A81422F50E021E030E052
:1005200002C0220F331F4A95E2F7262BFC012083DD
:1005300015C084E390E024E330E0F9012081622FCC
:100540002A81422F50E021E030E002C0220F331F09
:100550004A95E2F7262BFC012083000078C08B81AE
:10056000882F90E08130910509F45BC082309105BD
:1005700071F1892B09F06AC081E390E021E330E05A
:10058000F9012081622F2A81422F50E021E030E0E2
:1005900002C0220F331F4A95E2F720952623FC0163
:1005A000208382E390E022E330E0F9012081622F92
:1005B0002A81422F50E021E030E002C0220F331F99
:1005C0004A95E2F720952623FC0120833FC081E372
:1005D00090E021E330E0F9012081622F2A81422F4F
:1005E00050E021E030E002C0220F331F4A95E2F7CD
:1005F00020952623FC01208382E390E022E330E073
:10060000F9012081622F2A81422F50E021E030E061
:1006100002C0220F331F4A95E2F7262BFC012083EC
:1006200015C081E390E021E330E0F9012081622FE1
:100630002A81422F50E021E030E002C0220F331F18
:100640004A95E2F7262BFC01208300000000000001
:100650000F900F900F90DF91CF910895CF93DF937C
:1006600000D01F92CDB7DEB789836A834B838A811E
:10067000883008F0E5C08981882F90E081309105AD
:1006800009F442C0823091051CF4892B49F0D8C08E
:100690008230910509F46CC0039709F49DC0D0C065
:1006A0008B81882F90E00097C1F0019709F02BC053
:1006B0008BE390E02BE330E0F9012081622F2A8167
:1006C000422F50E021E030E002C0220F331F4A9554
:1006D000E2F7262BFC01208316C08BE390E02BE38E
:1006E00030E0F9012081622F2A81422F50E021E081
:1006F00030E002C0220F331F4A95E2F720952623EF
:10070000FC01208300009CC08B81882F90E0009723
:10071000C1F0019709F02BC088E390E028E330E0B6
:10072000F9012081622F2A81422F50E021E030E040
:1007300002C0220F331F4A95E2F7262BFC012083CB
:1007400016C088E390E028E330E0F9012081622FB1
:100750002A81422F50E021E030E002C0220F331FF7
:100760004A95E2F720952623FC012083000068C00B
:100770008B81882F90E00097C1F0019709F02BC082
:1007800085E390E025E330E0F9012081622F2A81A2
:10079000422F50E021E030E002C0220F331F4A9583
:1007A000E2F7262BFC01208316C085E390E025E3C9
:1007B00030E0F9012081622F2A81422F50E021E0B0
:1007C00030E002C0220F331F4A95E2F7209526231E
:1007D000FC012083000034C08B81882F90E00097BB
:1007E000C1F0019709F02BC082E390E022E330E0F2
:1007F000F9012081622F2A81422F50E021E030E070
:1008000002C0220F331F4A95E2F7262BFC012083FA
:1008100016C082E390E022E330E0F9012081622FEC
:100820002A81422F50E021E030E002C0220F331F26
:100830004A95E2F720952623FC0120830000000062
:1008400000000F900F900F90DF91CF910895CF93FC
:10085000DF9300D0CDB7DEB789836A838A81883081
:1008600008F067C08981882F90E08130910511F1EF
:10087000823091051CF4892B41F05BC082309105D8
:1008800071F1039709F440C054C08BE390E02BE36F
:1008900030E0F9012081622F2A81422F50E021E0CF
:1008A00030E002C0220F331F4A95E2F72627FC01F1
:1008B00020833FC088E390E028E330E0F901208105
:1008C000622F2A81422F50E021E030E002C0220F47
:1008D000331F4A95E2F72627FC0120832AC085E3CF
:1008E00090E025E330E0F9012081622F2A81422F38
:1008F00050E021E030E002C0220F331F4A95E2F7BA
:100900002627FC01208315C082E390E022E330E03B
:10091000F9012081622F2A81422F50E021E030E04E
:1009200002C0220F331F4A95E2F72627FC012083DD
:10093000000000000F900F90DF91CF910895CF93AA
:10094000DF93CDB7DEB72E970FB6F894DEBF0FBE9C
:10095000CDBF0E94ED0080E690E00E947D0541E061
:1009600060E082E00E94250141E060E082E00E94B8
:100970002E0380E090E0AAEFB4E489839A83AB83EE
:10098000BC8320E030E04AE755E469817A818B81BD
:100990009C810E94F309DC01CB018D839E83AF8390
:1009A000B88720E030E040E85FE36D817E818F8191
:1009B00098850E94960888232CF481E090E09A871D
:1009C00089873FC020E03FEF4FE757E46D817E818C
:1009D0008F8198850E94EE0918164CF520E030E0D2
:1009E00040E251E469817A818B819C810E94F30904
:1009F000DC01CB01BC01CD010E940D09DC01CB0162
:100A00009A8789870FC080E991E09C878B878B85C7
:100A10009C850197F1F79C878B8789859A8501973B
:100A20009A87898789859A85892B69F714C06D8192
:100A30007E818F8198850E940D09DC01CB019A8708
:100A4000898789859A859E878D878D859E85019763
:100A5000F1F79E878D8740E060E082E00E942E03E0
:100A600061E080E00E94190640E455E068EE73E022
:100A700080E00E944E060E94E2050E944900FFCFDE
:100A8000CF93DF93CDB7DEB760E082E00E9427040A
:100A90000000DF91CF9108951F920F9200905F00A8
:100AA0000F9211242F933F934F935F936F937F93F4
:100AB0008F939F93AF93BF93EF93FF93CF93DF9366
:100AC000CDB7DEB78091680090916900FC0109956F
:100AD0000000DF91CF91FF91EF91BF91AF919F9176
:100AE0008F917F916F915F914F913F912F910F90D7
:100AF00000925F000F901F901895CF93DF9300D066
:100B0000CDB7DEB79A83898389819A81892B09F4CD
:100B100053C083E590E0FC01108289819A81909313
:100B20006B0080936A0083E590E023E530E0F901F3
:100B3000408120916A0030916B00F9012081242BC3
:100B4000FC01208380916A0090916B00FC018181FF
:100B5000882F90E082309105D1F0833091052CF4FC
:100B6000009749F0019761F027C084309105B1F0FA
:100B70000597D9F021C010926D0010926C001CC036
:100B800081E090E090936D0080936C0015C088E048
:100B900090E090936D0080936C000EC080E091E037
:100BA00090936D0080936C0007C080E094E0909378
:100BB0006D0080936C00000000000F900F90DF919B
:100BC000CF910895CF93DF93CDB7DEB780916A00C0
:100BD00090916B00892BC1F083E590E023E530E034
:100BE000F9012081287FFC01208383E590E023E543
:100BF00030E0F901408120916A0030916B00F901E9
:100C00002181242BFC0120830000DF91CF910895E6
:100C1000CF93DF93CDB7DEB783E590E023E530E0F7
:100C2000F9012081287FFC0120830000DF91CF9112
:100C30000895CF93DF9300D0CDB7DEB789836A8361
:100C40008981882F90E081309105F9F082309105FB
:100C5000F1F0892B09F01CC089E590E029E530E02E
:100C6000F90120812D7FFC01208389E590E029E5B1
:100C700030E0F9012081422F2A81222F30E0220F1B
:100C8000331F242BFC01208303C0000001C000009F
:100C900000000F900F90DF91CF910895CF93DF93D5
:100CA000CDB7DEB72F970FB6F894DEBF0FBECDBF1E
:100CB0008B877D876C875F874E8781E080936E008E
:100CC0008B85882F90E08130910509F484C08230B3
:100CD000910509F482C0892B09F080C08E859F851B
:100CE000909378008093770019821A821B821C826D
:100CF0001D821E821F8218861A86198680E090E067
:100D0000AAE7B6E489839A83AB83BC8380916C00A5
:100D100090916D00CC01A0E0B0E0BC01CD010E943B
:100D20003C09DC01CB019C01AD0169817A818B8199
:100D30009C810E949B08DC01CB0189839A83AB8351
:100D4000BC838C859D85CC01A0E0B0E0BC01CD01C9
:100D50000E943C09DC01CB019C01AD0169817A81D3
:100D60008B819C810E94F309DC01CB0189839A83EA
:100D7000AB83BC8369817A818B819C810E940D0940
:100D8000DC01CB018D839E83AF83B8878D819E81EB
:100D9000AF81B8854FEF50E0BC01CD010E94AD0797
:100DA0009A87898789859A859C0140E050E08D81EA
:100DB0009E81AF81B885BC01CD010E94600ADA0135
:100DC000C9019093700080936F008CE590E02985B5
:100DD000FC01208303C0000001C0000061E08B859E
:100DE0000E94190600002F960FB6F894DEBF0FBEC2
:100DF000CDBFDF91CF9108951F920F9200905F00B9
:100E00000F9211242F933F934F935F936F937F9390
:100E10008F939F93AF93BF93EF93FF93CF93DF9302
:100E2000CDB7DEB780916E00882331F580917B00CD
:100E300090917C00FC010995209171003091720025
:100E400080916F00909170002817390750F48091BD
:100E500071009091720001969093720080937100DE
:100E60002CC080917B0090917C00FC010995109230
:100E700072001092710021C02091710030917200B7
:100E800080916F00909170002817390750F480917D
:100E9000710090917200019690937200809371009E
:100EA0000CC08091770090917800FC010995109218
:100EB0007200109271000E94080688E590E022E01E
:100EC000FC0120830000DF91CF91FF91EF91BF9152
:100ED000AF919F918F917F916F915F914F913F91D2
:100EE0002F910F9000925F000F901F9018951F9206
:100EF0000F9200905F000F9211242F933F934F9316
:100F00005F936F937F938F939F93AF93BF93EF9371
:100F1000FF93CF93DF93CDB7DEB7809179009091A7
:100F20007A00FC01099588E590E021E0FC0120832E
:100F30000000DF91CF91FF91EF91BF91AF919F9111
:100F40008F917F916F915F914F913F912F910F9072
:100F500000925F000F901F9018950F931F93CF93EF
:100F6000DF93CDB7DEB7E3970FB6F894DEBF0FBEC1
:100F7000CDBF6EA77FA788AB99AB5BAB4AAB1A829C
:100F800019821B828AA99BA944979A83898327C0C7
:100F90008B81082F10E089819A819C0140E050E00C
:100FA0008EA59FA5A8A9B9A9BC01CD010E94600A80
:100FB000DC01CB01AC01C801880F991F9E012F5F96
:100FC0003F4F820F931F0596FC01518340838B8115
:100FD0008F5F8B8389819A8101969A838983298186
:100FE0003A818AA99BA98217930790F68E819F81E7
:100FF0009D838C831A82198228C089819A81880FE7
:10100000991F9E012F5F3F4F820F931F0596FC0192
:10101000208131818C819D812817390788F489814D
:101020009A81880F991F9E012F5F3F4F820F931F58
:101030000596FC01808191819D838C8389818B83BE
:1010400089819A8101969A83898389819A814497BB
:10105000A0F28B81282F30E08AA99BA9820F931FD1
:101060004497E3960FB6F894DEBF0FBECDBFDF9175
:10107000CF911F910F9108951F920F9200905F00E2
:101080000F9211242F933F938F939F93EF93FF938E
:10109000CF93DF93CDB7DEB7809175009091760046
:1010A0002CE230E0F9012081FC0120830000DF9177
:1010B000CF91FF91EF919F918F913F912F910F9041
:1010C00000925F000F901F9018951F920F92009052
:1010D0005F000F9211242F933F934F935F936F9371
:1010E0007F938F939F93AF93BF93EF93FF93CF9390
:1010F000DF93CDB7DEB78091730090917400FC014F
:1011000009950000DF91CF91FF91EF91BF91AF91D1
:101110009F918F917F916F915F914F913F912F910F
:101120000F9000925F000F901F9018950E94790910
:1011300008F481E008950E94AF080C94B4090E945D
:10114000AD0958F00E94A60940F029F45F3F29F04C
:101150000C949D0951110C94E8090C94A3090E9468
:10116000C50968F39923B1F3552391F3951B550BEA
:10117000BB27AA2762177307840738F09F5F5F4F6A
:10118000220F331F441FAA1FA9F335D00E2E3AF0A9
:10119000E0E832D091505040E695001CCAF72BD0C1
:1011A000FE2F29D0660F771F881FBB1F2617370712
:1011B0004807AB07B0E809F0BB0B802DBF01FF2744
:1011C00093585F4F3AF09E3F510578F00C949D097B
:1011D0000C94E8095F3FE4F3983ED4F38695779545
:1011E0006795B795F7959F5FC9F7880F911D9695FD
:1011F000879597F90895E1E0660F771F881FBB1F59
:10120000621773078407BA0720F0621B730B840B05
:10121000BA0BEE1F88F7E09508950E94CD0988F07B
:101220009F5798F0B92F9927B751B0F0E1F0660FAA
:10123000771F881F991F1AF0BA95C9F714C0B130EB
:1012400091F00E94E709B1E008950C94E709672F37
:10125000782F8827B85F39F0B93FCCF3869577951A
:101260006795B395D9F73EF4909580957095619503
:101270007F4F8F4F9F4F0895E89409C097FB3EF42E
:1012800090958095709561957F4F8F4F9F4F9923D3
:10129000A9F0F92F96E9BB279395F6958795779551
:1012A0006795B795F111F8CFFAF4BB0F11F460FF11
:1012B0001BC06F5F7F4F8F4F9F4F16C0882311F069
:1012C00096E911C0772321F09EE8872F762F05C07D
:1012D000662371F096E8862F70E060E02AF09A9518
:1012E000660F771F881FDAF7880F9695879597F90D
:1012F0000895990F0008550FAA0BE0E8FEEF1616A7
:101300001706E807F907C0F012161306E407F507F9
:1013100098F0621B730B840B950B39F40A2661F06D
:10132000232B242B252B21F408950A2609F4A14010
:10133000A6958FEF811D811D089597F99F6780E81D
:1013400070E060E008959FEF80EC089500240A9417
:101350001616170618060906089500240A94121690
:101360001306140605060895092E0394000C11F4C3
:10137000882352F0BB0F40F4BF2B11F460FF04C070
:101380006F5F7F4F8F4F9F4F089557FD9058440FC9
:10139000551F59F05F3F71F04795880F97FB991FD4
:1013A00061F09F3F79F08795089512161306140691
:1013B000551FF2CF4695F1DF08C01616170618061E
:1013C000991FF1CF86957105610508940895E894F9
:1013D000BB2766277727CB0197F908950E947909E3
:1013E00008F48FEF08950E94060A0C94B4090E9435
:1013F000A60938F00E94AD0920F0952311F00C9455
:101400009D090C94A30911240C94E8090E94C509B4
:1014100070F3959FC1F3950F50E0551F629FF00147
:10142000729FBB27F00DB11D639FAA27F00DB11D60
:10143000AA1F649F6627B00DA11D661F829F2227E9
:10144000B00DA11D621F739FB00DA11D621F839F70
:10145000A00D611D221F749F3327A00D611D231F46
:10146000849F600D211D822F762F6A2F11249F5794
:1014700050409AF0F1F088234AF0EE0FFF1FBB1F97
:10148000661F771F881F91505040A9F79E3F510556
:1014900080F00C949D090C94E8095F3FE4F3983EBA
:1014A000D4F3869577956795B795F795E7959F5F00
:1014B000C1F7FE2B880F911D9695879597F9089592
:1014C000A1E21A2EAA1BBB1BFD010DC0AA1FBB1F48
:1014D000EE1FFF1FA217B307E407F50720F0A21BBA
:1014E000B30BE40BF50B661F771F881F991F1A9427
:1014F00069F760957095809590959B01AC01BD0151
:08150000CF010895F894FFCF1C
:021508000801D8
:00000001FF
