:020000040800F2
:1000000000280020DD1200082D130008E30100087D
:10001000E9010008EF010008F501000800000000F8
:10002000000000000000000000000000FB010008CC
:100030002D1300080000000011080008BD10000882
:100040002D1300082D1300082D1300082D13000890
:100050002D1300082D130008C90A0008ED0A000836
:10006000110B0008350B0008590B00082D13000870
:100070002D1300082D1300082D1300082D13000860
:100080002D1300082D1300082D1300082D13000850
:100090002D1300082D1300082D1300082D13000840
:1000A0002D1300082D1300082D1300082D13000830
:1000B0002D1300082D1300082D1300082D13000820
:1000C0002D1300082D1300082D1300082D13000810
:1000D0002D130008091100084111000879110008CA
:1000E0002D1300082D130008000000002D13000838
:1000F0002D1300082D1300082D1300082D130008E0
:100100002D1300082D1300082D1300082D130008CF
:100110002D1300082D1300082D1300082D130008BF
:100120002D1300082D1300082D1300082D130008AF
:1001300010B5054C237833B9044B13B10448AFF321
:1001400000800123237010BD00000020000000008B
:100150007813000808B5034B1BB103490348AFF3FC
:10016000008008BD00000000040000207813000893
:1001700080B500AF00F046FF00F054FF034BFF22B4
:100180001A60034B00221A6000BF80BD22ED00E020
:1001900023ED00E080B582B000AF786000F050FF42
:1001A00079684FF47A6000F059FF00BF0837BD4608
:1001B00080BD80B483B000AF0346FB71FB79012B97
:1001C00006D0022B06D0002B00D005E000DF03E0B4
:1001D00001DF01E002DF00BF00BF0C37BD4680BC7D
:1001E000704780B400AFFEE780B400AFFEE780B494
:1001F00000AFFEE780B400AFFEE71EF0040F0CBFB7
:10020000EFF30880EFF3098000F0E2BB00BF80B499
:1002100083B000AF78607B6800221A607B680022A0
:100220005A607B6800229A60002318460C37BD464E
:1002300080BC704780B483B000AF786039603B68A1
:100240009B68052B01DD012320E03B681968124BF8
:1002500083FB0132CB17D21A13465B0013445B00B9
:10026000CA1A3B681A603B681B683A6802339B00F5
:1002700013447A685A603B681B685A1C3B681A60D2
:100280003B689B685A1C3B689A60002318460C37F1
:10029000BD4680BC704700BFABAAAA2A80B483B019
:1002A00000AF786039603B689B68002B01D1022366
:1002B00021E03B685968124B83FB0132CB17D21AFD
:1002C00013465B0013445B00CA1A3B685A603B68E4
:1002D0005B683A6802339B0013445A687B681A6073
:1002E0003B685B685A1C3B685A603B689B685A1EB7
:1002F0003B689A60002318460C37BD4680BC7047A7
:10030000ABAAAA2A80B483B000AF78607B689B68F0
:10031000DBB218460C37BD4680BC704780B483B052
:1003200000AF0023FB710D4A0D4B1A600C4B1B688C
:10033000A3F540630A4A5360094B5B68094A93423C
:1003400001D20123FB71064B5B68043B044A9360B6
:10035000FB7918460C37BD4680BC7047002800204A
:100360001C0000208003002080B400AF20BFFDE708
:1003700080B582B000AF0023FB71FFF7F9FE124B8E
:1003800000221A73FFF7CAFF0346FB710F48FFF7FD
:100390003EFF0346FB71FB79002B01D00223FB716A
:1003A0000B4BFF221A700A4B00221A72084B094AA3
:1003B000DA60074800F010F80346FB71FB79184635
:1003C0000837BD4680BD00BF1C000020E4000020AF
:1003D000500000206903000880B487B000AF786047
:1003E0000023FB75394B9A687B685A617B685A69B0
:1003F0007B685B68D31AA3F184027B689A617B688F
:100400009B69334A934201D20123FB757B689B6948
:10041000043B2E4A93607B683B610023FB733B697E
:100420005B691A463B69DA613B69DB691A1F3B6904
:10043000DA613B69DB694FF080721A603B69DB6906
:100440001A1F3B69DA613B69DA683B69DB691A604C
:100450003B69DB691A1F3B69DA613B69DB696FF055
:1004600002021A600023FB730BE03B69DB691A1F71
:100470003B69DA613B69DB6900221A60FB7B01336F
:10048000FB73FB7B0C2BF0D9104B93F83030062B11
:1004900013D80E4B93F830300C4904337A6841F886
:1004A00023200A4B93F830300133DAB2074B83F83C
:1004B00030207B6800221A7401E00323FB75FB7D6A
:1004C00018461C37BD4680BC704700BF1C0000208A
:1004D0008003002080B584B000AF78600423FB73F4
:1004E0007B68002B08D00023FB737B6802221A7400
:1004F0000020FFF75EFE01E00423FB73FB7B184640
:100500001037BD4680BD80B584B000AF78603960DB
:100510000023FB737B6800221A747B68012283F836
:1005200020207B683A685A620120FFF742FEFB7B7D
:1005300018461037BD4680BD80B582B000AF00239D
:10054000FB71124B01221A73104B114A9A620F4B26
:100550009B6ADB693B603B6883F309880C48FFF7C3
:10056000B9FF0C48FFF716FEEFF3148040F00200CD
:1005700080F31488012000F0CFFC044B9B6ADB68F9
:100580009847FB7918460837BD4680BD1C000020FF
:1005900050000020210A000880B485B000AF7860C8
:1005A0000023FB730B4B1B68012B0BD8094B1B68FB
:1005B0000133084A1360074B1B6807497A6841F802
:1005C000232001E00523FB73FB7B18461437BD464F
:1005D00080BC7047800000207800002080B485B087
:1005E00000AF78600023FB73124B1B68002B18D000
:1005F000104B9B6801330F4A93600E4B9B68002B96
:1006000002D00C4B01229A600A4B9B680A4A52F8AE
:1006100023207B681A60074B1B68013B054A136067
:1006200001E00523FB73FB7B18461437BD4680BCF5
:10063000704700BF800000207800002080B586B0A1
:1006400000AF00233B610023FB600023FB75002308
:10065000FB7200237B600023FB7232E0FB7AFB70AD
:100660001AE0FB783A4A043352F823307B60FB7877
:100670005A1EFB783649043251F82220344904339B
:1006800041F82320FB78013B314904337A6841F873
:100690002320FB78013BFB70FB78002B0ED0FB780E
:1006A0002B4A043352F823301A7AFB78013B28494D
:1006B000043351F823301B7A9A42D2D8FB7A0133A3
:1006C000FB72234B93F83030FA7A9A42C6D3214812
:1006D000FFF79DFD0023FB752EE0FB7D1C4A0433D4
:1006E00052F823303B61FB7D0133194A043352F841
:1006F0002330FB603B691B7C002B1AD03B691A7AC4
:10070000FB681B7A9A4207D912493869FFF792FDB4
:100710003B6903221A7417E03B691A7AFB681B7A5B
:100720009A4210D10B493869FFF784FD3B690322D7
:100730001A74FB7D0133FB75054B93F83030FA7D5D
:100740009A42CAD300E000BF00BF1837BD4680BD43
:100750001C000020E400002080B582B000AF2948D2
:10076000FFF7D0FD0346BB710023FB7100233B6004
:10077000BB79002B03D1244B244ADA623EE0BB79DB
:10078000012B14D13B461F491846FFF787FD3B68F4
:100790001B7C002B07D03B681B4AD3621A4BDB6AD9
:1007A00001221A742AE0184B184ADA6226E0002364
:1007B000FB7111E03B4613491846FFF76FFD124BE2
:1007C0009A6A3B689A420CD03B680E491846FFF77C
:1007D00031FDFB790133FB71FA79BB799A42E9D398
:1007E00000E000BF3B4607491846FFF757FD3B684E
:1007F000054AD362044BDB6A01221A7400BF083732
:10080000BD4680BDE40000201C00002050000020F8
:1008100072B60024EFF309831C4622466B4B9B6A99
:10082000DA616A4B9B6ADA69684B9B6A043ADA615F
:10083000664B9B6ADB6922461A60644B9B6ADA69E5
:10084000624B9B6A043ADA61604B9B6ADB692A4619
:100850001A605E4B9B6ADA695C4B9B6A043ADA6108
:100860005A4B9B6ADB6932461A60584B9B6ADA69BD
:10087000564B9B6A043ADA61544B9B6ADB693A46F1
:100880001A60524B9B6ADA69504B9B6A043ADA61F0
:100890004E4B9B6ADB6942461A604C4B9B6ADA6995
:1008A0004A4B9B6A043ADA61484B9B6ADB694A46C9
:1008B0001A60464B9B6ADA69444B9B6A043ADA61D8
:1008C000424B9B6ADB6952461A60404B9B6ADA696D
:1008D0003E4B9B6A043ADA613C4B9B6ADB695A46A1
:1008E0001A603A4BDB6A002B06D0384BDB6A374A7A
:1008F0009362364B0022DA62344B9B6ADB691B68D9
:100900009B46324B9B6ADA69304B9B6A0432DA6150
:100910002E4B9B6ADB691B689A462C4B9B6ADA69F3
:100920002A4B9B6A0432DA61284B9B6ADB691B689D
:100930009946264B9B6ADA69244B9B6A0432DA613A
:10094000224B9B6ADB691B689846204B9B6ADA69DD
:100950001E4B9B6A0432DA611C4B9B6ADB691B6885
:100960001F461A4B9B6ADA69184B9B6A0432DA619C
:10097000164B9B6ADB691B681E46144B9B6ADA693F
:10098000124B9B6A0432DA61104B9B6ADB691B686D
:100990001D460E4B9B6ADA690C4B9B6A0432DA6186
:1009A0000A4B9B6ADB691B681C46084B9B6ADA6929
:1009B000064B9B6A0432DA61044B9B6ADB691C4676
:1009C00084F3098862B6704700BF00BF1C00002096
:1009D00080B584B000AF78607B6818331B68023B39
:1009E0001B78FB73FB7B0033022B0FD8FFF726FE2F
:1009F0000A4B1B7B012B0BD1084B9B6A1B78FF2BEF
:100A000006D0FFF7A9FE00F0EFFA01E000BF00E01A
:100A100000BF00BF1037BD4680BD00BF1C000020D6
:100A200080B582B000AF264B1B680133244A1360A7
:100A30000023FB710023FB7132E0FB79214A043370
:100A400052F823301B7C002B27D1FB791D4A04333D
:100A500052F8233093F82030012B1ED1FB79194A2C
:100A6000043352F823305A6A013A5A62FB79154A24
:100A7000043352F823305B6A002B0ED1FB79114A04
:100A8000043352F82330002283F82020FB790D4AEA
:100A9000043352F8233002221A74FB790133FB71BC
:100AA000084B93F83030FA799A42C6D3FFF7C6FD67
:100AB000FFF752FE00F098FA00BF0837BD4680BD30
:100AC000200100201C00002080B500AF054B1B68F2
:100AD0009847054B5B69044A43F00103536100BF2B
:100AE00080BD00BF8C0000200004014080B500AF35
:100AF000054B5B689847054B5B69044A43F002036A
:100B0000536100BF80BD00BF8C0000200004014085
:100B100080B500AF054B9B689847054B5B69044A5D
:100B200043F00403536100BF80BD00BF8C00002070
:100B30000004014080B500AF054BDB689847054BCA
:100B40005B69044A43F00803536100BF80BD00BFE6
:100B50008C0000200004014080B500AF054B1B69EC
:100B60009847054B5B69044A43F01003536100BF8B
:100B700080BD00BF8C0000200004014080B483B021
:100B800000AF0346FB710B46BB7113467B71FB79CB
:100B9000032B3ED0042B75D0022B00D0A9E0BB79EB
:100BA000072B17D8554B1B68BA7992000F2101FA11
:100BB00002F2D2431146514A0B4013604F4B1B685F
:100BC0007979BA79920001FA02F211464B4A0B4345
:100BD000136089E0BB790F2B00F28680BB79083B5C
:100BE000BB71464B5B68BA7992000F2101FA02F2A1
:100BF000D2431146414A0B405360404B5B687979C0
:100C0000BA79920001FA02F211463C4A0B43536052
:100C10006AE0BB79072B17D8394B1B68BA79920069
:100C20000F2101FA02F2D2431146354A0B401360FC
:100C3000334B1B687979BA79920001FA02F21146B6
:100C40002F4A0B43136051E0BB790F2B4ED8BB7971
:100C5000083BBB712A4B5B68BA7992000F2101FAFD
:100C600002F2D2431146264A0B405360244B5B6884
:100C70007979BA79920001FA02F21146204A0B43BF
:100C8000536033E0BB79072B10D81E4B1B681D4BFC
:100C900000221A601B4B1B687979BA79920001FA1D
:100CA00002F21146174A0B43136021E0BB790F2B68
:100CB0001ED8BB79083BBB71124B5B68BA799200B6
:100CC0000F2101FA02F2D24311460E4A0B40536043
:100CD0000C4B5B687979BA79920001FA02F21146FD
:100CE000084A0B43536003E000BF02E000BF00E08E
:100CF00000BF00BF0C37BD4680BC704700080140F4
:100D0000000C01400010014080B483B000AF0346E6
:100D1000FB710B46BB7113467B71FB79032B17D01C
:100D2000042B28D0022B00D038E07B79002B08D090
:100D3000012B00D00BE0BB7901229A401A4B1A61BB
:100D400005E0BB7901229A40174B5A6100BF25E0AC
:100D50007B79002B08D0012B00D00BE0BB7901225E
:100D60009A40124B1A6105E0BB7901229A400F4B61
:100D70005A6100BF12E07B79002B08D0012B00D014
:100D80000BE0BB7901229A40094B1A6105E0BB795F
:100D900001229A40064B5A6100BF00BF00BF0C37CA
:100DA000BD4680BC704700BF00080140000C0140F8
:100DB0000010014080B485B000AF03460A46FB71C5
:100DC0001346BB710023FB73FB79032B0ED0042B5E
:100DD00016D0022B00D01DE0114B9A68BB7922FA85
:100DE00003F3DBB203F00103FB7313E00D4B9A68CE
:100DF000BB7922FA03F3DBB203F00103FB7309E0D2
:100E0000094B9A68BB7922FA03F3DBB203F00103C2
:100E1000FB7300BFFB7B18461437BD4680BC704790
:100E200000080140000C01400010014080B483B074
:100E300000AF0346FB710B46BB7113467B71FB7918
:100E4000032B22D0042B3ED0022B00D059E07B791B
:100E5000002B02D0012B0CD016E02C4BDB68BA79AA
:100E6000012101FA02F2D2431146284A0B40D36015
:100E70000AE0264BDB68BA79012101FA02F2114639
:100E8000224A0B43D36000BF3BE07B79002B02D0AA
:100E9000012B0CD016E01E4BDB68BA79012101FA58
:100EA00002F2D24311461A4A0B40D3600AE0184BB3
:100EB000DB68BA79012101FA02F21146144A0B43A8
:100EC000D36000BF1DE07B79002B02D0012B0CD03A
:100ED00016E0104BDB68BA79012101FA02F2D24325
:100EE00011460C4A0B40D3600AE00A4BDB68BA7922
:100EF000012101FA02F21146064A0B43D36000BFFA
:100F000000BF00BF0C37BD4680BC704700080140E1
:100F1000000C0140001001400023012200B51946D9
:100F20001246814202BFEFF314836FF3000383F391
:100F300014881EBFEFF3148343F0010383F3148876
:100F400000BD00BF80B400AF054B4FF480321A6083
:100F5000044B01221A6000BFBD4680BC704700BF31
:100F6000001002400410024080B483B000AF03467A
:100F70000A46FB711346BB71BB791F2B28D8FB793E
:100F8000012B0FD0022B18D0002B00D020E0134BE8
:100F90001B68BA79012101FA02F211460F4A0B438C
:100FA000136015E00E4B1B68BA79012101FA02F2B9
:100FB00011460B4A0B4313600AE00A4B1B68BA79CF
:100FC000012101FA02F21146064A0B43136000BFE9
:100FD00000BF0C37BD4680BC704700BF14100240F4
:100FE0001C1002401810024080B400AF044B1B6874
:100FF000034A43F08053136000BFBD4680BC704776
:1010000004ED00E080B400AF054B00221A60044BF1
:10101000034A1B68136000BFBD4680BC704700BF19
:1010200010E000E080B400AF044B1B68034A23F0DB
:101030000103136000BFBD4680BC704710E000E0B4
:1010400080B400AF044B1B68034A43F001031360F4
:1010500000BFBD4680BC704710E000E080B483B0A4
:1010600000AF786039607B68B3F1807F1AD2104B93
:101070001B680F4A23F0010313600D4A7B6853601D
:101080000B4B1B680A4A43F001031360094A3B6893
:101090001360094B00221A70054B1B68044A43F089
:1010A0000203136000BF0C37BD4680BC704700BF11
:1010B00010E000E0CC0000202401002080B500AF4B
:1010C0000E4B1B78022B11D10D4B1B680C4A23F0E1
:1010D000020313600A4B1B68094A23F001031360E3
:1010E000074B00225A60064B00229A60054B1B6892
:1010F0009847034B1B6800BF80BD00BF2401002040
:1011000010E000E0CC00002080B500AF0A4B1B6867
:101110009B690A4A526892B210469847074B1B686F
:10112000064A23F040031360044B1B68034A23F074
:101130002003136000BF80BDD000002000380140B4
:1011400080B500AF0A4B5B689B690A4A526892B24D
:1011500010469847074B1B68064A23F0400313606C
:10116000044B1B68034A23F02003136000BF80BDBB
:10117000D00000200044004080B500AF0A4B9B68BF
:101180009B690A4A526892B210469847084B1B68FE
:10119000074A23F040031360054B1B68044A23F001
:1011A0002003136000BF80BDD00000200044004039
:1011B0000048004080B500AFFFF7DAF8144B012279
:1011C0001A70134B03221A72114B64225A60104B8F
:1011D000104ADA600E48FFF7FFF80F4B02221A7030
:1011E0000D4B02221A720C4B64225A600A4B0B4AB6
:1011F000DA600948FFF7F0F80548FFF76BF9064891
:10120000FFF768F9FFF798F90023184680BD00BF83
:101210005001002021120008280100208D12000832
:1012200080B582B000AF0023FB71FFF78BFE022177
:101230000220FFF799FE082202210220FFF79EFC00
:10124000012202210220FFF7F1FD0D4B1B6883F004
:1012500001030B4A136002210220FFF7ABFD034696
:10126000FB71084B1B680133064A1360FB79184673
:10127000FFF792F914210448FFF745F9E5E700BFAD
:10128000DC000020200100205001002080B582B049
:1012900000AFFFF757FE02210220FFF765FE012293
:1012A00000210220FFF76AFC0A4B1B6883F0010350
:1012B000084A1360FB1D1846FFF790F9FB791A46A0
:1012C00000210220FFF720FD14210348FFF71BF93E
:1012D000EAE700BFE0000020280100200D48854615
:1012E000AFF300800C480D490D4A002302E0D458AA
:1012F000C4500433C4188C42F9D30A4A0A4C002360
:1013000001E013600432A242FBD300F011F8FFF7B2
:1013100051FFFEE700280020000000200000002010
:1013200098130008000000207C010020FEE7000068
:1013300070B500250C4E0D4CA41BA410A54209D17C
:1013400000F01AF800250A4E0A4CA41BA410A5426E
:1013500005D170BD56F8253098470135EEE756F8AF
:10136000253098470135F2E79013000890130008E4
:101370009013000894130008F8B500BFF8BC08BC2F
:101380009E467047F8B500BFF8BC08BC9E46704743
:0413900055010008FB
:04139400310100081B
:04000005080012DD00
:00000001FF
