:100000000C942A000C9447000C9447000C94470071
:100010000C9447000C9447000C9447000C94470044
:100020000C9447000C9447000C9447000C94470034
:100030000C9447000C9447000C9447000C94470024
:100040000C9447000C9447000C9447000C94470014
:100050000C94470011241FBECFE5D4E0DEBFCDBF16
:1000600010E0A0E6B0E0E4E2F3E002C005900D92FB
:10007000AE37B107D9F720E0AEE7B0E001C01D927E
:10008000AE37B207E1F70E9449000C9490010C943E
:100090000000CF93DF93CDB7DEB727970FB6F89464
:1000A000DEBF0FBECDBF80E895E29A83898383E0EF
:1000B0008B8380E28C8388E08D8383E08E831F8234
:1000C000CE0101960E94690080E690E00E94440102
:1000D000FFCF0F931F93CF93DF9300D0CDB7DEB741
:1000E0009A8389838AE290E02AE230E0F901208154
:1000F000277EFC0120838AE290E02AE230E0F901C9
:100100002081422F29813A81F9012581222F30E077
:10011000220F331F220F331F220F331F242BFC010A
:10012000208389819A81FC01828186958695882F1A
:1001300090E081709927892B51F08AE290E02AE2C1
:1001400030E0F90120812460FC01208309C08AE2AB
:1001500090E02AE230E0F90120812B7FFC0120832E
:1001600080E490E029813A81F9012281222F30E058
:1001700023703327220F331F422F29813A81F9013F
:100180002381422B29813A81F9012481242B206883
:10019000FC01208309E210E089819A81FC018081C1
:1001A0009181CC01A0E0B0E0880F991FAA1FBB1F6E
:1001B000880F991FAA1FBB1F880F991FAA1FBB1F5B
:1001C000880F991FAA1FBB1F9C01AD0180E094E21C
:1001D000A4EFB0E0BC01CD010E946E01DA01C901BB
:1001E0008150F801808300E410E089819A81FC014C
:1001F00080819181CC01A0E0B0E0880F991FAA1FF7
:10020000BB1F880F991FAA1FBB1F880F991FAA1F0A
:10021000BB1F880F991FAA1FBB1F9C01AD0180E067
:1002200094E2A4EFB0E0BC01CD010E946E01DA01BE
:10023000C9018150882F90E0892F990F990BF801FF
:10024000808300000F900F90DF91CF911F910F914D
:100250000895CF93DF931F92CDB7DEB78983000057
:100260008BE290E0FC018081882F90E080729927DA
:10027000892BB1F38CE290E02981FC0120830000FE
:100280000F90DF91CF910895CF93DF9300D01F920D
:10029000CDB7DEB79B838A8319820EC08981882FF0
:1002A00090E02A813B81820F931FFC0180810E9494
:1002B000290189818F5F89838981882F90E02A8134
:1002C0003B81820F931FFC018081882339F7000056
:1002D0000F900F900F90DF91CF910895A1E21A2E09
:1002E000AA1BBB1BFD010DC0AA1FBB1FEE1FFF1FDA
:1002F000A217B307E407F50720F0A21BB30BE40B2A
:10030000F50B661F771F881F991F1A9469F7609570
:100310007095809590959B01AC01BD01CF0108952A
:04032000F894FFCF7F
:1003240048656C6C6F2046726F6D20546865204F71
:0E033400746865722053696465203A292000C0
:00000001FF
