:020000040800F2
:1000000000280020D50A0008250B0008250B000851
:10001000250B0008250B0008250B00080000000038
:10002000000000000000000000000000250B000898
:10003000250B000800000000250B0008250B000818
:10004000250B0008250B0008250B0008250B0008D0
:10005000250B0008250B0008250B0008250B0008C0
:10006000250B0008250B0008250B0008250B0008B0
:10007000250B0008250B0008250B0008250B0008A0
:10008000250B0008250B0008250B0008250B000890
:10009000250B0008250B0008250B0008250B000880
:1000A000250B0008250B0008250B0008250B000870
:1000B000250B0008250B0008250B0008250B000860
:1000C000250B0008250B0008250B0008250B000850
:1000D000250B0008250B0008250B0008250B000840
:1000E000250B0008250B000800000000250B000868
:1000F000250B0008250B0008250B0008250B000820
:10010000250B0008250B0008250B0008250B00080F
:10011000250B0008250B0008250B0008250B0008FF
:10012000250B0008250B0008250B0008250B0008EF
:1001300010B5054C237833B9044B13B10448AFF321
:1001400000800123237010BD140000200000000077
:10015000700B000808B5034B1BB103490348AFF30C
:10016000008008BD0000000018000020700B00088F
:1001700080B483B000AF0346FB710B46BB711346DE
:100180007B71FB79032B3ED0042B75D0022B00D062
:10019000A9E0BB79072B17D8554B1B68BA79920099
:1001A0000F2101FA02F2D2431146514A0B4013606B
:1001B0004F4B1B687979BA79920001FA02F2114625
:1001C0004B4A0B43136089E0BB790F2B00F286800A
:1001D000BB79083BBB71464B5B68BA7992000F2133
:1001E00001FA02F2D2431146414A0B405360404BA0
:1001F0005B687979BA79920001FA02F211463C4AB9
:100200000B4353606AE0BB79072B17D8394B1B6847
:10021000BA7992000F2101FA02F2D2431146354A0F
:100220000B401360334B1B687979BA79920001FA5D
:1002300002F211462F4A0B43136051E0BB790F2B9A
:100240004ED8BB79083BBB712A4B5B68BA799200E8
:100250000F2101FA02F2D2431146264A0B405360A5
:10026000244B5B687979BA79920001FA02F211465F
:10027000204A0B43536033E0BB79072B10D81E4B49
:100280001B681D4B00221A601B4B1B687979BA79D9
:10029000920001FA02F21146174A0B43136021E063
:1002A000BB790F2B1ED8BB79083BBB71124B5B6827
:1002B000BA7992000F2101FA02F2D24311460E4A96
:1002C0000B4053600C4B5B687979BA79920001FA64
:1002D00002F21146084A0B43536003E000BF02E0FC
:1002E00000BF00E000BF00BF0C37BD4680BC7047B8
:1002F00000080140000C01400010014080B483B0B0
:1003000000AF0346FB710B46BB7113467B71FB7953
:10031000032B17D0042B28D0022B00D038E07B7998
:10032000002B08D0012B00D00BE0BB7901229A40B2
:100330001A4B1A6105E0BB7901229A40174B5A61AA
:1003400000BF25E07B79002B08D0012B00D00BE00B
:10035000BB7901229A40124B1A6105E0BB79012258
:100360009A400F4B5A6100BF12E07B79002B08D0F6
:10037000012B00D00BE0BB7901229A40094B1A6196
:1003800005E0BB7901229A40064B5A6100BF00BFCD
:1003900000BF0C37BD4680BC704700BF000801405D
:1003A000000C01400010014080B485B000AF7860BF
:1003B0007B68FB600CE04FF47A73BB6002E0BB68C3
:1003C000013BBB60BB68002BF9D1FB68013BFB60C4
:1003D000FB68002BEFD100BF1437BD4680BC7047CF
:1003E00080B582B000AF78607B685B6804331878B2
:1003F0007B685B6805331B7802221946FFF7B8FE5D
:100400007B685B68063318787B685B6807331B780A
:1004100002221946FFF7ACFE7B685B680833187848
:100420007B685B6809331B7802221946FFF7A0FE40
:100430007B685B680A3318787B685B680B331B78D2
:1004400002221946FFF794FE7B685B680233187836
:100450007B685B6803331B7802221946FFF788FE2E
:100460007B685B6818787B685B6801331B780222C5
:100470001946FFF77DFE0221786800F069F928210E
:10048000786800F065F90121786800F061F90F21C2
:10049000786800F05DF98021786800F059F9022051
:1004A000FFF782FF00BF0837BD4680BD80B582B030
:1004B00000AF78600B46FB707B685B68043318788C
:1004C0007B685B6805331978FB781B09DBB203F0A6
:1004D0000103DBB21A46FFF711FF7B685B68063346
:1004E00018787B685B6807331978FB785B09DBB2A7
:1004F00003F00103DBB21A46FFF700FF7B685B687D
:10050000083318787B685B6809331978FB789B0996
:10051000DBB203F00103DBB21A46FFF7EFFE7B68A4
:100520005B680A3318787B685B680B331978FB7853
:10053000DB09DBB21A46FFF7E1FE7B685B6802333A
:1005400018787B685B6803331B7801221946FFF734
:10055000D5FE7B685B6818787B685B6801331B7825
:1005600001221946FFF7CAFE0120FFF71DFF7B6835
:100570005B6818787B685B6801331B78002219463A
:10058000FFF7BCFE1420FFF70FFF7B685B680433A6
:1005900018787B685B6805331978FB7803F00103F2
:1005A000DBB21A46FFF7AAFE7B685B680633187851
:1005B0007B685B6807331978FB785B08DBB203F074
:1005C0000103DBB21A46FFF799FE7B685B680833CC
:1005D00018787B685B6809331978FB789B08DBB275
:1005E00003F00103DBB21A46FFF788FE7B685B6805
:1005F0000A3318787B685B680B331978FB78DB0863
:10060000DBB203F00103DBB21A46FFF777FE7B682B
:100610005B68023318787B685B6803331B780122C0
:100620001946FFF76BFE7B685B6818787B685B6830
:1006300001331B7801221946FFF760FE0120FFF706
:10064000B3FE7B685B6818787B685B6801331B7856
:1006500000221946FFF752FE1420FFF7A5FE00BF47
:100660000837BD4680BD80B584B000AF7860396082
:100670000023FB730AE0FB7B3A6813441B7819469E
:100680007868FFF713FFFB7B0133FB73FB7B3A6852
:1006900013441B78002BEED100BF1037BD4680BD40
:1006A00080B584B000AF78600B46FB701346BB701A
:1006B0000023FB737B681B78BA789A4213D27B685D
:1006C0005B78FA789A420ED2BB789B01DAB2FB785B
:1006D0001344FB73FB7B63F07F03FB73FB7B1946C7
:1006E000786800F035F800BF1037BD4680BD80B592
:1006F00086B000AFF860B9601346FB710023BB758C
:10070000FB79072B20D8FB79DB00BB75BB7D43F061
:100710004003BB75BB7D1946F86800F019F800234B
:10072000FB750AE0FB7DBA6813441B781946F8682C
:10073000FFF7BCFEFB7D0133FB75FB7D072BF1D979
:100740000221F86800F004F800BF1837BD4680BDEC
:1007500080B582B000AF78600B46FB707B685B6849
:10076000043318787B685B6805331978FB781B09BC
:10077000DBB203F00103DBB21A46FFF7BFFD7B6873
:100780005B68063318787B685B6807331978FB78F9
:100790005B09DBB203F00103DBB21A46FFF7AEFDE3
:1007A0007B685B68083318787B685B680933197865
:1007B000FB789B09DBB203F00103DBB21A46FFF7BB
:1007C0009DFD7B685B680A3318787B685B680B3338
:1007D0001978FB78DB09DBB21A46FFF78FFD7B68DF
:1007E0005B68023318787B685B6803331B780022F0
:1007F0001946FFF783FD7B685B6818787B685B6848
:1008000001331B7801221946FFF778FD0120FFF71D
:10081000CBFD7B685B6818787B685B6801331B786D
:1008200000221946FFF76AFD1420FFF7BDFD7B6823
:100830005B68043318787B685B6805331978FB784C
:1008400003F00103DBB21A46FFF758FD7B685B68D3
:10085000063318787B685B6807331978FB785B0888
:10086000DBB203F00103DBB21A46FFF747FD7B68FA
:100870005B68083318787B685B6809331978FB7804
:100880009B08DBB203F00103DBB21A46FFF736FD2B
:100890007B685B680A3318787B685B680B33197870
:1008A000FB78DB08DBB203F00103DBB21A46FFF78B
:1008B00025FD7B685B68023318787B685B680333CF
:1008C0001B7800221946FFF719FD7B685B681878D2
:1008D0007B685B6801331B7801221946FFF70EFD28
:1008E0000120FFF761FD7B685B6818787B685B68B7
:1008F00001331B7800221946FFF700FD1420FFF793
:1009000053FD00BF0837BD4680BD000080B483B0F2
:1009100000AF03460A46FB711346BB71BB791F2B20
:1009200028D8FB79012B0FD0022B18D0002B00D038
:1009300020E0134B1B68BA79012101FA02F211463B
:100940000F4A0B43136015E00E4B1B68BA79012167
:1009500001FA02F211460B4A0B4313600AE00A4BFC
:100960001B68BA79012101FA02F21146064A0B43CB
:10097000136000BF00BF0C37BD4680BC704700BF8E
:10098000141002401C1002401810024080B400AF46
:10099000134B80221A60134B00221A60104B1B6805
:1009A0000F4A43F00103136000BF0D4B1B685B0847
:1009B00003F00103002BF8D00A4B0A4A1B681360AE
:1009C000084B084A1B681360064B064A1B681360F5
:1009D000044B044A1B68136000BFBD4680BC7047CF
:1009E000001002400410024080B485B000AF78606F
:1009F0007B68FB600CE04FF47A73BB6002E0BB687D
:100A0000013BBB60BB68002BF9D1FB68013BFB607D
:100A1000FB68002BEFD100BF1437BD4680BC704788
:100A200080B584B000AF78600B46FB7013463B8006
:100A3000002214497868FFF75AFE012200217868E5
:100A4000FFF72EFEFB781B010F4A82FB03125211A7
:100A5000DB17D31AFB700023FB600AE000217868E3
:100A6000FFF724FD3B881846FFF7BEFFFB68013304
:100A7000FB60FB78FA689A42F0DB00BF1037BD4696
:100A800080BD00BF0C0000201F85EB5180B582B0F7
:100A900000AFFFF77BFF02210220FFF737FF0223A1
:100AA0003B7010237B70094B7B603B461846FFF779
:100AB00097FC3B4606491846FFF7D5FD3B464FF4E9
:100AC000FA7264211846FFF7ABFFFEE70000002032
:100AD000880B00080D488546AFF300800C480D498F
:100AE0000D4A002302E0D458C4500433C4188C4289
:100AF000F9D30A4A0A4C002301E013600432A242EF
:100B0000FBD300F011F8FFF7C1FFFEE7002800203B
:100B10000000002014000020A00B0008140000209A
:100B200030000020FEE7000070B500250C4E0D4C93
:100B3000A41BA410A54209D100F01AF800250A4E02
:100B40000A4CA41BA410A54205D170BD56F825304F
:100B500098470135EEE756F8253098470135F2E71A
:100B6000980B0008980B0008980B00089C0B0008D5
:100B7000F8B500BFF8BC08BC9E467047F8B500BF8A
:080B8000F8BC08BC9E4670475A
:100B880048492041626E61627920576169740000AA
:040B980055010008FB
:040B9C00310100081B
:100BA0000200020102020203020402051F111111D8
:040BB00011111F1FE1
:0400000508000AD510
:00000001FF
