:100000000C942A000C945A000C948B000C9447001A
:100010000C9447000C9447000C9447000C94470044
:100020000C9447000C9427070C9445040C945D072E
:100030000C9447000C9486070C9447000C944700DE
:100040000C9447000C9447000C94BC000C948B0655
:100050000C94470011241FBECFE5D4E0DEBFCDBF16
:1000600010E0A0E6B0E0E8E1F3E102C005900D92F7
:10007000A236B107D9F720E0A2E6B0E001C01D9298
:10008000A638B207E1F70E9427040C948A090C9461
:100090000000CF93DF93CDB7DEB78FE590E02FE57B
:1000A00030E0F90120812068FC0120830000DF910D
:1000B000CF9108951F920F9200905F000F9211242C
:1000C0002F933F934F935F936F937F938F939F9360
:1000D000AF93BF93EF93FF93CF93DF93CDB7DEB78B
:1000E0008091620090916300FC0109950000DF910E
:1000F000CF91FF91EF91BF91AF919F918F917F91A0
:100100006F915F914F913F912F910F9000925F00FF
:100110000F901F9018951F920F9200905F000F9202
:1001200011242F933F934F935F936F937F938F93FC
:100130009F93AF93BF93EF93FF93CF93DF93CDB78D
:10014000DEB78091640090916500FC010995000084
:10015000DF91CF91FF91EF91BF91AF919F918F91DF
:100160007F916F915F914F913F912F910F900092EE
:100170005F000F901F9018951F920F9200905F00E4
:100180000F9211242F933F934F935F936F937F931D
:100190008F939F93AF93BF93EF93FF93CF93DF938F
:1001A000CDB7DEB78091660090916700FC0109959C
:1001B0000000DF91CF91FF91EF91BF91AF919F919F
:1001C0008F917F916F915F914F913F912F910F9000
:1001D00000925F000F901F901895CF93DF93CDB7DB
:1001E000DEB78BE390E0FC0110828AE390E0FC0133
:1001F000108289E390E0FC01108288E390E0FC012A
:10020000108287E390E0FC01108286E390E0FC011D
:10021000108285E390E0FC01108284E390E0FC0111
:10022000108283E390E0FC01108282E390E0FC0105
:10023000108281E390E0FC01108280E390E0FC01F9
:1002400010820000DF91CF910895CF93DF9300D00B
:100250001F92CDB7DEB789836A834B838A8188304A
:1002600008F0F5C18981882F90E08130910509F46B
:1002700086C0823091051CF4892B49F0E8C1823098
:10028000910509F4F4C0039709F469C1E0C18B81B9
:10029000882F90E08130910509F45BC08230910590
:1002A00071F1892B09F06AC08AE390E02AE330E01B
:1002B000F9012081622F2A81422F50E021E030E0B5
:1002C00002C0220F331F4A95E2F720952623FC0136
:1002D00020838BE390E02BE330E0F9012081622F53
:1002E0002A81422F50E021E030E002C0220F331F6C
:1002F0004A95E2F720952623FC0120833FC08AE33C
:1003000090E02AE330E0F9012081622F2A81422F18
:1003100050E021E030E002C0220F331F4A95E2F79F
:1003200020952623FC0120838BE390E02BE330E033
:10033000F9012081622F2A81422F50E021E030E034
:1003400002C0220F331F4A95E2F7262BFC012083BF
:1003500015C08AE390E02AE330E0F9012081622FA2
:100360002A81422F50E021E030E002C0220F331FEB
:100370004A95E2F7262BFC012083000068C18B819F
:10038000882F90E08130910509F45BC0823091059F
:1003900071F1892B09F06AC087E390E027E330E030
:1003A000F9012081622F2A81422F50E021E030E0C4
:1003B00002C0220F331F4A95E2F720952623FC0145
:1003C000208388E390E028E330E0F9012081622F68
:1003D0002A81422F50E021E030E002C0220F331F7B
:1003E0004A95E2F720952623FC0120833FC087E34E
:1003F00090E027E330E0F9012081622F2A81422F2B
:1004000050E021E030E002C0220F331F4A95E2F7AE
:1004100020952623FC01208388E390E028E330E048
:10042000F9012081622F2A81422F50E021E030E043
:1004300002C0220F331F4A95E2F7262BFC012083CE
:1004400015C087E390E027E330E0F9012081622FB7
:100450002A81422F50E021E030E002C0220F331FFA
:100460004A95E2F7262BFC0120830000F0C08B8127
:10047000882F90E08130910509F45BC082309105AE
:1004800071F1892B09F06AC084E390E024E330E045
:10049000F9012081622F2A81422F50E021E030E0D3
:1004A00002C0220F331F4A95E2F720952623FC0154
:1004B000208385E390E025E330E0F9012081622F7D
:1004C0002A81422F50E021E030E002C0220F331F8A
:1004D0004A95E2F720952623FC0120833FC084E360
:1004E00090E024E330E0F9012081622F2A81422F3D
:1004F00050E021E030E002C0220F331F4A95E2F7BE
:1005000020952623FC01208385E390E025E330E05D
:10051000F9012081622F2A81422F50E021E030E052
:1005200002C0220F331F4A95E2F7262BFC012083DD
:1005300015C084E390E024E330E0F9012081622FCC
:100540002A81422F50E021E030E002C0220F331F09
:100550004A95E2F7262BFC012083000078C08B81AE
:10056000882F90E08130910509F45BC082309105BD
:1005700071F1892B09F06AC081E390E021E330E05A
:10058000F9012081622F2A81422F50E021E030E0E2
:1005900002C0220F331F4A95E2F720952623FC0163
:1005A000208382E390E022E330E0F9012081622F92
:1005B0002A81422F50E021E030E002C0220F331F99
:1005C0004A95E2F720952623FC0120833FC081E372
:1005D00090E021E330E0F9012081622F2A81422F4F
:1005E00050E021E030E002C0220F331F4A95E2F7CD
:1005F00020952623FC01208382E390E022E330E073
:10060000F9012081622F2A81422F50E021E030E061
:1006100002C0220F331F4A95E2F7262BFC012083EC
:1006200015C081E390E021E330E0F9012081622FE1
:100630002A81422F50E021E030E002C0220F331F18
:100640004A95E2F7262BFC01208300000000000001
:100650000F900F900F90DF91CF910895CF93DF937C
:1006600000D01F92CDB7DEB789836A834B838A811E
:10067000883008F0E5C08981882F90E081309105AD
:1006800009F442C0823091051CF4892B49F0D8C08E
:100690008230910509F46CC0039709F49DC0D0C065
:1006A0008B81882F90E00097C1F0019709F02BC053
:1006B0008BE390E02BE330E0F9012081622F2A8167
:1006C000422F50E021E030E002C0220F331F4A9554
:1006D000E2F7262BFC01208316C08BE390E02BE38E
:1006E00030E0F9012081622F2A81422F50E021E081
:1006F00030E002C0220F331F4A95E2F720952623EF
:10070000FC01208300009CC08B81882F90E0009723
:10071000C1F0019709F02BC088E390E028E330E0B6
:10072000F9012081622F2A81422F50E021E030E040
:1007300002C0220F331F4A95E2F7262BFC012083CB
:1007400016C088E390E028E330E0F9012081622FB1
:100750002A81422F50E021E030E002C0220F331FF7
:100760004A95E2F720952623FC012083000068C00B
:100770008B81882F90E00097C1F0019709F02BC082
:1007800085E390E025E330E0F9012081622F2A81A2
:10079000422F50E021E030E002C0220F331F4A9583
:1007A000E2F7262BFC01208316C085E390E025E3C9
:1007B00030E0F9012081622F2A81422F50E021E0B0
:1007C00030E002C0220F331F4A95E2F7209526231E
:1007D000FC012083000034C08B81882F90E00097BB
:1007E000C1F0019709F02BC082E390E022E330E0F2
:1007F000F9012081622F2A81422F50E021E030E070
:1008000002C0220F331F4A95E2F7262BFC012083FA
:1008100016C082E390E022E330E0F9012081622FEC
:100820002A81422F50E021E030E002C0220F331F26
:100830004A95E2F720952623FC0120830000000062
:1008400000000F900F900F90DF91CF910895CF93FC
:10085000DF93CDB7DEB70E94ED0080E690E00E9406
:10086000760441E063E081E00E94250140E063E01E
:1008700081E00E942E0342E362E380E00E9477055C
:100880000E94DB040E944900FFCF1F920F9200904C
:100890005F000F9211242F933F934F935F936F93B9
:1008A0007F938F939F93AF93BF93EF93FF93CF93D8
:1008B000DF93CDB7DEB78091680090916900FC01AD
:1008C00009950000DF91CF91FF91EF91BF91AF911A
:1008D0009F918F917F916F915F914F913F912F9158
:1008E0000F9000925F000F901F901895CF93DF93A9
:1008F00000D0CDB7DEB79A83898389819A81892B0D
:1009000009F453C083E590E0FC01108289819A814B
:1009100090936B0080936A0083E590E023E530E0DC
:10092000F901408120916A0030916B00F90120812A
:10093000242BFC01208380916A0090916B00FC01C4
:100940008181882F90E082309105D1F0833091052C
:100950002CF4009749F0019761F027C0843091058D
:10096000B1F00597D9F021C010926D0010926C0083
:100970001CC081E090E090936D0080936C0015C0E6
:1009800088E090E090936D0080936C000EC080E052
:1009900091E090936D0080936C0007C080E094E03C
:1009A00090936D0080936C00000000000F900F90FA
:1009B000DF91CF910895CF93DF93CDB7DEB78091CC
:1009C0006A0090916B00892BC1F083E590E023E5EC
:1009D00030E0F9012081287FFC01208383E590E04D
:1009E00023E530E0F901408120916A0030916B00ED
:1009F000F9012181242BFC0120830000DF91CF919C
:100A00000895CF93DF93CDB7DEB783E590E023E57C
:100A100030E0F9012081287FFC0120830000DF9174
:100A2000CF910895CF93DF9300D0CDB7DEB7898300
:100A30006A838981882F90E081309105F9F08230B6
:100A40009105F1F0892B09F01CC089E590E029E5BA
:100A500030E0F90120812D7FFC01208389E590E0C1
:100A600029E530E0F9012081422F2A81222F30E050
:100A7000220F331F242BFC01208303C0000001C080
:100A8000000000000F900F90DF91CF910895CF9359
:100A9000DF9300D0CDB7DEB789836A838981882F41
:100AA00090E081309105D1F082309105C9F0892B19
:100AB00009F017C083E590E023E530E0F9012081DB
:100AC0002F7CFC01208383E590E023E530E0F901F1
:100AD00030812A81232BFC01208303C0000001C048
:100AE000000000000F900F90DF91CF910895CF93F9
:100AF000DF93CDB7DEB72B970FB6F894DEBF0FBEEE
:100B0000CDBF89876A874B8782E080936E00898595
:100B1000882F90E08130910509F4ECC08230910576
:100B200009F4EAC0892B09F0E8C08A85282F30E053
:100B300088EE93E0B9010E945309CB019A8389831F
:100B40001B821C828B85882F90E024E630E0A9016F
:100B5000481B590BCA01AC0129813A81429FC0014F
:100B6000439F900D529F900D1124969587959695D1
:100B700087959C01ABE7B4E10E946709969587953C
:100B80008C8399818C81592F581B852F8B831D82D3
:100B90001E821F82188680E090E0AAE7B6E48D836B
:100BA0009E83AF83B88780916C0090916D00CC01DB
:100BB000A0E0B0E0BC01CD010E945808DC01CB01EF
:100BC0009C01AD016D817E818F8198850E94B70760
:100BD000DC01CB018D839E83AF83B8878B81882F07
:100BE00090E0A0E0B0E0BC01CD010E945808DC011B
:100BF000CB019C01AD016D817E818F8198850E9422
:100C0000E608DC01CB018D839E83AF83B8876D81BD
:100C10007E818F8198850E942908DC01CB01809319
:100C2000720090937300A0937400B09375001D82BE
:100C30001E821F82188680E090E0AAE7B6E48D83CA
:100C40009E83AF83B88780916C0090916D00CC013A
:100C5000A0E0B0E0BC01CD010E945808DC01CB014E
:100C60009C01AD016D817E818F8198850E94B707BF
:100C7000DC01CB018D839E83AF83B8878C81882F65
:100C800090E0A0E0B0E0BC01CD010E945808DC017A
:100C9000CB019C01AD016D817E818F8198850E9481
:100CA000E608DC01CB018D839E83AF83B8876D811D
:100CB0007E818F8198850E942908DC01CB01809379
:100CC000760090937700A0937800B093790060E16C
:100CD00080E00E9447052CE530E0809176009091FD
:100CE0007700A0917800B0917900F901808310928B
:100CF000710003C0000001C0000061E089850E940E
:100D0000120500002B960FB6F894DEBF0FBECDBFC4
:100D1000DF91CF9108951F920F9200905F000F9284
:100D200011242F933F934F935F936F937F938F93F0
:100D30009F93AF93BF93EF93FF93CF93DF93CDB781
:100D4000DEB780916E00882301F520917A00309102
:100D50007B0080916F00909170002817390750F444
:100D600080917A0090917B00019690937B00809314
:100D70007A0053C08091840090918500FC01099510
:100D800010927B0010927A0048C080916E008130F2
:100D900011F520917A0030917B0080916F00909145
:100DA00070002817390750F480917A0090917B00E9
:100DB000019690937B0080937A002FC080918000F1
:100DC00090918100FC01099510927B0010927A00AD
:100DD0000E94010522C080917100882381F42CE5D6
:100DE00030E08091760090917700A0917800B091EA
:100DF0007900F901808381E0809371000EC02CE5B9
:100E000030E08091720090917300A0917400B091D5
:100E10007500F90180831092710088E590E022E06E
:100E2000FC0120830000DF91CF91FF91EF91BF91F2
:100E3000AF919F918F917F916F915F914F913F9172
:100E40002F910F9000925F000F901F9018951F92A6
:100E50000F9200905F000F9211242F933F934F93B6
:100E60005F936F937F938F939F93AF93BF93EF9312
:100E7000FF93CF93DF93CDB7DEB78091820090913F
:100E80008300FC01099588E590E021E0FC012083C6
:100E90000000DF91CF91FF91EF91BF91AF919F91B2
:100EA0008F917F916F915F914F913F912F910F9013
:100EB00000925F000F901F9018951F920F92009064
:100EC0005F000F9211242F933F938F939F93EF9383
:100ED000FF93CF93DF93CDB7DEB780917E009091E3
:100EE0007F002CE230E0F9012081FC01208300002A
:100EF000DF91CF91FF91EF919F918F913F912F9132
:100F00000F9000925F000F901F9018951F920F9204
:100F100000905F000F9211242F933F934F935F93A4
:100F20006F937F938F939F93AF93BF93EF93FF93B1
:100F3000CF93DF93CDB7DEB780917C0090917D0099
:100F4000FC0109950000DF91CF91FF91EF91BF91D6
:100F5000AF919F918F917F916F915F914F913F9151
:100F60002F910F9000925F000F901F9018950E9494
:100F7000CB070C94AC080E94A50858F00E949E086C
:100F800040F029F45F3F29F00C94950851110C941E
:100F9000E0080C949B080E94BD0868F39923B1F304
:100FA000552391F3951B550BBB27AA27621773078F
:100FB000840738F09F5F5F4F220F331F441FAA1F23
:100FC000A9F335D00E2E3AF0E0E832D091505040DF
:100FD000E695001CCAF72BD0FE2F29D0660F771F8D
:100FE000881FBB1F261737074807AB07B0E809F073
:100FF000BB0B802DBF01FF2793585F4F3AF09E3FF8
:10100000510578F00C9495080C94E0085F3FE4F3E8
:10101000983ED4F3869577956795B795F7959F5F3A
:10102000C9F7880F911D9695879597F90895E1E086
:10103000660F771F881FBB1F621773078407BA07E5
:1010400020F0621B730B840BBA0BEE1F88F7E09540
:1010500008950E94C50888F09F5798F0B92F9927E6
:10106000B751B0F0E1F0660F771F881F991F1AF093
:10107000BA95C9F714C0B13091F00E94DF08B1E011
:1010800008950C94DF08672F782F8827B85F39F010
:10109000B93FCCF3869577956795B395D9F73EF42C
:1010A00090958095709561957F4F8F4F9F4F0895D4
:1010B000E89409C097FB3EF49095809570956195F2
:1010C0007F4F8F4F9F4F9923A9F0F92F96E9BB27A8
:1010D0009395F695879577956795B795F111F8CF24
:1010E000FAF4BB0F11F460FF1BC06F5F7F4F8F4F8F
:1010F0009F4F16C0882311F096E911C0772321F085
:101100009EE8872F762F05C0662371F096E8862F1C
:1011100070E060E02AF09A95660F771F881FDAF773
:10112000880F9695879597F9089597F99F6780E8B6
:1011300070E060E008959FEF80EC089500240A9429
:101140001616170618060906089500240A941216A2
:101150001306140605060895092E0394000C11F4D5
:10116000882352F0BB0F40F4BF2B11F460FF04C082
:101170006F5F7F4F8F4F9F4F089557FD9058440FDB
:10118000551F59F05F3F71F04795880F97FB991FE6
:1011900061F09F3F79F087950895121613061406A3
:1011A000551FF2CF4695F1DF08C016161706180630
:1011B000991FF1CF86957105610508940895E8940B
:1011C000BB2766277727CB0197F908950E94F90876
:1011D0000C94AC080E949E0838F00E94A50820F0EC
:1011E000952311F00C9495080C949B0811240C94F1
:1011F000E0080E94BD0870F3959FC1F3950F50E081
:10120000551F629FF001729FBB27F00DB11D639FB8
:10121000AA27F00DB11DAA1F649F6627B00DA11D5E
:10122000661F829F2227B00DA11D621F739FB00D04
:10123000A11D621F839FA00D611D221F749F332774
:10124000A00D611D231F849F600D211D822F762F0D
:101250006A2F11249F5750409AF0F1F088234AF0EA
:10126000EE0FFF1FBB1F661F771F881F9150504056
:10127000A9F79E3F510580F00C9495080C94E00866
:101280005F3FE4F3983ED4F3869577956795B795DD
:10129000F795E7959F5FC1F7FE2B880F911D9695F7
:1012A000879597F9089597FB072E16F4009407D0B9
:1012B00077FD09D00E94760907FC05D03EF4909591
:1012C00081959F4F0895709561957F4F0895A29FD6
:1012D000B001B39FC001A39F700D811D1124911D0A
:1012E000B29F700D811D1124911D0895AA1BBB1B77
:1012F00051E107C0AA1FBB1FA617B70710F0A61B16
:10130000B70B881F991F5A95A9F780959095BC0136
:08131000CD010895F894FFCF10
:021318000805C6
:00000001FF
