:020000040800F2
:1000000000280020C506000815070008A106000802
:100010001507000815070008150700080000000074
:1000200000000000000000000000000015070008AC
:100030001507000800000000150700081507000854
:100040001507000815070008150700081507000820
:100050001507000815070008E90200080D0300084D
:10006000310300085503000879030008150700084C
:1000700015070008150700081507000815070008F0
:1000800015070008150700081507000815070008E0
:1000900015070008150700081507000815070008D0
:1000A00015070008150700081507000815070008C0
:1000B00015070008150700081507000815070008B0
:1000C00015070008150700081507000815070008A0
:1000D0001507000815070008150700081507000890
:1000E00015070008150700080000000015070008A4
:1000F0001507000815070008150700081507000870
:10010000150700081507000815070008150700085F
:10011000150700081507000815070008150700084F
:10012000150700081507000815070008150700083F
:1001300010B5054C237833B9044B13B10448AFF321
:1001400000800123237010BD00000020000000008B
:100150006007000808B5034B1BB103490348AFF320
:10016000008008BD000000000400002060070008B7
:1001700080B485B000AF03460A46FB711346BB71DD
:10018000BB79023BBB710023FB730023BB73FB797C
:100190009B08FB73FB7903F00303BB73124AFB7BE1
:1001A000023352F82320BB7B0F2101FA03F3DB4318
:1001B00018460D49FB7B0240023341F823200A4ACE
:1001C000FB7B023352F82320B979BB7B01FA03F39E
:1001D00018460549FB7B0243023341F8232000BF48
:1001E0001437BD4680BC70470004014080B483B022
:1001F00000AF03460A46FB711346BB71BB79012B66
:1002000019D0022B2CD0002B00D03DE0214BDB6815
:10021000FA79012101FA02F2D24311461D4A0B403C
:10022000D3601C4B9B68FA79012101FA02F2114656
:10023000184A0B439360174BDB68FA79012101FAE6
:1002400002F21146134A0B43D360124B9B68FA79B2
:10025000012101FA02F2D24311460E4A0B4093608B
:100260000C4B9B68FA79012101FA02F21146094A06
:100270000B439360074BDB68FA79012101FA02F224
:100280001146044A0B43D36000BF00BF0C37BD4684
:1002900080BC70470004014080B483B000AF0346C7
:1002A000FB71074B1B68FA79012101FA02F2114632
:1002B000034A0B43136000BF0C37BD4680BC704738
:1002C0000004014080B483B000AF03463960FB7185
:1002D000FB7904493A6841F8232000BF0C37BD463A
:1002E00080BC70471C00002080B500AF054B1B6828
:1002F0009847054B5B69044A43F00103536100BF13
:1003000080BD00BF1C0000200004014080B500AF8C
:10031000054B5B689847054B5B69044A43F0020351
:10032000536100BF80BD00BF1C00002000040140DD
:1003300080B500AF054B9B689847054B5B69044A45
:1003400043F00403536100BF80BD00BF1C000020C8
:100350000004014080B500AF054BDB689847054BB2
:100360005B69044A43F00803536100BF80BD00BFCE
:100370001C0000200004014080B500AF054B1B6944
:100380009847054B5B69044A43F01003536100BF73
:1003900080BD00BF1C0000200004014080B483B079
:1003A00000AF0346FB710B46BB7113467B71FB79B3
:1003B000032B3ED0042B75D0022B00D0A9E0BB79D3
:1003C000072B17D8554B1B68BA7992000F2101FAF9
:1003D00002F2D2431146514A0B4013604F4B1B6847
:1003E0007979BA79920001FA02F211464B4A0B432D
:1003F000136089E0BB790F2B00F28680BB79083B44
:10040000BB71464B5B68BA7992000F2101FA02F288
:10041000D2431146414A0B405360404B5B687979A7
:10042000BA79920001FA02F211463C4A0B4353603A
:100430006AE0BB79072B17D8394B1B68BA79920051
:100440000F2101FA02F2D2431146354A0B401360E4
:10045000334B1B687979BA79920001FA02F211469E
:100460002F4A0B43136051E0BB790F2B4ED8BB7959
:10047000083BBB712A4B5B68BA7992000F2101FAE5
:1004800002F2D2431146264A0B405360244B5B686C
:100490007979BA79920001FA02F21146204A0B43A7
:1004A000536033E0BB79072B10D81E4B1B681D4BE4
:1004B00000221A601B4B1B687979BA79920001FA05
:1004C00002F21146174A0B43136021E0BB790F2B50
:1004D0001ED8BB79083BBB71124B5B68BA7992009E
:1004E0000F2101FA02F2D24311460E4A0B4053602B
:1004F0000C4B5B687979BA79920001FA02F21146E5
:10050000084A0B43536003E000BF02E000BF00E075
:1005100000BF00BF0C37BD4680BC704700080140DB
:10052000000C01400010014080B483B000AF0346CE
:10053000FB71FB791F2B0AD80F4B1B68FA7901213D
:1005400001FA02F211460C4A0B4313600FE0FB79EB
:100550003B2B0CD8FB79203BFB71084B1B68FA79CD
:10056000012101FA02F21146044A0B43136000BF55
:100570000C37BD4680BC704700E100E004E100E0BC
:1005800080B400AF054B4FF480321A60044B012257
:100590001A6000BFBD4680BC704700BF001002401B
:1005A0000410024080B483B000AF03460A46FB71DA
:1005B0001346BB71BB791F2B28D8FB79012B0FD0B9
:1005C000022B18D0002B00D020E0134B1B68BA7907
:1005D000012101FA02F211460F4A0B43136015E0A4
:1005E0000E4B1B68BA79012101FA02F211460B4A3F
:1005F0000B4313600AE00A4B1B68BA79012101FA28
:1006000002F21146064A0B43136000BF00BF0C37CD
:10061000BD4680BC704700BF141002401C10024051
:100620001810024080B582B000AFFFF7A9FF022189
:100630000220FFF7B7FF012205210220FFF7AEFEDF
:100640000620FFF771FF02210020FFF791FD002136
:100650000020FFF7CBFD0E490020FFF733FE0020FE
:10066000FFF71AFE0A4B7B607B689847094B3B609B
:100670003B689847084B3B603B689847074B1B78A3
:10068000DBB2002BFAD0054B00221A70F6E700BF50
:10069000B9060008BD060008BC0600085C00002082
:1006A00080B400AF034B01221A7000BFBD4680BC6E
:1006B000704700BF5C00002080B400AF00BFBD46A3
:1006C00080BC70470D488546AFF300800C480D494B
:1006D0000D4A002302E0D458C4500433C4188C429D
:1006E000F9D30A4A0A4C002301E013600432A24203
:1006F000FBD300F011F8FFF795FFFEE7002800207C
:1007000000000020000000208007000800000020FA
:1007100060000020FEE7000070B500250C4E0D4C77
:10072000A41BA410A54209D100F01AF800250A4E16
:100730000A4CA41BA410A54205D170BD56F8253063
:1007400098470135EEE756F8253098470135F2E72E
:100750007807000878070008780700087C07000879
:10076000F8B500BFF8BC08BC9E467047F8B500BF9E
:08077000F8BC08BC9E4670476E
:04077800550100081F
:04077C00310100083F
:04000005080006C524
:00000001FF
