:100000000C942A000C9469010C949A010C944700FA
:100010000C949A0F0C94D00F0C9447000C9447004A
:100020000C94640F0C942E0F0C94180E0C94061064
:100030000C9447000C942F100C9427010C9447004B
:100040000C9447000C9447000C94CB010C94910E37
:100050000C94470011241FBECFE5D4E0DEBFCDBF16
:1000600010E0A0E6B0E0E6EEF4E202C005900D92EA
:10007000AC38B107D9F720E0ACE8B0E001C01D9280
:10008000A63CB207E1F70E94B40C0C9471120C94D8
:100090000000CF93DF9300D0CDB7DEB79A8389837A
:1000A00084E290E024E230E0F901438129813A8141
:1000B000F9012081242BFC01238384E290E024E2D7
:1000C00030E0F901428129813A81F9012181242B13
:1000D000FC01228389819A81FC018281882351F469
:1000E00084E290E024E230E0F90122812062FC0108
:1000F000228309C084E290E024E230E0F901228109
:100100002F7DFC01228384E290E024E230E0F901BB
:10011000428129813A81F9012381242BFC01228328
:1001200084E290E024E230E0F90122812068FC01C1
:10013000228300000F900F90DF91CF910895CF930D
:10014000DF93CDB7DEB784E290E024E230E0F9013E
:1001500022812068FC0122830000DF91CF91089565
:10016000CF93DF931F92CDB7DEB7898384E290E00F
:1001700024E230E0F9012281277FFC01228384E21E
:1001800090E024E230E0F90132812981232BFC0147
:10019000228300000F90DF91CF910895CF93DF93DA
:1001A00000D0CDB7DEB79A83898389819A819093F5
:1001B0008D0080938C0000000F900F90DF91CF9105
:1001C0000895CF93DF9300D000D0CDB7DEB79C83E6
:1001D0008B8384E290E0FC01808191819A83898302
:1001E00089819A819C0133708B819C81FC013183D0
:1001F000208300000F900F900F900F90DF91CF9110
:100200000895CF93DF931F92CDB7DEB789830E9405
:100210009F0080918C0090918D00892B99F084E251
:1002200090E024E230E0F90133812981232BFC01A5
:10023000238384E290E024E230E0F901228120640B
:10024000FC01228300000F90DF91CF9108951F924F
:100250000F9200905F000F9211242F933F934F93C2
:100260005F936F937F938F939F93AF93BF93EF931E
:10027000FF93CF93DF93CDB7DEB780918C00909141
:100280008D00FC0109950000DF91CF91FF91EF9166
:10029000BF91AF919F918F917F916F915F914F919E
:1002A0003F912F910F9000925F000F901F90189533
:1002B000CF93DF93CDB7DEB78FE590E02FE530E049
:1002C000F90120812068FC0120830000DF91CF919B
:1002D00008951F920F9200905F000F9211242F93A8
:1002E0003F934F935F936F937F938F939F93AF93BE
:1002F000BF93EF93FF93CF93DF93CDB7DEB780919A
:100300008E0090918F00FC0109950000DF91CF9144
:10031000FF91EF91BF91AF919F918F917F916F91DD
:100320005F914F913F912F910F9000925F000F903E
:100330001F9018951F920F9200905F000F9211244A
:100340002F933F934F935F936F937F938F939F93DD
:10035000AF93BF93EF93FF93CF93DF93CDB7DEB708
:100360008091900090919100FC0109950000DF912F
:10037000CF91FF91EF91BF91AF919F918F917F911D
:100380006F915F914F913F912F910F9000925F007D
:100390000F901F9018951F920F9200905F000F9280
:1003A00011242F933F934F935F936F937F938F937A
:1003B0009F93AF93BF93EF93FF93CF93DF93CDB70B
:1003C000DEB78091920090919300FC0109950000A6
:1003D000DF91CF91FF91EF91BF91AF919F918F915D
:1003E0007F916F915F914F913F912F910F9000926C
:1003F0005F000F901F901895CF93DF9300D01F924E
:10040000CDB7DEB789836A834B838A81883008F051
:10041000F5C18981882F90E08130910509F486C06B
:10042000823091051CF4892B49F0E8C18230910596
:1004300009F4F4C0039709F469C1E0C18B81882FE6
:1004400090E08130910509F45BC08230910571F133
:10045000892B09F06AC08AE390E02AE330E0F901D1
:100460002081622F2A81422F50E021E030E002C03B
:10047000220F331F4A95E2F720952623FC012083A3
:100480008BE390E02BE330E0F9012081622F2A8199
:10049000422F50E021E030E002C0220F331F4A9586
:1004A000E2F720952623FC0120833FC08AE390E0F9
:1004B0002AE330E0F9012081622F2A81422F50E0A7
:1004C00021E030E002C0220F331F4A95E2F7209569
:1004D0002623FC0120838BE390E02BE330E0F9013D
:1004E0002081622F2A81422F50E021E030E002C0BB
:1004F000220F331F4A95E2F7262BFC01208315C0FB
:100500008AE390E02AE330E0F9012081622F2A811A
:10051000422F50E021E030E002C0220F331F4A9505
:10052000E2F7262BFC012083000068C18B81882F15
:1005300090E08130910509F45BC08230910571F142
:10054000892B09F06AC087E390E027E330E0F901E6
:100550002081622F2A81422F50E021E030E002C04A
:10056000220F331F4A95E2F720952623FC012083B2
:1005700088E390E028E330E0F9012081622F2A81AE
:10058000422F50E021E030E002C0220F331F4A9595
:10059000E2F720952623FC0120833FC087E390E00B
:1005A00027E330E0F9012081622F2A81422F50E0B9
:1005B00021E030E002C0220F331F4A95E2F7209578
:1005C0002623FC01208388E390E028E330E0F90152
:1005D0002081622F2A81422F50E021E030E002C0CA
:1005E000220F331F4A95E2F7262BFC01208315C00A
:1005F00087E390E027E330E0F9012081622F2A8130
:10060000422F50E021E030E002C0220F331F4A9514
:10061000E2F7262BFC0120830000F0C08B81882F9D
:1006200090E08130910509F45BC08230910571F151
:10063000892B09F06AC084E390E024E330E0F901FB
:100640002081622F2A81422F50E021E030E002C059
:10065000220F331F4A95E2F720952623FC012083C1
:1006600085E390E025E330E0F9012081622F2A81C3
:10067000422F50E021E030E002C0220F331F4A95A4
:10068000E2F720952623FC0120833FC084E390E01D
:1006900024E330E0F9012081622F2A81422F50E0CB
:1006A00021E030E002C0220F331F4A95E2F7209587
:1006B0002623FC01208385E390E025E330E0F90167
:1006C0002081622F2A81422F50E021E030E002C0D9
:1006D000220F331F4A95E2F7262BFC01208315C019
:1006E00084E390E024E330E0F9012081622F2A8145
:1006F000422F50E021E030E002C0220F331F4A9524
:10070000E2F7262BFC012083000078C08B81882F24
:1007100090E08130910509F45BC08230910571F160
:10072000892B09F06AC081E390E021E330E0F90110
:100730002081622F2A81422F50E021E030E002C068
:10074000220F331F4A95E2F720952623FC012083D0
:1007500082E390E022E330E0F9012081622F2A81D8
:10076000422F50E021E030E002C0220F331F4A95B3
:10077000E2F720952623FC0120833FC081E390E02F
:1007800021E330E0F9012081622F2A81422F50E0DD
:1007900021E030E002C0220F331F4A95E2F7209596
:1007A0002623FC01208382E390E022E330E0F9017C
:1007B0002081622F2A81422F50E021E030E002C0E8
:1007C000220F331F4A95E2F7262BFC01208315C028
:1007D00081E390E021E330E0F9012081622F2A815A
:1007E000422F50E021E030E002C0220F331F4A9533
:1007F000E2F7262BFC0120830000000000000F9090
:100800000F900F90DF91CF910895CF93DF9300D099
:100810001F92CDB7DEB789836A834B838A81883084
:1008200008F0E5C08981882F90E08130910509F4B6
:1008300042C0823091051CF4892B49F0D8C0823027
:10084000910509F46CC0039709F49DC0D0C08B8159
:10085000882F90E00097C1F0019709F02BC08BE33F
:1008600090E02BE330E0F9012081622F2A81422FB2
:1008700050E021E030E002C0220F331F4A95E2F73A
:10088000262BFC01208316C08BE390E02BE330E0A5
:10089000F9012081622F2A81422F50E021E030E0CF
:1008A00002C0220F331F4A95E2F720952623FC0150
:1008B000208300009CC08B81882F90E00097C1F0BE
:1008C000019709F02BC088E390E028E330E0F901BC
:1008D0002081622F2A81422F50E021E030E002C0C7
:1008E000220F331F4A95E2F7262BFC01208316C006
:1008F00088E390E028E330E0F9012081622F2A812B
:10090000422F50E021E030E002C0220F331F4A9511
:10091000E2F720952623FC012083000068C08B812C
:10092000882F90E00097C1F0019709F02BC085E374
:1009300090E025E330E0F9012081622F2A81422FE7
:1009400050E021E030E002C0220F331F4A95E2F769
:10095000262BFC01208316C085E390E025E330E0E0
:10096000F9012081622F2A81422F50E021E030E0FE
:1009700002C0220F331F4A95E2F720952623FC017F
:100980002083000034C08B81882F90E00097C1F055
:10099000019709F02BC082E390E022E330E0F901F7
:1009A0002081622F2A81422F50E021E030E002C0F6
:1009B000220F331F4A95E2F7262BFC01208316C035
:1009C00082E390E022E330E0F9012081622F2A8166
:1009D000422F50E021E030E002C0220F331F4A9541
:1009E000E2F720952623FC01208300000000000090
:1009F0000F900F900F90DF91CF910895CF93DF93D9
:100A0000CDB7DEB760970FB6F894DEBF0FBECDBF8F
:100A1000988B8F878F859889FC01828193810596B9
:100A2000FC0120818F859889FC0182819381049645
:100A3000FC01808141E0622F0E94FC018F85988932
:100A4000FC01828193810796FC0120818F85988922
:100A5000FC01828193810696FC01808141E0622F36
:100A60000E94FC018F859889FC01828193810996FF
:100A7000FC0120818F859889FC01828193810896F1
:100A8000FC01808141E0622F0E94FC018F859889E2
:100A9000FC01828193810B96FC0120818F859889CE
:100AA000FC01828193810A96FC01808141E0622FE2
:100AB0000E94FC018F859889FC01828193810396B5
:100AC000FC0120818F859889FC01828193810296A7
:100AD000FC01808141E0622F0E94FC018F85988992
:100AE000FC01828193810196FC0120818F85988988
:100AF000FC0182819381FC01808141E0622F0E9490
:100B0000FC018F85988962E00E9498098F859889F9
:100B100068E20E9498098F85988961E00E9498098F
:100B20008F8598896FE00E9498098F85988960E881
:100B30000E94980980E090E0A0E0B0E489839A8365
:100B4000AB83BC8320E030E04AE755E469817A81D9
:100B50008B819C810E94C411DC01CB018D839E831B
:100B6000AF83B88720E030E040E85FE36D817E81AD
:100B70008F8198850E94601088232CF481E090E09A
:100B80009A8789873FC020E03FEF4FE757E46D81A8
:100B90007E818F8198850E94BF1118164CF520E048
:100BA00030E040E251E469817A818B819C810E942E
:100BB000C411DC01CB01BC01CD010E94DE10DC01BF
:100BC000CB019A8789870FC080E991E09C878B874A
:100BD0008B859C850197F1F79C878B8789859A8502
:100BE00001979A87898789859A85892B69F714C027
:100BF0006D817E818F8198850E94DE10DC01CB01A2
:100C00009A87898789859A859E878D878D859E8518
:100C10000197F1F79E878D87000060960FB6F894D4
:100C2000DEBF0FBECDBFDF91CF910895CF93DF938D
:100C3000CDB7DEB7EB970FB6F894DEBF0FBECDBFD2
:100C40009AAF89AF6BAF8BAD82958F70382F3170B3
:100C500089AD9AADFC01828193810596FC012081CA
:100C600089AD9AADFC01828193810496FC0180815B
:100C7000432F622F0E9405048BAD82958695877065
:100C8000382F317089AD9AADFC018281938107962E
:100C9000FC01208189AD9AADFC0182819381069689
:100CA000FC018081432F622F0E9405048BAD829549
:100CB000869586958370382F317089AD9AADFC0189
:100CC000828193810996FC01208189AD9AADFC0156
:100CD000828193810896FC018081432F622F0E94BC
:100CE00005048BAD382F331F3327331F89AD9AADE1
:100CF000FC01828193810B96FC01208189AD9AAD24
:100D0000FC01828193810A96FC018081432F622F2E
:100D10000E94050489AD9AADFC01828193810396FE
:100D2000FC01208189AD9AADFC01828193810296FC
:100D3000FC01808141E0622F0E94050489AD9AADDB
:100D4000FC01828193810196FC01208189AD9AADDD
:100D5000FC0182819381FC01808141E0622F0E942D
:100D6000050480E090E0A0E8BFE389839A83AB8329
:100D7000BC8320E030E04AE755E469817A818B81C9
:100D80009C810E94C411DC01CB018FA798ABA9AB59
:100D9000BAAB20E030E040E85FE36FA578A989A90D
:100DA0009AA90E94601088232CF481E090E09CAB0B
:100DB0008BAB3FC020E03FEF4FE757E46FA578A92A
:100DC00089A99AA90E94BF1118164CF520E030E0BD
:100DD00040E251E469817A818B819C810E94C41137
:100DE000DC01CB01BC01CD010E94DE10DC01CB0196
:100DF0009CAB8BAB0FC080E991E09EAB8DAB8DA916
:100E00009EA90197F1F79EAB8DAB8BA99CA9019789
:100E10009CAB8BAB8BA99CA9892B69F714C06FA5E0
:100E200078A989A99AA90E94DE10DC01CB019CABAC
:100E30008BAB8BA99CA998AF8FAB8FA998AD01976D
:100E4000F1F798AF8FAB89AD9AADFC0182819381A8
:100E50000196FC01208189AD9AADFC0182819381CC
:100E6000FC01808140E0622F0E94050480E090E058
:100E7000A0EAB1E48D839E83AF83B88720E030E0A1
:100E80004AE755E46D817E818F8198850E94C41167
:100E9000DC01CB018DA39EA3AFA3B8A720E030E077
:100EA00040E85FE36DA17EA18FA198A50E9460102C
:100EB00088232CF481E090E09AA789A73FC020E026
:100EC0003FEF4FE757E46DA17EA18FA198A50E9447
:100ED000BF1118164CF520E030E040E251E46D817E
:100EE0007E818F8198850E94C411DC01CB01BC01F9
:100EF000CD010E94DE10DC01CB019AA789A70FC0AB
:100F000080E991E09CA78BA78BA59CA50197F1F7A1
:100F10009CA78BA789A59AA501979AA789A789A5B8
:100F20009AA5892B69F714C06DA17EA18FA198A500
:100F30000E94DE10DC01CB019AA789A789A59AA59A
:100F40009EA78DA78DA59EA50197F1F79EA78DA7BA
:100F50008BAD382F317089AD9AADFC0182819381C0
:100F60000596FC01208189AD9AADFC0182819381B7
:100F70000496FC018081432F622F0E9405048BADF3
:100F80008695382F317089AD9AADFC0182819381AD
:100F90000796FC01208189AD9AADFC018281938185
:100FA0000696FC018081432F622F0E9405048BADC1
:100FB00086958695382F317089AD9AADFC01828176
:100FC00093810996FC01208189AD9AADFC01828153
:100FD00093810896FC018081432F622F0E940504B3
:100FE0008BAD869586958695382F317089AD9AADF3
:100FF000FC01828193810B96FC01208189AD9AAD21
:10100000FC01828193810A96FC018081432F622F2B
:101010000E94050489AD9AADFC01828193810396FB
:10102000FC01208189AD9AADFC01828193810296F9
:10103000FC01808141E0622F0E94050489AD9AADD8
:10104000FC01828193810196FC01208189AD9AADDA
:10105000FC0182819381FC01808141E0622F0E942A
:10106000050480E090E0A0E8BFE389879A87AB871A
:10107000BC8720E030E04AE755E469857A858B85B6
:101080009C850E94C411DC01CB018B8F9C8FAD8F9E
:10109000BE8F20E030E040E85FE36B8D7C8D8D8D6E
:1010A0009E8D0E94601088232CF481E090E098A32C
:1010B0008F8F3FC020E03FEF4FE757E46B8D7C8D73
:1010C0008D8D9E8D0E94BF1118164CF520E030E0EA
:1010D00040E251E469857A858B859C850E94C41124
:1010E000DC01CB01BC01CD010E94DE10DC01CB0193
:1010F00098A38F8F0FC080E991E09AA389A389A15B
:101100009AA10197F1F79AA389A38F8D98A10197CE
:1011100098A38F8F8F8D98A1892B69F714C06B8D41
:101120007C8D8D8D9E8D0E94DE10DC01CB0198A3FD
:101130008F8F8F8D98A19CA38BA38BA19CA10197CE
:10114000F1F79CA38BA389AD9AADFC0182819381B9
:101150000196FC01208189AD9AADFC0182819381C9
:10116000FC01808140E0622F0E94050480E090E055
:10117000A0EAB1E48D879E87AF87B88B20E030E08E
:101180004AE755E46D857E858F8598890E94C41154
:10119000DC01CB01898B9A8BAB8BBC8B20E030E0E0
:1011A00040E85FE369897A898B899C890E94601095
:1011B00088232CF481E090E09E8B8D8B3FC020E053
:1011C0003FEF4FE757E469897A898B899C890E94B0
:1011D000BF1118164CF520E030E040E251E46D8577
:1011E0007E858F8598890E94C411DC01CB01BC01EA
:1011F000CD010E94DE10DC01CB019E8B8D8B0FC0D8
:1012000080E991E0988F8F8B8F89988D0197F1F706
:10121000988F8F8B8D899E8901979E8B8D8B8D8961
:101220009E89892B69F714C069897A898B899C8981
:101230000E94DE10DC01CB019E8B8D8B8D899E89F7
:101240009A8F898F898D9A8D0197F1F79A8F898F5F
:101250000000EB960FB6F894DEBF0FBECDBFDF9156
:10126000CF910895CF93DF9300D000D01F92CDB7D8
:10127000DEB79B838A837D836C83198211C0898149
:10128000882F90E02C813D81820F931FFC012081EB
:101290008A819B81622F0E94160689818F5F8983D4
:1012A0008981882F90E02C813D81820F931FFC0162
:1012B0008081882321F700000F900F900F900F90EE
:1012C0000F90DF91CF910895CF93DF9300D000D09E
:1012D0001F92CDB7DEB79B838A836C834D831982BF
:1012E0008A819B81FC0190818D818917C0F48A815C
:1012F0009B81FC0191818C81891788F48D81982FC5
:101300009295990F990F907C8C81890F898389819F
:10131000806889838A819B8169810E949809000085
:101320000F900F900F900F900F90DF91CF91089535
:10133000CF93DF93CDB7DEB7EB970FB6F894DEBF50
:101340000FBECDBF9AAF89AF6BAF8BAD82958F705B
:10135000382F317089AD9AADFC0182819381059659
:10136000FC01208189AD9AADFC01828193810496B4
:10137000FC018081432F622F0E9405048BAD829572
:1013800086958770382F317089AD9AADFC018281C6
:1013900093810796FC01208189AD9AADFC01828181
:1013A00093810696FC018081432F622F0E940504E1
:1013B0008BAD8295869586958370382F317089AD77
:1013C0009AADFC01828193810996FC01208189AD4F
:1013D0009AADFC01828193810896FC018081432FA4
:1013E000622F0E9405048BAD382F331F3327331F24
:1013F00089AD9AADFC01828193810B96FC0120811D
:1014000089AD9AADFC01828193810A96FC018081AD
:10141000432F622F0E94050489AD9AADFC018281A1
:1014200093810396FC01208189AD9AADFC018281F4
:1014300093810296FC01808140E0622F0E940504A6
:1014400089AD9AADFC01828193810196FC012081D6
:1014500089AD9AADFC0182819381FC01808141E0DC
:10146000622F0E94050480E090E0A0E8BFE389833A
:101470009A83AB83BC8320E030E04AE755E469817E
:101480007A818B819C810E94C411DC01CB018FA7E2
:1014900098ABA9ABBAAB20E030E040E85FE36FA5C2
:1014A00078A989A99AA90E94601088232CF481E068
:1014B00090E09CAB8BAB3FC020E03FEF4FE757E4A1
:1014C0006FA578A989A99AA90E94BF1118164CF591
:1014D00020E030E040E251E469817A818B819C8197
:1014E0000E94C411DC01CB01BC01CD010E94DE10C1
:1014F000DC01CB019CAB8BAB0FC080E991E09EABD4
:101500008DAB8DA99EA90197F1F79EAB8DAB8BA9F1
:101510009CA901979CAB8BAB8BA99CA9892B69F7E4
:1015200014C06FA578A989A99AA90E94DE10DC01D0
:10153000CB019CAB8BAB8BA99CA998AF8FAB8FA930
:1015400098AD0197F1F798AF8FAB89AD9AADFC01DB
:10155000828193810196FC01208189AD9AADFC01C5
:1015600082819381FC01808140E0622F0E9405040A
:1015700080E090E0A0EAB1E48D839E83AF83B887DA
:1015800020E030E04AE755E46D817E818F819885C7
:101590000E94C411DC01CB018DA39EA3AFA3B8A709
:1015A00020E030E040E85FE36DA17EA18FA198A527
:1015B0000E94601088232CF481E090E09AA789A70C
:1015C0003FC020E03FEF4FE757E46DA17EA18FA120
:1015D00098A50E94BF1118164CF520E030E040E2BB
:1015E00051E46D817E818F8198850E94C411DC0158
:1015F000CB01BC01CD010E94DE10DC01CB019AA71A
:1016000089A70FC080E991E09CA78BA78BA59CA51B
:101610000197F1F79CA78BA789A59AA501979AA78F
:1016200089A789A59AA5892B69F714C06DA17EA108
:101630008FA198A50E94DE10DC01CB019AA789A793
:1016400089A59AA59EA78DA78DA59EA50197F1F7BF
:101650009EA78DA78BAD382F317089AD9AADFC0157
:10166000828193810596FC01208189AD9AADFC01B0
:10167000828193810496FC018081432F622F0E9416
:1016800005048BAD8695382F317089AD9AADFC017C
:10169000828193810796FC01208189AD9AADFC017E
:1016A000828193810696FC018081432F622F0E94E4
:1016B00005048BAD86958695382F317089AD9AAD2E
:1016C000FC01828193810996FC01208189AD9AAD4C
:1016D000FC01828193810896FC018081432F622F57
:1016E0000E9405048BAD869586958695382F3170BE
:1016F00089AD9AADFC01828193810B96FC0120811A
:1017000089AD9AADFC01828193810A96FC018081AA
:10171000432F622F0E94050489AD9AADFC0182819E
:1017200093810396FC01208189AD9AADFC018281F1
:1017300093810296FC01808140E0622F0E940504A3
:1017400089AD9AADFC01828193810196FC012081D3
:1017500089AD9AADFC0182819381FC01808141E0D9
:10176000622F0E94050480E090E0A0E8BFE3898733
:101770009A87AB87BC8720E030E04AE755E469856B
:101780007A858B859C850E94C411DC01CB018B8FEF
:101790009C8FAD8FBE8F20E030E040E85FE36B8D23
:1017A0007C8D8D8D9E8D0E94601088232CF481E0AD
:1017B00090E098A38F8F3FC020E03FEF4FE757E4C2
:1017C0006B8D7C8D8D8D9E8D0E94BF1118164CF5F2
:1017D00020E030E040E251E469857A858B859C8584
:1017E0000E94C411DC01CB01BC01CD010E94DE10BE
:1017F000DC01CB0198A38F8F0FC080E991E09AA301
:1018000089A389A19AA10197F1F79AA389A38F8D42
:1018100098A1019798A38F8F8F8D98A1892B69F735
:1018200014C06B8D7C8D8D8D9E8D0E94DE10DC0131
:10183000CB0198A38F8F8F8D98A19CA38BA38BA195
:101840009CA10197F1F79CA38BA389AD9AADFC01F4
:10185000828193810196FC01208189AD9AADFC01C2
:1018600082819381FC01808140E0622F0E94050407
:1018700080E090E0A0EAB1E48D879E87AF87B88BC7
:1018800020E030E04AE755E46D857E858F859889B4
:101890000E94C411DC01CB01898B9A8BAB8BBC8B72
:1018A00020E030E040E85FE369897A898B899C8990
:1018B0000E94601088232CF481E090E09E8B8D8B39
:1018C0003FC020E03FEF4FE757E469897A898B8971
:1018D0009C890E94BF1118164CF520E030E040E2D0
:1018E00051E46D857E858F8598890E94C411DC0145
:1018F000CB01BC01CD010E94DE10DC01CB019E8B2F
:101900008D8B0FC080E991E0988F8F8B8F89988D98
:101910000197F1F7988F8F8B8D899E8901979E8B08
:101920008D8B8D899E89892B69F714C069897A8985
:101930008B899C890E94DE10DC01CB019E8B8D8BF4
:101940008D899E899A8F898F898D9A8D0197F1F75C
:101950009A8F898F0000EB960FB6F894DEBF0FBE0A
:10196000CDBFDF91CF910895CF93DF93CDB7DEB791
:101970006C970FB6F894DEBF0FBECDBF80E690E047
:101980000E94490088E00E94B00083EC9DE00E9424
:10199000CE0080E790E00E94FE0464E770E080E7FC
:1019A00090E00E94320980E090E0AAEFB3E48D83DA
:1019B0009E83AF83B88720E030E04AE755E46D812D
:1019C0007E818F8198850E94C411DC01CB018987BB
:1019D0009A87AB87BC8720E030E040E85FE3698509
:1019E0007A858B859C850E94601088232CF481E089
:1019F00090E09E878D873FC020E03FEF4FE757E4A0
:101A000069857A858B859C850E94BF1118164CF5D7
:101A100020E030E040E251E46D817E818F81988545
:101A20000E94C411DC01CB01BC01CD010E94DE107B
:101A3000DC01CB019E878D870FC080E991E0988BF8
:101A40008F878F8598890197F1F7988B8F878D8580
:101A50009E8501979E878D878D859E85892B69F749
:101A600014C069857A858B859C850E94DE10DC0117
:101A7000CB019E878D878D859E859A8B898B8989E1
:101A80009A890197F1F79A8B898B64E870E080E777
:101A900090E00E9432090E94580187E00E940101F3
:101AA00080E090E0AAEFB3E489839A83AB83BC83A0
:101AB00020E030E04AE755E469817A818B819C819E
:101AC0000E94C411DC01CB018B8B9C8BAD8BBE8B38
:101AD00020E030E040E85FE36B897C898D899E8956
:101AE0000E94601088232CF481E090E0988F8F8B07
:101AF0003FC020E03FEF4FE757E46B897C898D8939
:101B00009E890E94BF1118164CF520E030E040E29B
:101B100051E469817A818B819C810E94C411DC012E
:101B2000CB01BC01CD010E94DE10DC01CB01988FFE
:101B30008F8B0FC080E991E09A8F898F898D9A8D64
:101B40000197F1F79A8F898F8F89988D0197988FD8
:101B50008F8B8F89988D892B69F714C06B897C894D
:101B60008D899E890E94DE10DC01CB01988F8F8BBE
:101B70008F89988D9C8F8B8F8B8D9C8D0197F1F722
:101B80009C8F8B8F8ACFCF93DF93CDB7DEB741E0A9
:101B900060E080E790E00E94640984E990E00E94A0
:101BA000E1008091940090919500CC01A0E0B0E01C
:101BB000BC01CD010E940D11DC01CB0126EF38E202
:101BC0004CE950E4BC01CD010E94C411DC01CB0101
:101BD00020E030E040E251E4BC01CD010E946510FC
:101BE000DC01CB018093AC009093AD00A093AE00DC
:101BF000B093AF008091AC009091AD00A091AE0089
:101C0000B091AF00BC01CD010E94D710DC01CB0127
:101C10004AE050E060EB70E00E94311260EB70E04F
:101C200080E790E00E9432090000DF91CF91089593
:101C30001F920F9200905F000F9211242F933F93F9
:101C40004F935F936F937F938F939F93AF93BF93C4
:101C5000EF93FF93CF93DF93CDB7DEB780919600DC
:101C600090919700FC0109950000DF91CF91FF91C1
:101C7000EF91BF91AF919F918F917F916F915F9104
:101C80004F913F912F910F9000925F000F901F9006
:101C90001895CF93DF931F92CDB7DEB789838981E3
:101CA000882F90E08130910581F082309105B9F064
:101CB000892B09F031C083E590E023E530E0F9019C
:101CC0002081287FFC01208327C08EE490E02EE451
:101CD00030E0F9012081287FFC0120831DC085E4CC
:101CE00090E025E430E0F9012081287FFC01208389
:101CF0008091A4009091A500FC018081882359F077
:101D0000000082E490E0FC018081882F90E08170E7
:101D10009927892BB1F7000000000F90DF91CF9138
:101D200008951F920F9200905F000F9211242F933D
:101D30003F934F935F936F937F938F939F93AF9353
:101D4000BF93EF93FF93CF93DF93CDB7DEB780912F
:101D50009800882301F52091A6003091A70080917A
:101D6000990090919A002817390750F48091A600A5
:101D70009091A70001969093A7008093A60054C06D
:101D80008091C4009091C500FC0109951092A700B4
:101D90001092A60049C080919800813019F52091D9
:101DA000A6003091A7008091990090919A00281781
:101DB000390750F48091A6009091A7000196909366
:101DC000A7008093A60030C08091C0009091C10010
:101DD000FC0109951092A7001092A60080E00E94D5
:101DE000490E22C080919B00882381F42CE530E0CD
:101DF0008091A0009091A100A091A200B091A300B9
:101E0000F901808381E080939B000EC02CE530E0D7
:101E100080919C0090919D00A0919E00B0919F00A8
:101E2000F901808310929B0088E590E022E0FC019C
:101E300020830000DF91CF91FF91EF91BF91AF918F
:101E40009F918F917F916F915F914F913F912F91D2
:101E50000F9000925F000F901F9018951F920F92A5
:101E600000905F000F9211242F933F934F935F9345
:101E70006F937F938F939F93AF93BF93EF93FF9352
:101E8000CF93DF93CDB7DEB78091C2009091C300AE
:101E9000FC01099588E590E021E0FC012083000029
:101EA000DF91CF91FF91EF91BF91AF919F918F9172
:101EB0007F916F915F914F913F912F910F90009281
:101EC0005F000F901F9018951F920F9200905F0077
:101ED0000F9211242F933F934F935F936F937F93B0
:101EE0008F939F93AF93BF93EF93FF93CF93DF9322
:101EF000CDB7DEB78091BC009091BD00FC01099583
:101F000088E590E024E0FC0120830000DF91CF9180
:101F1000FF91EF91BF91AF919F918F917F916F91C1
:101F20005F914F913F912F910F9000925F000F9022
:101F30001F9018951F920F9200905F000F9211242E
:101F40002F933F934F935F936F937F938F939F93C1
:101F5000AF93BF93EF93FF93CF93DF93CDB7DEB7EC
:101F60008091BE009091BF00FC01099588E590E04A
:101F700020E4FC0120830000DF91CF91FF91EF91DD
:101F8000BF91AF919F918F917F916F915F914F9191
:101F90003F912F910F9000925F000F901F90189526
:101FA0001F920F9200905F000F9211242F933F9386
:101FB0004F935F936F937F938F939F93AF93BF9351
:101FC000EF93FF93CF93DF93CDB7DEB78091BA0045
:101FD0009091BB00FC01099588E590E020E2FC01AE
:101FE00020830000DF91CF91FF91EF91BF91AF91DE
:101FF0009F918F917F916F915F914F913F912F9121
:102000000F9000925F000F901F9018951F920F92F3
:1020100000905F000F9211242F933F938F939F9313
:10202000EF93FF93CF93DF93CDB7DEB78091AA00F4
:102030009091AB002CE230E0F9012081FC0120837B
:102040000000DF91CF91FF91EF919F918F913F9190
:102050002F910F9000925F000F901F9018951F9284
:102060000F9200905F000F9211242F933F934F9394
:102070005F936F937F938F939F93AF93BF93EF93F0
:10208000FF93CF93DF93CDB7DEB78091A8009091F7
:10209000A900FC0109950000DF91CF91FF91EF911C
:1020A000BF91AF919F918F917F916F915F914F9170
:1020B0003F912F910F9000925F000F901F90189505
:1020C0000E944A1108F481E008950E9479100C944E
:1020D00085110E947E1158F00E94771140F029F47A
:1020E0005F3F29F00C946E1151110C94B9110C94AE
:1020F00074110E94961168F39923B1F3552391F35B
:10210000951B550BBB27AA2762177307840738F066
:102110009F5F5F4F220F331F441FAA1FA9F335D0C3
:102120000E2E3AF0E0E832D091505040E695001C77
:10213000CAF72BD0FE2F29D0660F771F881FBB1F31
:10214000261737074807AB07B0E809F0BB0B802D0F
:10215000BF01FF2793585F4F3AF09E3F510578F03B
:102160000C946E110C94B9115F3FE4F3983ED4F3D4
:10217000869577956795B795F7959F5FC9F7880F0F
:10218000911D9695879597F90895E1E0660F771F61
:10219000881FBB1F621773078407BA0720F0621BF2
:1021A000730B840BBA0BEE1F88F7E09508950E941D
:1021B000DE106894B1110C94B91108950E949E111B
:1021C00088F09F5798F0B92F9927B751B0F0E1F0F8
:1021D000660F771F881F991F1AF0BA95C9F714C0A8
:1021E000B13091F00E94B811B1E008950C94B8118B
:1021F000672F782F8827B85F39F0B93FCCF38695E1
:1022000077956795B395D9F73EF49095809570953D
:1022100061957F4F8F4F9F4F0895E89409C097FBBA
:102220003EF490958095709561957F4F8F4F9F4FAD
:102230009923A9F0F92F96E9BB279395F6958795F1
:1022400077956795B795F111F8CFFAF4BB0F11F4B4
:1022500060FF1BC06F5F7F4F8F4F9F4F16C088235B
:1022600011F096E911C0772321F09EE8872F762F91
:1022700005C0662371F096E8862F70E060E02AF0D2
:102280009A95660F771F881FDAF7880F96958795BE
:1022900097F90895990F0008550FAA0BE0E8FEEF93
:1022A00016161706E807F907C0F012161306E4071A
:1022B000F50798F0621B730B840B950B39F40A2613
:1022C00061F0232B242B252B21F408950A2609F4F1
:1022D000A140A6958FEF811D811D089597F99F67F5
:1022E00080E870E060E008959FEF80EC089500249E
:1022F0000A941616170618060906089500240A946B
:1023000012161306140605060895092E0394000CF0
:1023100011F4882352F0BB0F40F4BF2B11F460FF7F
:1023200004C06F5F7F4F8F4F9F4F089557FD9058A8
:10233000440F551F59F05F3F71F04795880F97FB89
:10234000991F61F09F3F79F0879508951216130643
:102350001406551FF2CF4695F1DF08C01616170672
:102360001806991FF1CF86957105610508940895A7
:10237000E894BB2766277727CB0197F908950E9439
:102380004A1108F48FEF08950E94D7110C9485111B
:102390000E94771138F00E947E1120F0952311F0F1
:1023A0000C946E110C94741111240C94B9110E94A8
:1023B000961170F3959FC1F3950F50E0551F629FE2
:1023C000F001729FBB27F00DB11D639FAA27F00D8E
:1023D000B11DAA1F649F6627B00DA11D661F829FB5
:1023E0002227B00DA11D621F739FB00DA11D621F9A
:1023F000839FA00D611D221F749F3327A00D611DB7
:10240000231F849F600D211D822F762F6A2F112498
:102410009F5750409AF0F1F088234AF0EE0FFF1FCB
:10242000BB1F661F771F881F91505040A9F79E3F22
:10243000510580F00C946E110C94B9115F3FE4F3D8
:10244000983ED4F3869577956795B795F795E79578
:102450009F5FC1F7FE2B880F911D9695879597F981
:1024600008954532510520F4423010F00C943C128E
:10247000FB011082CB010895BB274A3031F4992328
:1024800022F4BDE2909581959F4F0C944812BB2792
:10249000FB015527AA27880F991FAA1FA41710F020
:1024A000A41B83955051B9F7A05DAA3308F0A95D2C
:1024B000A193009779F7B111B1931192CB010C94CC
:1024C0006112DC01FC01672F71917723E1F73297EC
:1024D00004C07C916D9370836291AE17BF07C8F3FF
:0624E0000895F894FFCFFF
:1024E6004006200002020200030403050306030758
:1024F600021064004C434420496E697469616C693A
:0C2506007A65640054656D7020697300F4
:00000001FF
