:020000040800F2
:1000000000280020C1130008111400081114000872
:100010001114000811140008111400080000000059
:1000200000000000000000000000000011140008A3
:10003000111400080000000011140008550D0008FC
:1000400011140008111400081114000811140008FC
:100050001114000811140008290900084D090008AE
:100060007109000895090008B9090008C5070008CA
:10007000F507000825080008590800088D08000841
:10008000C1080008F5080008111400081114000840
:1000900011140008111400081114000811140008AC
:1000A000111400081114000811140008111400089C
:1000B000111400081114000811140008111400088C
:1000C0001114000811140008111400089D0C0008F8
:1000D000F90C0008D9110008111200084912000893
:1000E0001114000811140008000000001114000889
:1000F000111400081114000811140008111400084C
:10010000111400081114000811140008111400083B
:10011000111400081114000811140008111400082B
:10012000111400081114000811140008111400081B
:1001300010B5054C237833B9044B13B10448AFF321
:1001400000800123237010BDD800002000000000B3
:100150005C14000808B5034B1BB103490348AFF317
:10016000008008BD00000000DC0000205C140008D6
:1001700090B482B000AF7860AF4A7B681B781946B4
:100180000B469B000B449B00134408331B68AA4991
:100190007A681278104623F0010203469B0003445C
:1001A0009B000B4408331A6000BFA34A7B681B788E
:1001B00019460B469B000B449B00134408331B68F5
:1001C00003F00103012BF0D09B4A7B681B78194692
:1001D0000B469B000B449B00134408331B68964955
:1001E0007A681278104623F4804222F01002034607
:1001F0009B0003449B000B4408331A608E4A7B68C3
:100200001B7819460B469B000B449B001344083394
:100210001B687A68D288144687497A681278104633
:1002200043EA040203469B0003449B000B4408334B
:100230001A60814A7B681B7819460B469B000B4469
:100240009B00134408331B687B497A681278104678
:1002500023F0200203469B0003449B000B44083319
:100260001A60754A7B681B7819460B469B000B4445
:100270009B00134408331B687A68127914466E4950
:100280007A681278104643EA040203469B0003444E
:100290009B000B4408331A60674A7B681B78194639
:1002A0000B469B000B449B00134408331B686249B8
:1002B0007A681278104623F0800203469B000344BC
:1002C0009B000B4408331A605B4A7B681B78194615
:1002D0000B469B000B449B00134408331B687A6851
:1002E000927A144654497A681278104643EA040216
:1002F00003469B0003449B000B4408331A604E4A9C
:100300007B681B7819460B469B000B449B001344EB
:1003100008331B6848497A681278104623F0400277
:1003200003469B0003449B000B4408331A60424A77
:100330007B681B7819460B469B000B449B001344BB
:1003400008331B687A68D27A14463B497A68127877
:10035000104643EA040203469B0003449B000B44FF
:1003600008331A607B681B7A002B30D1324A7B68D5
:100370001B7819460B469B000B449B001344083323
:100380001B682D497A681278104623F48062034670
:100390009B0003449B000B4408331A60264A7B6889
:1003A0001B7819460B469B000B449B0013440833F3
:1003B0001B6821497A681278104623F400620346CC
:1003C0009B0003449B000B4408331A606AE07B687F
:1003D0001B7A012B32D1184A7B681B7819460B46D1
:1003E0009B000B449B00134408331B6812497A6836
:1003F0001278104643F4806203469B0003449B003E
:100400000B4408331A600C4A7B681B7819460B466C
:100410009B000B449B00134408331B6806497A6811
:100420001278104623F4006203469B0003449B00AD
:100430000B4408331A6035E0000002407B681B7AE9
:10044000022B2FD1B74A7B681B7819460B469B00BD
:100450000B449B00134408331B68B2497A68127836
:10046000104623F4806203469B0003449B000B4428
:1004700008331A60AB4A7B681B7819460B469B0011
:100480000B449B00134408331B68A6497A68127812
:10049000104643F4006203469B0003449B000B4458
:1004A00008331A607B685B7A002B30D19D4A7B68E9
:1004B0001B7819460B469B000B449B0013440833E2
:1004C0001B6898497A681278104623F480720346B4
:1004D0009B0003449B000B4408331A60914A7B68DD
:1004E0001B7819460B469B000B449B0013440833B2
:1004F0001B688C497A681278104623F40072034610
:100500009B0003449B000B4408331A6068E07B683F
:100510005B7A012B30D1834A7B681B7819460B46E6
:100520009B000B449B00134408331B687D497A6889
:100530001278104643F4807203469B0003449B00EC
:100540000B4408331A60774A7B681B7819460B46C0
:100550009B000B449B00134408331B6871497A6865
:100560001278104623F4007203469B0003449B005C
:100570000B4408331A6033E07B685B7A022B2FD17F
:10058000684A7B681B7819460B469B000B449B000E
:10059000134408331B6863497A681278104623F4C1
:1005A000807203469B0003449B000B4408331A608F
:1005B0005C4A7B681B7819460B469B000B449B00EA
:1005C000134408331B6857497A681278104643F47D
:1005D000007203469B0003449B000B4408331A60DF
:1005E000504A7B681B7819460B469B000B449B00C6
:1005F000134408331B684B497A681278104623F479
:10060000405203469B0003449B000B4408331A608E
:10061000444A7B681B7819460B469B000B449B00A1
:10062000134408331B687A68528814463D497A6837
:100630001278104643EA040203469B0003449B00E1
:100640000B4408331A60374A7B681B7819460B46FF
:100650009B000B449B00134408331B6831497A68A4
:100660001278104623F00E0203469B0003449B00C1
:100670000B4408331A602B4A7B681B7819460B46DB
:100680009B000B449B00134408331B687A68127B61
:10069000144624497A681278104643EA0402034655
:1006A0009B0003449B000B4408331A601D4A7B687F
:1006B0001B7819460B469B000B449B0013440833E0
:1006C0001B687A68527B144616497A68127810467D
:1006D00043EA040203469B0003449B000B44083397
:1006E0001A60104A7B681B7819460B469B000B4426
:1006F0009B00134408331B687A68927B14460949AF
:100700007A681278104643EA040203469B000344C9
:100710009B000B4408331A6000BF0837BD4690BCED
:10072000704700BF0000024080B485B000AFB960E0
:100730007A601A460346FB731346BB811F4B6FF06A
:1007400070425A601D48FA7BB98913469B001344D6
:100750009B0003440C3319601848FA7BB9681346B0
:100760009B0013449B000344103319601348FA7B29
:10077000796813469B0013449B00034414331960AB
:10078000FB7B0F49BA6941F823200C49FA7B1346D9
:100790009B0013449B000B4408331B680748FA7BFB
:1007A00043F0010113469B0013449B0003440833AC
:1007B000196000BF1437BD4680BC7047000002407E
:1007C000F400002080B500AF084B1B685B0803F005
:1007D0000103012B03D1064B1B68984701E0034B33
:1007E0001B68024B01225A6000BF80BD000002401E
:1007F000F400002080B500AF084B1B685B0903F0D4
:100800000103012B03D1064B5B68984701E0034BC2
:100810001B68024B10225A6000BF80BD00000240DE
:10082000F400002080B500AF094B1B685B0A03F0A1
:100830000103012B03D1074B9B68984701E0044B50
:100840001B68034B4FF480725A6000BF80BD00BF2D
:1008500000000240F400002080B500AF094B1B6887
:100860005B0B03F00103012B03D1074BDB689847B7
:1008700001E0044B1B68034B4FF480525A6000BFE9
:1008800080BD00BF00000240F400002080B500AF32
:10089000094B1B685B0C03F00103012B03D1074BD1
:1008A0001B69984701E0044B1B68034B4FF48032EF
:1008B0005A6000BF80BD00BF00000240F40000206D
:1008C00080B500AF094B1B685B0D03F00103012BE2
:1008D00003D1074B5B69984701E0044B1B68034B4E
:1008E0004FF480125A6000BF80BD00BF000002407C
:1008F000F400002080B500AF094B1B685B0E03F0CD
:100900000103012B03D1074B9B69984701E0044B7E
:100910001B68034B4FF080725A6000BF80BD00BF60
:1009200000000240F400002080B500AF054B1B68BA
:100930009847054B5B69044A43F00103536100BFCC
:1009400080BD00BF100100200004014080B500AF51
:10095000054B5B689847054B5B69044A43F002030B
:10096000536100BF80BD00BF1001002000040140A2
:1009700080B500AF054B9B689847054B5B69044AFF
:1009800043F00403536100BF80BD00BF100100208D
:100990000004014080B500AF054BDB689847054B6C
:1009A0005B69044A43F00803536100BF80BD00BF88
:1009B000100100200004014080B500AF054B1B6909
:1009C0009847054B5B69044A43F01003536100BF2D
:1009D00080BD00BF100100200004014080B483B03E
:1009E00000AF0346FB710B46BB7113467B71FB796D
:1009F000032B3ED0042B75D0022B00D0A9E0BB798D
:100A0000072B17D8554B1B68BA7992000F2101FAB2
:100A100002F2D2431146514A0B4013604F4B1B6800
:100A20007979BA79920001FA02F211464B4A0B43E6
:100A3000136089E0BB790F2B00F28680BB79083BFD
:100A4000BB71464B5B68BA7992000F2101FA02F242
:100A5000D2431146414A0B405360404B5B68797961
:100A6000BA79920001FA02F211463C4A0B435360F4
:100A70006AE0BB79072B17D8394B1B68BA7992000B
:100A80000F2101FA02F2D2431146354A0B4013609E
:100A9000334B1B687979BA79920001FA02F2114658
:100AA0002F4A0B43136051E0BB790F2B4ED8BB7913
:100AB000083BBB712A4B5B68BA7992000F2101FA9F
:100AC00002F2D2431146264A0B405360244B5B6826
:100AD0007979BA79920001FA02F21146204A0B4361
:100AE000536033E0BB79072B10D81E4B1B681D4B9E
:100AF00000221A601B4B1B687979BA79920001FABF
:100B000002F21146174A0B43136021E0BB790F2B09
:100B10001ED8BB79083BBB71124B5B68BA79920057
:100B20000F2101FA02F2D24311460E4A0B405360E4
:100B30000C4B5B687979BA79920001FA02F211469E
:100B4000084A0B43536003E000BF02E000BF00E02F
:100B500000BF00BF0C37BD4680BC70470008014095
:100B6000000C01400010014080B483B000AF034688
:100B7000FB71FB791F2B0AD80F4B1B68FA790121F7
:100B800001FA02F211460C4A0B4313600FE0FB79A5
:100B90003B2B0CD8FB79203BFB71084B1B68FA7987
:100BA000012101FA02F21146044A0B43136000BF0F
:100BB0000C37BD4680BC704700E100E004E100E076
:100BC00080B483B000AF03460A46FB711346BB7185
:100BD000BB791F2B28D8FB79012B0FD0022B18D003
:100BE000002B00D020E0134B1B68BA79012101FAD9
:100BF00002F211460F4A0B43136015E00E4B1B68BF
:100C0000BA79012101FA02F211460B4A0B43136033
:100C10000AE00A4B1B68BA79012101FA02F2114677
:100C2000064A0B43136000BF00BF0C37BD4680BCB3
:100C3000704700BF141002401C1002401810024000
:100C400080B400AF134B80221A60134B00221A604D
:100C5000104B1B680F4A43F00103136000BF0D4B9C
:100C60001B685B0803F00103002BF8D00A4B0A4A0B
:100C70001B681360084B084A1B681360064B064A42
:100C80001B681360044B044A1B68136000BFBD4619
:100C900080BC7047001002400410024080B582B052
:100CA00000AF134B9B685B0803F00103DAB23B799A
:100CB00062F300033B710E4B9B6803F00103DAB251
:100CC0003B7962F341033B71094B9B681B0903F0BD
:100CD0000103DAB23B7962F382033B71054B1B6877
:100CE0001B693879984700BF0837BD4680BD00BFF3
:100CF000003001405001002080B582B000AF134B9E
:100D00009B685B0803F00103DAB23B7962F30003EE
:100D10003B710E4B9B6803F00103DAB23B7962F33F
:100D200041033B71094B9B681B0903F00103DAB2D5
:100D30003B7962F382033B71054B5B681B69387931
:100D4000984700BF0837BD4680BD00BF0030014056
:100D50005001002080B582B000AF0023FB71124B20
:100D60001B78022B11D1114B1B68104A23F0020390
:100D700013600E4B1B680D4A23F0010313600B4BED
:100D800000225A60094B00229A60094B1B68984761
:100D9000064B1B681B0CDBB203F00103FB7100BFA9
:100DA0000837BD4680BD00BF6801002010E000E0AC
:100DB0005801002080B584B000AF03463960FB7154
:100DC0000023FB810023BB8100237B813B689A8841
:100DD0003B68DB8813439AB23B681B789BB2134392
:100DE0009AB23B685B8A13439BB243F40053FB8186
:100DF0003B681A893B689B8913439AB23B68DB893D
:100E00001343BB813B681B7C7B81FB7920493A689B
:100E100041F8232000233B813B685B8807F10802EF
:100E20001C49184600F096F8FB79012B11D0022BD3
:100E30001CD0002B00D026E03A89174B9A60164A46
:100E4000FB89D360144ABB891361134A7B895361C0
:100E500019E03A89114B9A60104AFB89D3600F4A16
:100E6000BB8913610D4A7B8953610CE03A890C4BB5
:100E70009A600B4AFB89D360094ABB891361084A0F
:100E80007B89536100BF00BF1037BD4680BD00BFE6
:100E90005C01002000127A0000380140004400404C
:100EA0000048004080B483B000AF03463960FB7156
:100EB000FB79012B19D0022B2CD0002B00D03EE067
:100EC00000BF214B1B68DB0903F00103002BF8D0A6
:100ED0003B681A881C4B5A6000BF1B4B1B689B0960
:100EE00003F00103002BF8D029E000BF174B1B686B
:100EF000DB0903F00103002BF8D03B681A88134B81
:100F00005A6000BF114B1B689B0903F00103002BC3
:100F1000F8D014E000BF0E4B1B68DB0903F001039F
:100F2000002BF8D03B681A88094B5A6000BF084B69
:100F30001B689B0903F00103002BF8D000BF00BF22
:100F40000C37BD4680BC704700380140004400406B
:100F50000048004080B48BB000AF0346B9607A60AF
:100F6000FB81FB891B011A46BB68B3FBF2F33B62B2
:100F7000BA6813469B0013449A001344FA899200FE
:100F8000B3FBF2F3FB613B6A642202FB03F3BB6138
:100F90003B6A7B62FA69BB69D31A1B010E4AA2FB4A
:100FA00003235B097B617B69102B02D97B6A0133C8
:100FB0007B627B6A9BB21B019AB27B699BB203F096
:100FC0000F039BB213439AB27B681A8000BF2C3781
:100FD000BD4680BC704700BF1F85EB5180B582B015
:100FE00000AF0346FB71FB797A4A52F823301B7835
:100FF000082BFB79002B4CD1FB79764A52F8233031
:101000001B78082B05D1092209210220FFF7E6FCF5
:1010100016E0FB796F4A52F823301B78042B05D178
:1010200004220A210220FFF7D9FC09E004220A2148
:101030000220FFF7D3FC092209210220FFF7CEFC92
:10104000644B1B685B89B3F5807F05D109220C21B5
:101050000220FFF7C3FCB9E05E4B1B685B89B3F568
:10106000007F05D104220B210220FFF7B7FCADE081
:10107000584B1B685B89002B00F0A88004220B21D1
:101080000220FFF7ABFC09220C210220FFF7A6FC8F
:101090009CE0FB79012B4BD1FB794E4A52F823306F
:1010A0001B78082B05D1092202210220FFF796FCAC
:1010B00016E0FB79474A52F823301B78042B05D100
:1010C00004220D210220FFF789FC09E009220221F8
:1010D0000220FFF783FC04220D210220FFF77EFC93
:1010E0003C4B5B685B89B3F5807F05D10922012108
:1010F0000220FFF773FC69E0364B5B685B89B3F550
:10110000007F05D1042200210220FFF767FC5DE08B
:10111000304B5B685B89002B58D0042200210220F1
:10112000FFF75CFC092201210220FFF757FC4DE08C
:10113000FB79022B4AD1FB79264A52F823301B78DF
:10114000082B05D109220A210320FFF747FC16E0EE
:10115000FB79204A52F823301B78042B05D1042256
:101160000B210320FFF73AFC09E009220A210320A2
:10117000FFF734FC04220B210320FFF72FFC154B53
:101180009B685B89B3F5807F05D109220E2103207E
:10119000FFF724FC1AE00F4B9B685B89B3F5007FD7
:1011A00005D104220D210320FFF718FC0EE0094BA6
:1011B0009B685B89002B09D009220E210320FFF7D1
:1011C0000DFC04220D210320FFF708FC00BF0837A7
:1011D000BD4680BD5C01002080B500AF0A4B1B6896
:1011E0005B690A4A526892B210469847074B1B68DF
:1011F000064A23F040031360044B1B68034A23F0A4
:101200002003136000BF80BD5C0100200038014056
:1012100080B500AF0A4B5B685B690A4A526892B2BC
:1012200010469847074B1B68064A23F0400313609B
:10123000044B1B68034A23F02003136000BF80BDEA
:101240005C0100200044004080B500AF0A4B9B6861
:101250005B690A4A526892B210469847084B1B686D
:10126000074A23F040031360054B1B68044A23F030
:101270002003136000BF80BD5C01002000440040DB
:101280000048004080B485B000AF03463960FB7170
:10129000FB79012B07D0022B08D0002B00D008E0EF
:1012A000084BFB6005E0084BFB6002E0074BFB606E
:1012B00000BF3B68FA681A6000BF1437BD4680BCA7
:1012C000704700BF04380140044400400448004017
:1012D00080B58AB002AFFFF7B3FC02210220FFF70E
:1012E0006FFC0E210220FFF76BFC00210020FFF7AE
:1012F00067FC0E20FFF738FC0020FFF76FFE0C2381
:101300003B714FF41653FB8000233B8100237B810C
:101310000023BB810023FB8100233B8200237B82CF
:101320000023FB8280233B750023BB613B1D1946D4
:101330000020FFF73FFD00233B600B48FEF718FF3E
:101340003B4619460020FFF79DFF3B681946074BB7
:101350000093C823064A0320FFF7E6F90023FB8326
:101360000023BB83FEE700BFC80000207513000800
:1013700000000020B0B586B000AF104B3C1D1D46EC
:101380000FCD0FC42B6823800023FB7509E0FB7D84
:101390003A1D134419460020FFF784FDFB7D0133FD
:1013A000FB75FB7D07F11802134413F8143C002B66
:1013B000EDD100BF1837BD46B0BD00BF74140008A2
:1013C0000D488546AFF300800C480D490D4A0023B7
:1013D00002E0D458C4500433C4188C42F9D30A4AEA
:1013E0000A4C002301E013600432A242FBD300F058
:1013F00011F8FFF76DFFFEE7002800200000002035
:10140000D800002090140008D80000206C010020B3
:10141000FEE7000070B500250C4E0D4CA41BA41077
:10142000A54209D100F01AF800250A4E0A4CA41B67
:10143000A410A54205D170BD56F825309847013556
:10144000EEE756F8253098470135F2E78814000892
:1014500088140008881400088C140008F8B500BF30
:10146000F8BC08BC9E467047F8B500BFF8BC08BC85
:041470009E467047DD
:10147400444D412046696E6973686564203A2920A9
:041484000000000064
:041488005501000802
:04148C003101000822
:101490004C6F72656D20697073756D20646F6C6F31
:1014A000722073697420616D65742C20636F6E7394
:1014B00065637465747565722061646970697363CE
:1014C000696E6720656C69742E2041656E65616E7A
:1014D00020636F6D6D6F646F206C6967756C612040
:1014E0006567657420646F6C6F722E2041656E6550
:1014F000616E206D617373612E2043756D20736F73
:1015000063696973206E61746F7175652070656EB3
:10151000617469627573206574206D61676E6973AB
:10152000206469732070617274757269656E7420CD
:101530006D6F6E7465732C206E6173636574757264
:10154000207269640000000000000000000000003C
:101550000000000000000000030000200000100058
:08156000000080000002000001
:04000005080013C11B
:00000001FF
