:100000000C942A000C9498000C94C9000C9447009E
:100010000C9447000C9447000C9447000C94470044
:100020000C9447000C9447000C9447000C94060372
:100030000C9447000C942F030C9447000C94470039
:100040000C9447000C9447000C94FA000C94470061
:100050000C94470011241FBECFE5D4E0DEBFCDBF16
:1000600010E0A0E6B0E0E8E0F7E002C005900D92F5
:10007000AE36B107D9F720E0AEE6B0E001C01D9280
:10008000AA37B207E1F70E942B010C9482030C946B
:100090000000CF93DF93CDB7DEB78BE590E02BE583
:1000A00030E0F90120812F7BFC0120838BE590E07B
:1000B0002BE530E0F90120812F77FC0120838BE5CF
:1000C00090E02BE530E0F90120812F7DFC012083B9
:1000D0008AE590E02AE530E0F90120812064FC0106
:1000E00020838AE590E02AE530E0F901208120684C
:1000F000FC0120838AE590E02AE530E0F9012081C7
:100100002062FC0120830000DF91CF910895CF93FE
:10011000DF93CDB7DEB78FE590E02FE530E0F90152
:1001200020812068FC0120830000DF91CF91089599
:100130001F920F9200905F000F9211242F933F9314
:100140004F935F936F937F938F939F93AF93BF93DF
:10015000EF93FF93CF93DF93CDB7DEB780916E001F
:1001600090916F00FC0109950000DF91CF91FF9104
:10017000EF91BF91AF919F918F917F916F915F911F
:100180004F913F912F910F9000925F000F901F9021
:1001900018951F920F9200905F000F9211242F93D9
:1001A0003F934F935F936F937F938F939F93AF93FF
:1001B000BF93EF93FF93CF93DF93CDB7DEB78091DB
:1001C000700090917100FC0109950000DF91CF91C2
:1001D000FF91EF91BF91AF919F918F917F916F911F
:1001E0005F914F913F912F910F9000925F000F9080
:1001F0001F9018951F920F9200905F000F9211248C
:100200002F933F934F935F936F937F938F939F931E
:10021000AF93BF93EF93FF93CF93DF93CDB7DEB749
:100220008091720090917300FC0109950000DF91AC
:10023000CF91FF91EF91BF91AF919F918F917F915E
:100240006F915F914F913F912F910F9000925F00BE
:100250000F901F901895CF93DF93CDB7DEB72897F7
:100260000FB6F894DEBF0FBECDBF0E94490080E8F4
:1002700095E29A83898383E08B831C821D8283E0CD
:100280008E831F82CE0101960E9465010E94870025
:10029000CE0108960E94D902888567E571E00E9428
:1002A000B50267E571E088E70E94B502FFCFCF9302
:1002B000DF93CDB7DEB70E94F50280E690E00E94A2
:1002C00058020000DF91CF9108950F931F93CF93B1
:1002D000DF9300D0CDB7DEB79A83898389819A8175
:1002E00090937700809376008AE290E02AE230E0F3
:1002F000F9012081277EFC0120838AE290E02AE236
:1003000030E0F9012081422F29813A81F9012581CC
:10031000222F30E0220F331F220F331F220F331FF3
:10032000242BFC01208389819A81FC01828186959E
:100330008695882F90E081709927892B51F08AE269
:1003400090E02AE230E0F90120812460FC01208362
:1003500009C08AE290E02AE230E0F90120812B7F97
:10036000FC01208380E490E029813A81F901228117
:10037000222F30E023703327220F331F422F298191
:100380003A81F9012381422B29813A81F9012481A3
:10039000242B2068FC01208309E210E089819A81E6
:1003A000FC0180819181CC01A0E0B0E0880F991F11
:1003B000AA1FBB1F880F991FAA1FBB1F880F991F59
:1003C000AA1FBB1F880F991FAA1FBB1F9C01AD014D
:1003D00080E094E2A4EFB0E0BC01CD010E94600394
:1003E000DA01C9018150F801808300E410E08981BD
:1003F0009A81FC0180819181CC01A0E0B0E0880F5E
:10040000991FAA1FBB1F880F991FAA1FBB1F880F08
:10041000991FAA1FBB1F880F991FAA1FBB1F9C01F2
:10042000AD0180E094E2A4EFB0E0BC01CD010E94F8
:100430006003DA01C9018150882F90E0892F990F5C
:10044000990BF801808300000F900F90DF91CF91FE
:100450001F910F910895CF93DF931F92CDB7DEB711
:10046000898300008BE290E0FC018081882F90E07E
:1004700080729927892BB1F389810E948202898336
:100480008CE290E02981FC01208300000F90DF9135
:10049000CF910895CF93DF931F92CDB7DEB78983B5
:1004A00089810E942B0200000F90DF91CF91089567
:1004B000CF93DF9300D01F92CDB7DEB79B838A83A3
:1004C00019820EC08981882F90E02A813B81820F9A
:1004D000931FFC0180810E944A0289818F5F89837A
:1004E0008981882F90E02A813B81820F931FFC0134
:1004F0008081882339F700000F900F900F90DF91D3
:10050000CF910895CF93DF9300D0CDB7DEB78A8324
:1005100019828091760090917700FC018281882F6A
:1005200090E08130910581F0823091051CF4892B97
:1005300039F015C08230910559F0039769F00FC06A
:100540008A818F7189830BC08A818F73898307C0E9
:100550008A818F77898303C08A818983000089819A
:100560000F900F90DF91CF910895CF93DF9300D03C
:100570001F92CDB7DEB789837B836A838A819B8193
:1005800090937500809374008CE290E02981FC01C7
:1005900020838AE290E02AE230E0F90120812064A1
:1005A000FC01208300000F900F900F90DF91CF91FE
:1005B0000895CF93DF9300D0CDB7DEB79A838983B8
:1005C00089819A8190937900809378008AE290E003
:1005D0002AE230E0F90120812068FC01208300003C
:1005E0000F900F90DF91CF910895CF93DF93CDB708
:1005F000DEB78AE290E02AE230E0F90120812F7B29
:10060000FC0120830000DF91CF9108951F920F928B
:1006100000905F000F9211242F933F938F939F932D
:10062000EF93FF93CF93DF93CDB7DEB78091780040
:10063000909179002CE230E0F9012081FC012083C7
:100640000000DF91CF91FF91EF919F918F913F91AA
:100650002F910F9000925F000F901F9018951F929E
:100660000F9200905F000F9211242F933F934F93AE
:100670005F936F937F938F939F93AF93BF93EF930A
:10068000FF93CF93DF93CDB7DEB780917400909145
:100690007500FC0109950000DF91CF91FF91EF916A
:1006A000BF91AF919F918F917F916F915F914F918A
:1006B0003F912F910F9000925F000F901F9018951F
:1006C000A1E21A2EAA1BBB1BFD010DC0AA1FBB1F56
:1006D000EE1FFF1FA217B307E407F50720F0A21BC8
:1006E000B30BE40BF50B661F771F881F991F1A9435
:1006F00069F760957095809590959B01AC01BD015F
:08070000CF010895F894FFCF2A
:0E070800545820436F6D706C6574652E0000B0
:00000001FF
